{
  "contractName": "Marketplace",
  "abi": [
    {
      "inputs": [
        {
          "internalType": "uint256",
          "name": "_investmentPrice",
          "type": "uint256"
        }
      ],
      "stateMutability": "nonpayable",
      "type": "constructor"
    },
    {
      "anonymous": false,
      "inputs": [
        {
          "indexed": true,
          "internalType": "address",
          "name": "owner",
          "type": "address"
        },
        {
          "indexed": true,
          "internalType": "address",
          "name": "approved",
          "type": "address"
        },
        {
          "indexed": true,
          "internalType": "uint256",
          "name": "tokenId",
          "type": "uint256"
        }
      ],
      "name": "Approval",
      "type": "event"
    },
    {
      "anonymous": false,
      "inputs": [
        {
          "indexed": true,
          "internalType": "address",
          "name": "owner",
          "type": "address"
        },
        {
          "indexed": true,
          "internalType": "address",
          "name": "operator",
          "type": "address"
        },
        {
          "indexed": false,
          "internalType": "bool",
          "name": "approved",
          "type": "bool"
        }
      ],
      "name": "ApprovalForAll",
      "type": "event"
    },
    {
      "anonymous": false,
      "inputs": [
        {
          "indexed": true,
          "internalType": "address",
          "name": "previousOwner",
          "type": "address"
        },
        {
          "indexed": true,
          "internalType": "address",
          "name": "newOwner",
          "type": "address"
        }
      ],
      "name": "OwnershipTransferred",
      "type": "event"
    },
    {
      "anonymous": false,
      "inputs": [
        {
          "indexed": true,
          "internalType": "address",
          "name": "from",
          "type": "address"
        },
        {
          "indexed": true,
          "internalType": "address",
          "name": "to",
          "type": "address"
        },
        {
          "indexed": true,
          "internalType": "uint256",
          "name": "tokenId",
          "type": "uint256"
        }
      ],
      "name": "Transfer",
      "type": "event"
    },
    {
      "anonymous": false,
      "inputs": [],
      "name": "eventStarted",
      "type": "event"
    },
    {
      "anonymous": false,
      "inputs": [
        {
          "indexed": false,
          "internalType": "address",
          "name": "_investor",
          "type": "address"
        },
        {
          "indexed": false,
          "internalType": "uint256",
          "name": "_number",
          "type": "uint256"
        }
      ],
      "name": "invested",
      "type": "event"
    },
    {
      "anonymous": false,
      "inputs": [],
      "name": "investmentStarted",
      "type": "event"
    },
    {
      "anonymous": false,
      "inputs": [],
      "name": "investmentStopped",
      "type": "event"
    },
    {
      "anonymous": false,
      "inputs": [
        {
          "indexed": false,
          "internalType": "uint256",
          "name": "_id",
          "type": "uint256"
        },
        {
          "indexed": false,
          "internalType": "bool",
          "name": "state",
          "type": "bool"
        }
      ],
      "name": "saleToggled",
      "type": "event"
    },
    {
      "anonymous": false,
      "inputs": [
        {
          "indexed": false,
          "internalType": "uint256",
          "name": "_id",
          "type": "uint256"
        },
        {
          "indexed": false,
          "internalType": "uint256",
          "name": "_price",
          "type": "uint256"
        },
        {
          "indexed": false,
          "internalType": "string",
          "name": "_tokenURI",
          "type": "string"
        }
      ],
      "name": "ticketCreated",
      "type": "event"
    },
    {
      "anonymous": false,
      "inputs": [],
      "name": "ticketSaleStarted",
      "type": "event"
    },
    {
      "anonymous": false,
      "inputs": [
        {
          "indexed": false,
          "internalType": "uint256",
          "name": "_id",
          "type": "uint256"
        },
        {
          "indexed": false,
          "internalType": "address",
          "name": "_owner",
          "type": "address"
        }
      ],
      "name": "ticketTransferred",
      "type": "event"
    },
    {
      "inputs": [],
      "name": "_investmentSold",
      "outputs": [
        {
          "internalType": "uint256",
          "name": "",
          "type": "uint256"
        }
      ],
      "stateMutability": "view",
      "type": "function",
      "constant": true
    },
    {
      "inputs": [
        {
          "internalType": "address",
          "name": "to",
          "type": "address"
        },
        {
          "internalType": "uint256",
          "name": "tokenId",
          "type": "uint256"
        }
      ],
      "name": "approve",
      "outputs": [],
      "stateMutability": "nonpayable",
      "type": "function"
    },
    {
      "inputs": [
        {
          "internalType": "address",
          "name": "owner",
          "type": "address"
        }
      ],
      "name": "balanceOf",
      "outputs": [
        {
          "internalType": "uint256",
          "name": "",
          "type": "uint256"
        }
      ],
      "stateMutability": "view",
      "type": "function",
      "constant": true
    },
    {
      "inputs": [],
      "name": "currentState",
      "outputs": [
        {
          "internalType": "enum Marketplace.State",
          "name": "",
          "type": "uint8"
        }
      ],
      "stateMutability": "view",
      "type": "function",
      "constant": true
    },
    {
      "inputs": [
        {
          "internalType": "uint256",
          "name": "tokenId",
          "type": "uint256"
        }
      ],
      "name": "getApproved",
      "outputs": [
        {
          "internalType": "address",
          "name": "",
          "type": "address"
        }
      ],
      "stateMutability": "view",
      "type": "function",
      "constant": true
    },
    {
      "inputs": [],
      "name": "investmentPrice",
      "outputs": [
        {
          "internalType": "uint256",
          "name": "",
          "type": "uint256"
        }
      ],
      "stateMutability": "view",
      "type": "function",
      "constant": true
    },
    {
      "inputs": [
        {
          "internalType": "address",
          "name": "",
          "type": "address"
        }
      ],
      "name": "investors",
      "outputs": [
        {
          "internalType": "uint256",
          "name": "",
          "type": "uint256"
        }
      ],
      "stateMutability": "view",
      "type": "function",
      "constant": true
    },
    {
      "inputs": [
        {
          "internalType": "address",
          "name": "owner",
          "type": "address"
        },
        {
          "internalType": "address",
          "name": "operator",
          "type": "address"
        }
      ],
      "name": "isApprovedForAll",
      "outputs": [
        {
          "internalType": "bool",
          "name": "",
          "type": "bool"
        }
      ],
      "stateMutability": "view",
      "type": "function",
      "constant": true
    },
    {
      "inputs": [],
      "name": "name",
      "outputs": [
        {
          "internalType": "string",
          "name": "",
          "type": "string"
        }
      ],
      "stateMutability": "view",
      "type": "function",
      "constant": true
    },
    {
      "inputs": [],
      "name": "owner",
      "outputs": [
        {
          "internalType": "address",
          "name": "",
          "type": "address"
        }
      ],
      "stateMutability": "view",
      "type": "function",
      "constant": true
    },
    {
      "inputs": [
        {
          "internalType": "uint256",
          "name": "tokenId",
          "type": "uint256"
        }
      ],
      "name": "ownerOf",
      "outputs": [
        {
          "internalType": "address",
          "name": "",
          "type": "address"
        }
      ],
      "stateMutability": "view",
      "type": "function",
      "constant": true
    },
    {
      "inputs": [],
      "name": "renounceOwnership",
      "outputs": [],
      "stateMutability": "nonpayable",
      "type": "function"
    },
    {
      "inputs": [
        {
          "internalType": "address",
          "name": "from",
          "type": "address"
        },
        {
          "internalType": "address",
          "name": "to",
          "type": "address"
        },
        {
          "internalType": "uint256",
          "name": "tokenId",
          "type": "uint256"
        }
      ],
      "name": "safeTransferFrom",
      "outputs": [],
      "stateMutability": "nonpayable",
      "type": "function"
    },
    {
      "inputs": [
        {
          "internalType": "address",
          "name": "from",
          "type": "address"
        },
        {
          "internalType": "address",
          "name": "to",
          "type": "address"
        },
        {
          "internalType": "uint256",
          "name": "tokenId",
          "type": "uint256"
        },
        {
          "internalType": "bytes",
          "name": "_data",
          "type": "bytes"
        }
      ],
      "name": "safeTransferFrom",
      "outputs": [],
      "stateMutability": "nonpayable",
      "type": "function"
    },
    {
      "inputs": [
        {
          "internalType": "address",
          "name": "operator",
          "type": "address"
        },
        {
          "internalType": "bool",
          "name": "approved",
          "type": "bool"
        }
      ],
      "name": "setApprovalForAll",
      "outputs": [],
      "stateMutability": "nonpayable",
      "type": "function"
    },
    {
      "inputs": [
        {
          "internalType": "bytes4",
          "name": "interfaceId",
          "type": "bytes4"
        }
      ],
      "name": "supportsInterface",
      "outputs": [
        {
          "internalType": "bool",
          "name": "",
          "type": "bool"
        }
      ],
      "stateMutability": "view",
      "type": "function",
      "constant": true
    },
    {
      "inputs": [],
      "name": "symbol",
      "outputs": [
        {
          "internalType": "string",
          "name": "",
          "type": "string"
        }
      ],
      "stateMutability": "view",
      "type": "function",
      "constant": true
    },
    {
      "inputs": [
        {
          "internalType": "uint256",
          "name": "",
          "type": "uint256"
        }
      ],
      "name": "tickets",
      "outputs": [
        {
          "internalType": "uint256",
          "name": "maxPrice",
          "type": "uint256"
        },
        {
          "internalType": "uint256",
          "name": "price",
          "type": "uint256"
        },
        {
          "internalType": "bool",
          "name": "onSale",
          "type": "bool"
        }
      ],
      "stateMutability": "view",
      "type": "function",
      "constant": true
    },
    {
      "inputs": [
        {
          "internalType": "uint256",
          "name": "tokenId",
          "type": "uint256"
        }
      ],
      "name": "tokenURI",
      "outputs": [
        {
          "internalType": "string",
          "name": "",
          "type": "string"
        }
      ],
      "stateMutability": "view",
      "type": "function",
      "constant": true
    },
    {
      "inputs": [
        {
          "internalType": "address",
          "name": "from",
          "type": "address"
        },
        {
          "internalType": "address",
          "name": "to",
          "type": "address"
        },
        {
          "internalType": "uint256",
          "name": "tokenId",
          "type": "uint256"
        }
      ],
      "name": "transferFrom",
      "outputs": [],
      "stateMutability": "nonpayable",
      "type": "function"
    },
    {
      "inputs": [
        {
          "internalType": "address",
          "name": "newOwner",
          "type": "address"
        }
      ],
      "name": "transferOwnership",
      "outputs": [],
      "stateMutability": "nonpayable",
      "type": "function"
    },
    {
      "inputs": [],
      "name": "unitReturn",
      "outputs": [
        {
          "internalType": "uint256",
          "name": "",
          "type": "uint256"
        }
      ],
      "stateMutability": "view",
      "type": "function",
      "constant": true
    },
    {
      "inputs": [],
      "name": "vaultBalance",
      "outputs": [
        {
          "internalType": "uint256",
          "name": "",
          "type": "uint256"
        }
      ],
      "stateMutability": "view",
      "type": "function",
      "constant": true
    },
    {
      "inputs": [
        {
          "internalType": "uint256",
          "name": "_price",
          "type": "uint256"
        },
        {
          "internalType": "uint256",
          "name": "_maxPrice",
          "type": "uint256"
        },
        {
          "internalType": "string",
          "name": "_tokenURI",
          "type": "string"
        }
      ],
      "name": "createTicket",
      "outputs": [],
      "stateMutability": "nonpayable",
      "type": "function"
    },
    {
      "inputs": [
        {
          "internalType": "uint256",
          "name": "_number",
          "type": "uint256"
        }
      ],
      "name": "invest",
      "outputs": [],
      "stateMutability": "payable",
      "type": "function",
      "payable": true
    },
    {
      "inputs": [],
      "name": "withdraw",
      "outputs": [],
      "stateMutability": "nonpayable",
      "type": "function"
    },
    {
      "inputs": [],
      "name": "getContractBalance",
      "outputs": [
        {
          "internalType": "uint256",
          "name": "",
          "type": "uint256"
        }
      ],
      "stateMutability": "view",
      "type": "function",
      "constant": true
    },
    {
      "inputs": [
        {
          "internalType": "uint256",
          "name": "_tokenId",
          "type": "uint256"
        },
        {
          "internalType": "uint256",
          "name": "_newPrice",
          "type": "uint256"
        },
        {
          "internalType": "string",
          "name": "_tokenURI",
          "type": "string"
        }
      ],
      "name": "changeTicketPrice",
      "outputs": [],
      "stateMutability": "nonpayable",
      "type": "function"
    },
    {
      "inputs": [],
      "name": "startEvent",
      "outputs": [],
      "stateMutability": "nonpayable",
      "type": "function"
    },
    {
      "inputs": [],
      "name": "startInvestment",
      "outputs": [],
      "stateMutability": "nonpayable",
      "type": "function"
    },
    {
      "inputs": [],
      "name": "stopInvestment",
      "outputs": [],
      "stateMutability": "nonpayable",
      "type": "function"
    },
    {
      "inputs": [],
      "name": "startTicketSale",
      "outputs": [],
      "stateMutability": "nonpayable",
      "type": "function"
    },
    {
      "inputs": [],
      "name": "retrieve",
      "outputs": [],
      "stateMutability": "nonpayable",
      "type": "function"
    },
    {
      "inputs": [
        {
          "internalType": "uint256",
          "name": "_tokenId",
          "type": "uint256"
        }
      ],
      "name": "toggleSale",
      "outputs": [],
      "stateMutability": "nonpayable",
      "type": "function"
    },
    {
      "inputs": [
        {
          "internalType": "uint256",
          "name": "_tokenId",
          "type": "uint256"
        }
      ],
      "name": "buyTicket",
      "outputs": [],
      "stateMutability": "payable",
      "type": "function",
      "payable": true
    },
    {
      "inputs": [],
      "name": "getTicketsLength",
      "outputs": [
        {
          "internalType": "uint256",
          "name": "",
          "type": "uint256"
        }
      ],
      "stateMutability": "view",
      "type": "function",
      "constant": true
    }
  ],
  "bytecode": "0x60806040526000600860006101000a81548160ff021916908360048111156200002d576200002c620003aa565b5b02179055506000600955600a600d5560006011553480156200004e57600080fd5b5060405162004b1838038062004b18833981810160405281019062000074919062000338565b6040518060400160405280600b81526020017f4e4654205469636b6574730000000000000000000000000000000000000000008152506040518060400160405280600381526020017f544958000000000000000000000000000000000000000000000000000000000081525062000100620000f46200018960201b60201c565b6200019160201b60201c565b81600190805190602001906200011892919062000271565b5080600290805190602001906200013192919062000271565b5050506003600f81905550620001826040518060400160405280601c81526020017f68747470733a2f2f697066732e696e667572612e696f2f697066732f000000008152506200025560201b60201c565b5062000427565b600033905090565b60008060009054906101000a900473ffffffffffffffffffffffffffffffffffffffff169050816000806101000a81548173ffffffffffffffffffffffffffffffffffffffff021916908373ffffffffffffffffffffffffffffffffffffffff1602179055508173ffffffffffffffffffffffffffffffffffffffff168173ffffffffffffffffffffffffffffffffffffffff167f8be0079c531659141344cd1fd0a4f28419497f9722a3daafe3b4186f6b6457e060405160405180910390a35050565b80600e90805190602001906200026d92919062000271565b5050565b8280546200027f9062000374565b90600052602060002090601f016020900481019282620002a35760008555620002ef565b82601f10620002be57805160ff1916838001178555620002ef565b82800160010185558215620002ef579182015b82811115620002ee578251825591602001919060010190620002d1565b5b509050620002fe919062000302565b5090565b5b808211156200031d57600081600090555060010162000303565b5090565b60008151905062000332816200040d565b92915050565b60006020828403121562000351576200035062000408565b5b6000620003618482850162000321565b91505092915050565b6000819050919050565b600060028204905060018216806200038d57607f821691505b60208210811415620003a457620003a3620003d9565b5b50919050565b7f4e487b7100000000000000000000000000000000000000000000000000000000600052602160045260246000fd5b7f4e487b7100000000000000000000000000000000000000000000000000000000600052602260045260246000fd5b600080fd5b62000418816200036a565b81146200042457600080fd5b50565b6146e180620004376000396000f3fe60806040526004361061020f5760003560e01c80636f9fb98a11610118578063c059dade116100a0578063e4470b3e1161006f578063e4470b3e14610713578063e72f98431461073c578063e985e9c514610765578063f2fde38b146107a2578063f34c575d146107cb5761020f565b8063c059dade14610691578063c43d8aa6146106a8578063c87b56dd146106bf578063e2fd38e9146106fc5761020f565b8063924fdcb1116100e7578063924fdcb1146105be57806395d89b41146105e9578063983d7f4514610614578063a22cb4651461063f578063b88d4fde146106685761020f565b80636f9fb98a1461051457806370a082311461053f578063715018a61461057c5780638da5cb5b146105935761020f565b80633ccfd60b1161019b57806350b447121161016a57806350b44712146104165780635338e163146104555780636352211e1461047e57806367dd74ca146104bb5780636f7bc9be146104d75761020f565b80633ccfd60b1461039457806342842e0e146103ab57806348c724ed146103d45780634fcf9950146103eb5761020f565b80630bf6cc08116101e25780630bf6cc08146102e25780630c3f6acf1461030d57806323b872dd146103385780632afcf480146103615780632e64cec11461037d5761020f565b806301ffc9a71461021457806306fdde0314610251578063081812fc1461027c578063095ea7b3146102b9575b600080fd5b34801561022057600080fd5b5061023b60048036038101906102369190613266565b6107f6565b60405161024891906137ce565b60405180910390f35b34801561025d57600080fd5b506102666108d8565b6040516102739190613804565b60405180910390f35b34801561028857600080fd5b506102a3600480360381019061029e91906132c0565b61096a565b6040516102b0919061373e565b60405180910390f35b3480156102c557600080fd5b506102e060048036038101906102db9190613226565b6109ef565b005b3480156102ee57600080fd5b506102f7610b07565b6040516103049190613ac6565b60405180910390f35b34801561031957600080fd5b50610322610b0d565b60405161032f91906137e9565b60405180910390f35b34801561034457600080fd5b5061035f600480360381019061035a9190613110565b610b20565b005b61037b600480360381019061037691906132c0565b610b80565b005b34801561038957600080fd5b50610392610ca9565b005b3480156103a057600080fd5b506103a9610ea7565b005b3480156103b757600080fd5b506103d260048036038101906103cd9190613110565b610fac565b005b3480156103e057600080fd5b506103e9610fcc565b005b3480156103f757600080fd5b506104006110e1565b60405161040d9190613ac6565b60405180910390f35b34801561042257600080fd5b5061043d600480360381019061043891906132c0565b6110e7565b60405161044c93929190613b33565b60405180910390f35b34801561046157600080fd5b5061047c600480360381019061047791906132ed565b61112e565b005b34801561048a57600080fd5b506104a560048036038101906104a091906132c0565b6111f3565b6040516104b2919061373e565b60405180910390f35b6104d560048036038101906104d091906132c0565b6112a5565b005b3480156104e357600080fd5b506104fe60048036038101906104f991906130a3565b6114f8565b60405161050b9190613ac6565b60405180910390f35b34801561052057600080fd5b50610529611510565b6040516105369190613ac6565b60405180910390f35b34801561054b57600080fd5b50610566600480360381019061056191906130a3565b611518565b6040516105739190613ac6565b60405180910390f35b34801561058857600080fd5b506105916115d0565b005b34801561059f57600080fd5b506105a8611658565b6040516105b5919061373e565b60405180910390f35b3480156105ca57600080fd5b506105d3611681565b6040516105e09190613ac6565b60405180910390f35b3480156105f557600080fd5b506105fe611687565b60405161060b9190613804565b60405180910390f35b34801561062057600080fd5b50610629611719565b6040516106369190613ac6565b60405180910390f35b34801561064b57600080fd5b50610666600480360381019061066191906131e6565b611726565b005b34801561067457600080fd5b5061068f600480360381019061068a9190613163565b6118a7565b005b34801561069d57600080fd5b506106a6611909565b005b3480156106b457600080fd5b506106bd611a1e565b005b3480156106cb57600080fd5b506106e660048036038101906106e191906132c0565b611b33565b6040516106f39190613804565b60405180910390f35b34801561070857600080fd5b50610711611c85565b005b34801561071f57600080fd5b5061073a600480360381019061073591906132ed565b611db7565b005b34801561074857600080fd5b50610763600480360381019061075e91906132c0565b611f54565b005b34801561077157600080fd5b5061078c600480360381019061078791906130d0565b612036565b60405161079991906137ce565b60405180910390f35b3480156107ae57600080fd5b506107c960048036038101906107c491906130a3565b6120ca565b005b3480156107d757600080fd5b506107e06121c2565b6040516107ed9190613ac6565b60405180910390f35b60007f80ac58cd000000000000000000000000000000000000000000000000000000007bffffffffffffffffffffffffffffffffffffffffffffffffffffffff1916827bffffffffffffffffffffffffffffffffffffffffffffffffffffffff191614806108c157507f5b5e139f000000000000000000000000000000000000000000000000000000007bffffffffffffffffffffffffffffffffffffffffffffffffffffffff1916827bffffffffffffffffffffffffffffffffffffffffffffffffffffffff1916145b806108d157506108d0826121c8565b5b9050919050565b6060600180546108e790613e62565b80601f016020809104026020016040519081016040528092919081815260200182805461091390613e62565b80156109605780601f1061093557610100808354040283529160200191610960565b820191906000526020600020905b81548152906001019060200180831161094357829003601f168201915b5050505050905090565b600061097582612232565b6109b4576040517f08c379a00000000000000000000000000000000000000000000000000000000081526004016109ab906139a6565b60405180910390fd5b6005600083815260200190815260200160002060009054906101000a900473ffffffffffffffffffffffffffffffffffffffff169050919050565b60006109fa826111f3565b90508073ffffffffffffffffffffffffffffffffffffffff168373ffffffffffffffffffffffffffffffffffffffff161415610a6b576040517f08c379a0000000000000000000000000000000000000000000000000000000008152600401610a6290613a46565b60405180910390fd5b8073ffffffffffffffffffffffffffffffffffffffff16610a8a61229e565b73ffffffffffffffffffffffffffffffffffffffff161480610ab95750610ab881610ab361229e565b612036565b5b610af8576040517f08c379a0000000000000000000000000000000000000000000000000000000008152600401610aef906138e6565b60405180910390fd5b610b0283836122a6565b505050565b600c5481565b600860009054906101000a900460ff1681565b610b31610b2b61229e565b8261235f565b610b70576040517f08c379a0000000000000000000000000000000000000000000000000000000008152600401610b6790613aa6565b60405180910390fd5b610b7b83838361243d565b505050565b60016004811115610b9457610b93613f9d565b5b600860009054906101000a900460ff166004811115610bb657610bb5613f9d565b5b14610bc057600080fd5b610bd581600f5461269990919063ffffffff16565b3414610be057600080fd5b610bf660016009546126af90919063ffffffff16565b60115482610c049190613c72565b10610c0e57600080fd5b610c17816126c5565b80601260003373ffffffffffffffffffffffffffffffffffffffff1673ffffffffffffffffffffffffffffffffffffffff1681526020019081526020016000206000828254610c669190613c72565b925050819055507f8a35b8c748e79b158c02fd0c175c0e5bd17677281b628c0dafa1c92631f0c8f03382604051610c9e9291906137a5565b60405180910390a150565b600480811115610cbc57610cbb613f9d565b5b600860009054906101000a900460ff166004811115610cde57610cdd613f9d565b5b14610ce857600080fd5b6000601260003373ffffffffffffffffffffffffffffffffffffffff1673ffffffffffffffffffffffffffffffffffffffff168152602001908152602001600020541115610e1f57610d84601260003373ffffffffffffffffffffffffffffffffffffffff1673ffffffffffffffffffffffffffffffffffffffff1681526020019081526020016000205460105461269990919063ffffffff16565b600b60003373ffffffffffffffffffffffffffffffffffffffff1673ffffffffffffffffffffffffffffffffffffffff1681526020019081526020016000206000828254610dd29190613c72565b925050819055506000601260003373ffffffffffffffffffffffffffffffffffffffff1673ffffffffffffffffffffffffffffffffffffffff168152602001908152602001600020819055505b3373ffffffffffffffffffffffffffffffffffffffff166108fc600b60003373ffffffffffffffffffffffffffffffffffffffff1673ffffffffffffffffffffffffffffffffffffffff168152602001908152602001600020549081150290604051600060405180830381858888f19350505050158015610ea4573d6000803e3d6000fd5b50565b610eaf61229e565b73ffffffffffffffffffffffffffffffffffffffff16610ecd611658565b73ffffffffffffffffffffffffffffffffffffffff1614610f23576040517f08c379a0000000000000000000000000000000000000000000000000000000008152600401610f1a906139c6565b60405180910390fd5b60026004811115610f3757610f36613f9d565b5b600860009054906101000a900460ff166004811115610f5957610f58613f9d565b5b14610f6357600080fd5b3373ffffffffffffffffffffffffffffffffffffffff166108fc479081150290604051600060405180830381858888f19350505050158015610fa9573d6000803e3d6000fd5b50565b610fc7838383604051806020016040528060008152506118a7565b505050565b610fd461229e565b73ffffffffffffffffffffffffffffffffffffffff16610ff2611658565b73ffffffffffffffffffffffffffffffffffffffff1614611048576040517f08c379a000000000000000000000000000000000000000000000000000000000815260040161103f906139c6565b60405180910390fd5b6002600481111561105c5761105b613f9d565b5b600860009054906101000a900460ff16600481111561107e5761107d613f9d565b5b1461108857600080fd5b6003600860006101000a81548160ff021916908360048111156110ae576110ad613f9d565b5b02179055507f1ea48c83f8f7b1f33a6f8e83c07c374bcfff1b14909dd48f1ead27421797bcbd60405160405180910390a1565b600f5481565b600a81815481106110f757600080fd5b90600052602060002090600302016000915090508060000154908060010154908060020160009054906101000a900460ff16905083565b611137836111f3565b73ffffffffffffffffffffffffffffffffffffffff163373ffffffffffffffffffffffffffffffffffffffff161461116e57600080fd5b6000600a848154811061118457611183613ffb565b5b90600052602060002090600302019050806000015483106111da576040517f08c379a00000000000000000000000000000000000000000000000000000000081526004016111d190613a26565b60405180910390fd5b8281600101819055506111ed84836126dc565b50505050565b6000806003600084815260200190815260200160002060009054906101000a900473ffffffffffffffffffffffffffffffffffffffff169050600073ffffffffffffffffffffffffffffffffffffffff168173ffffffffffffffffffffffffffffffffffffffff16141561129c576040517f08c379a000000000000000000000000000000000000000000000000000000000815260040161129390613926565b60405180910390fd5b80915050919050565b6000600a82815481106112bb576112ba613ffb565b5b90600052602060002090600302019050600115158160020160009054906101000a900460ff161515146112ed57600080fd5b8060010154341015611334576040517f08c379a000000000000000000000000000000000000000000000000000000000815260040161132b90613a66565b60405180910390fd5b600d5461134033611518565b10611380576040517f08c379a000000000000000000000000000000000000000000000000000000000815260040161137790613a86565b60405180910390fd5b600061138b836111f3565b905060008260020160006101000a81548160ff0219169083151502179055506113d160036113c360053461275090919063ffffffff16565b61269990919063ffffffff16565b600b60008373ffffffffffffffffffffffffffffffffffffffff1673ffffffffffffffffffffffffffffffffffffffff168152602001908152602001600020600082825461141f9190613c72565b9250508190555061144d600261143f60053461275090919063ffffffff16565b61269990919063ffffffff16565b600c600082825461145e9190613c72565b9250508190555061148081338560405180602001604052806000815250612766565b7f1a16bc699ce0f6ccd4b93e7dc6f592ff10f75af2aa2e0a7346adbc317943749a83336040516114b1929190613ae1565b60405180910390a17f1f52727099fd6031c06d28983d4d89fb813bb324aa3098ed1d15bb91a2b4b7e38360006040516114eb929190613b0a565b60405180910390a1505050565b60126020528060005260406000206000915090505481565b600047905090565b60008073ffffffffffffffffffffffffffffffffffffffff168273ffffffffffffffffffffffffffffffffffffffff161415611589576040517f08c379a000000000000000000000000000000000000000000000000000000000815260040161158090613906565b60405180910390fd5b600460008373ffffffffffffffffffffffffffffffffffffffff1673ffffffffffffffffffffffffffffffffffffffff168152602001908152602001600020549050919050565b6115d861229e565b73ffffffffffffffffffffffffffffffffffffffff166115f6611658565b73ffffffffffffffffffffffffffffffffffffffff161461164c576040517f08c379a0000000000000000000000000000000000000000000000000000000008152600401611643906139c6565b60405180910390fd5b61165660006127c2565b565b60008060009054906101000a900473ffffffffffffffffffffffffffffffffffffffff16905090565b60105481565b60606002805461169690613e62565b80601f01602080910402602001604051908101604052809291908181526020018280546116c290613e62565b801561170f5780601f106116e45761010080835404028352916020019161170f565b820191906000526020600020905b8154815290600101906020018083116116f257829003601f168201915b5050505050905090565b6000600a80549050905090565b61172e61229e565b73ffffffffffffffffffffffffffffffffffffffff168273ffffffffffffffffffffffffffffffffffffffff16141561179c576040517f08c379a0000000000000000000000000000000000000000000000000000000008152600401611793906138a6565b60405180910390fd5b80600660006117a961229e565b73ffffffffffffffffffffffffffffffffffffffff1673ffffffffffffffffffffffffffffffffffffffff16815260200190815260200160002060008473ffffffffffffffffffffffffffffffffffffffff1673ffffffffffffffffffffffffffffffffffffffff16815260200190815260200160002060006101000a81548160ff0219169083151502179055508173ffffffffffffffffffffffffffffffffffffffff1661185661229e565b73ffffffffffffffffffffffffffffffffffffffff167f17307eab39ab6107e8899845ad3d59bd9653f200f220920489ca2b5937696c318360405161189b91906137ce565b60405180910390a35050565b6118b86118b261229e565b8361235f565b6118f7576040517f08c379a00000000000000000000000000000000000000000000000000000000081526004016118ee90613aa6565b60405180910390fd5b61190384848484612766565b50505050565b61191161229e565b73ffffffffffffffffffffffffffffffffffffffff1661192f611658565b73ffffffffffffffffffffffffffffffffffffffff1614611985576040517f08c379a000000000000000000000000000000000000000000000000000000000815260040161197c906139c6565b60405180910390fd5b6001600481111561199957611998613f9d565b5b600860009054906101000a900460ff1660048111156119bb576119ba613f9d565b5b146119c557600080fd5b6002600860006101000a81548160ff021916908360048111156119eb576119ea613f9d565b5b02179055507f23352571dc9037c95edeb83ef59354dd354c9747120102357cebeb0112d881fa60405160405180910390a1565b611a2661229e565b73ffffffffffffffffffffffffffffffffffffffff16611a44611658565b73ffffffffffffffffffffffffffffffffffffffff1614611a9a576040517f08c379a0000000000000000000000000000000000000000000000000000000008152600401611a91906139c6565b60405180910390fd5b60006004811115611aae57611aad613f9d565b5b600860009054906101000a900460ff166004811115611ad057611acf613f9d565b5b14611ada57600080fd5b6001600860006101000a81548160ff02191690836004811115611b0057611aff613f9d565b5b02179055507f9250cd2b07bdd846fbab9675d9d12450e2cf36ddb26d20b8d8f512d36d9b49f960405160405180910390a1565b6060611b3e82612232565b611b7d576040517f08c379a0000000000000000000000000000000000000000000000000000000008152600401611b7490613986565b60405180910390fd5b6000600760008481526020019081526020016000208054611b9d90613e62565b80601f0160208091040260200160405190810160405280929190818152602001828054611bc990613e62565b8015611c165780601f10611beb57610100808354040283529160200191611c16565b820191906000526020600020905b815481529060010190602001808311611bf957829003601f168201915b505050505090506000611c27612886565b9050600081511415611c3d578192505050611c80565b600082511115611c72578082604051602001611c5a92919061371a565b60405160208183030381529060405292505050611c80565b611c7b84612918565b925050505b919050565b611c8d61229e565b73ffffffffffffffffffffffffffffffffffffffff16611cab611658565b73ffffffffffffffffffffffffffffffffffffffff1614611d01576040517f08c379a0000000000000000000000000000000000000000000000000000000008152600401611cf8906139c6565b60405180910390fd5b60036004811115611d1557611d14613f9d565b5b600860009054906101000a900460ff166004811115611d3757611d36613f9d565b5b14611d4157600080fd5b6004600860006101000a81548160ff02191690836004811115611d6757611d66613f9d565b5b0217905550611d83601154600c5461275090919063ffffffff16565b6010819055507f30af5c5620dcd5f713f891358ee8a095c7022d73911ed906665d10a5e7e015c860405160405180910390a1565b611dbf61229e565b73ffffffffffffffffffffffffffffffffffffffff16611ddd611658565b73ffffffffffffffffffffffffffffffffffffffff1614611e33576040517f08c379a0000000000000000000000000000000000000000000000000000000008152600401611e2a906139c6565b60405180910390fd5b60006004811115611e4757611e46613f9d565b5b600860009054906101000a900460ff166004811115611e6957611e68613f9d565b5b14611e7357600080fd5b611e7f336009546129bf565b600a6040518060600160405280848152602001858152602001600115158152509080600181540180825580915050600190039060005260206000209060030201600090919091909150600082015181600001556020820151816001015560408201518160020160006101000a81548160ff0219169083151502179055505050611f0a600954826126dc565b7f06ab0413adb04220056e8334cf2856a1fb7fef4c0f785aadeb34e4307af44fc06009548483604051611f3f93929190613b6a565b60405180910390a1611f4f612b8d565b505050565b611f5d816111f3565b73ffffffffffffffffffffffffffffffffffffffff163373ffffffffffffffffffffffffffffffffffffffff1614611f9457600080fd5b6000600a8281548110611faa57611fa9613ffb565b5b906000526020600020906003020190508060020160009054906101000a900460ff16158160020160006101000a81548160ff0219169083151502179055507f1f52727099fd6031c06d28983d4d89fb813bb324aa3098ed1d15bb91a2b4b7e3828260020160009054906101000a900460ff1660405161202a929190613b0a565b60405180910390a15050565b6000600660008473ffffffffffffffffffffffffffffffffffffffff1673ffffffffffffffffffffffffffffffffffffffff16815260200190815260200160002060008373ffffffffffffffffffffffffffffffffffffffff1673ffffffffffffffffffffffffffffffffffffffff16815260200190815260200160002060009054906101000a900460ff16905092915050565b6120d261229e565b73ffffffffffffffffffffffffffffffffffffffff166120f0611658565b73ffffffffffffffffffffffffffffffffffffffff1614612146576040517f08c379a000000000000000000000000000000000000000000000000000000000815260040161213d906139c6565b60405180910390fd5b600073ffffffffffffffffffffffffffffffffffffffff168173ffffffffffffffffffffffffffffffffffffffff1614156121b6576040517f08c379a00000000000000000000000000000000000000000000000000000000081526004016121ad90613846565b60405180910390fd5b6121bf816127c2565b50565b60115481565b60007f01ffc9a7000000000000000000000000000000000000000000000000000000007bffffffffffffffffffffffffffffffffffffffffffffffffffffffff1916827bffffffffffffffffffffffffffffffffffffffffffffffffffffffff1916149050919050565b60008073ffffffffffffffffffffffffffffffffffffffff166003600084815260200190815260200160002060009054906101000a900473ffffffffffffffffffffffffffffffffffffffff1673ffffffffffffffffffffffffffffffffffffffff1614159050919050565b600033905090565b816005600083815260200190815260200160002060006101000a81548173ffffffffffffffffffffffffffffffffffffffff021916908373ffffffffffffffffffffffffffffffffffffffff160217905550808273ffffffffffffffffffffffffffffffffffffffff16612319836111f3565b73ffffffffffffffffffffffffffffffffffffffff167f8c5be1e5ebec7d5bd14f71427d1e84f3dd0314c0f7b2291e5b200ac8c7c3b92560405160405180910390a45050565b600061236a82612232565b6123a9576040517f08c379a00000000000000000000000000000000000000000000000000000000081526004016123a0906138c6565b60405180910390fd5b60006123b4836111f3565b90508073ffffffffffffffffffffffffffffffffffffffff168473ffffffffffffffffffffffffffffffffffffffff16148061242357508373ffffffffffffffffffffffffffffffffffffffff1661240b8461096a565b73ffffffffffffffffffffffffffffffffffffffff16145b8061243457506124338185612036565b5b91505092915050565b8273ffffffffffffffffffffffffffffffffffffffff1661245d826111f3565b73ffffffffffffffffffffffffffffffffffffffff16146124b3576040517f08c379a00000000000000000000000000000000000000000000000000000000081526004016124aa906139e6565b60405180910390fd5b600073ffffffffffffffffffffffffffffffffffffffff168273ffffffffffffffffffffffffffffffffffffffff161415612523576040517f08c379a000000000000000000000000000000000000000000000000000000000815260040161251a90613886565b60405180910390fd5b61252e838383612ba7565b6125396000826122a6565b6001600460008573ffffffffffffffffffffffffffffffffffffffff1673ffffffffffffffffffffffffffffffffffffffff16815260200190815260200160002060008282546125899190613d53565b925050819055506001600460008473ffffffffffffffffffffffffffffffffffffffff1673ffffffffffffffffffffffffffffffffffffffff16815260200190815260200160002060008282546125e09190613c72565b92505081905550816003600083815260200190815260200160002060006101000a81548173ffffffffffffffffffffffffffffffffffffffff021916908373ffffffffffffffffffffffffffffffffffffffff160217905550808273ffffffffffffffffffffffffffffffffffffffff168473ffffffffffffffffffffffffffffffffffffffff167fddf252ad1be2c89b69c2b068fc378daa952ba7f163c4a11628f55a4df523b3ef60405160405180910390a4505050565b600081836126a79190613cf9565b905092915050565b600081836126bd9190613c72565b905092915050565b806011546126d39190613c72565b60118190555050565b6126e582612232565b612724576040517f08c379a000000000000000000000000000000000000000000000000000000000815260040161271b90613946565b60405180910390fd5b8060076000848152602001908152602001600020908051906020019061274b929190612eb7565b505050565b6000818361275e9190613cc8565b905092915050565b61277184848461243d565b61277d84848484612bac565b6127bc576040517f08c379a00000000000000000000000000000000000000000000000000000000081526004016127b390613826565b60405180910390fd5b50505050565b60008060009054906101000a900473ffffffffffffffffffffffffffffffffffffffff169050816000806101000a81548173ffffffffffffffffffffffffffffffffffffffff021916908373ffffffffffffffffffffffffffffffffffffffff1602179055508173ffffffffffffffffffffffffffffffffffffffff168173ffffffffffffffffffffffffffffffffffffffff167f8be0079c531659141344cd1fd0a4f28419497f9722a3daafe3b4186f6b6457e060405160405180910390a35050565b6060600e805461289590613e62565b80601f01602080910402602001604051908101604052809291908181526020018280546128c190613e62565b801561290e5780601f106128e35761010080835404028352916020019161290e565b820191906000526020600020905b8154815290600101906020018083116128f157829003601f168201915b5050505050905090565b606061292382612232565b612962576040517f08c379a000000000000000000000000000000000000000000000000000000000815260040161295990613a06565b60405180910390fd5b600061296c612886565b9050600081511161298c57604051806020016040528060008152506129b7565b8061299684612d43565b6040516020016129a792919061371a565b6040516020818303038152906040525b915050919050565b600073ffffffffffffffffffffffffffffffffffffffff168273ffffffffffffffffffffffffffffffffffffffff161415612a2f576040517f08c379a0000000000000000000000000000000000000000000000000000000008152600401612a2690613966565b60405180910390fd5b612a3881612232565b15612a78576040517f08c379a0000000000000000000000000000000000000000000000000000000008152600401612a6f90613866565b60405180910390fd5b612a8460008383612ba7565b6001600460008473ffffffffffffffffffffffffffffffffffffffff1673ffffffffffffffffffffffffffffffffffffffff1681526020019081526020016000206000828254612ad49190613c72565b92505081905550816003600083815260200190815260200160002060006101000a81548173ffffffffffffffffffffffffffffffffffffffff021916908373ffffffffffffffffffffffffffffffffffffffff160217905550808273ffffffffffffffffffffffffffffffffffffffff16600073ffffffffffffffffffffffffffffffffffffffff167fddf252ad1be2c89b69c2b068fc378daa952ba7f163c4a11628f55a4df523b3ef60405160405180910390a45050565b60096000815480929190612ba090613ec5565b9190505550565b505050565b6000612bcd8473ffffffffffffffffffffffffffffffffffffffff16612ea4565b15612d36578373ffffffffffffffffffffffffffffffffffffffff1663150b7a02612bf661229e565b8786866040518563ffffffff1660e01b8152600401612c189493929190613759565b602060405180830381600087803b158015612c3257600080fd5b505af1925050508015612c6357506040513d601f19601f82011682018060405250810190612c609190613293565b60015b612ce6573d8060008114612c93576040519150601f19603f3d011682016040523d82523d6000602084013e612c98565b606091505b50600081511415612cde576040517f08c379a0000000000000000000000000000000000000000000000000000000008152600401612cd590613826565b60405180910390fd5b805181602001fd5b63150b7a0260e01b7bffffffffffffffffffffffffffffffffffffffffffffffffffffffff1916817bffffffffffffffffffffffffffffffffffffffffffffffffffffffff191614915050612d3b565b600190505b949350505050565b60606000821415612d8b576040518060400160405280600181526020017f30000000000000000000000000000000000000000000000000000000000000008152509050612e9f565b600082905060005b60008214612dbd578080612da690613ec5565b915050600a82612db69190613cc8565b9150612d93565b60008167ffffffffffffffff811115612dd957612dd861402a565b5b6040519080825280601f01601f191660200182016040528015612e0b5781602001600182028036833780820191505090505b5090505b60008514612e9857600182612e249190613d53565b9150600a85612e339190613f0e565b6030612e3f9190613c72565b60f81b818381518110612e5557612e54613ffb565b5b60200101907effffffffffffffffffffffffffffffffffffffffffffffffffffffffffffff1916908160001a905350600a85612e919190613cc8565b9450612e0f565b8093505050505b919050565b600080823b905060008111915050919050565b828054612ec390613e62565b90600052602060002090601f016020900481019282612ee55760008555612f2c565b82601f10612efe57805160ff1916838001178555612f2c565b82800160010185558215612f2c579182015b82811115612f2b578251825591602001919060010190612f10565b5b509050612f399190612f3d565b5090565b5b80821115612f56576000816000905550600101612f3e565b5090565b6000612f6d612f6884613bcd565b613ba8565b905082815260208101848484011115612f8957612f8861405e565b5b612f94848285613e20565b509392505050565b6000612faf612faa84613bfe565b613ba8565b905082815260208101848484011115612fcb57612fca61405e565b5b612fd6848285613e20565b509392505050565b600081359050612fed8161464f565b92915050565b60008135905061300281614666565b92915050565b6000813590506130178161467d565b92915050565b60008151905061302c8161467d565b92915050565b600082601f83011261304757613046614059565b5b8135613057848260208601612f5a565b91505092915050565b600082601f83011261307557613074614059565b5b8135613085848260208601612f9c565b91505092915050565b60008135905061309d81614694565b92915050565b6000602082840312156130b9576130b8614068565b5b60006130c784828501612fde565b91505092915050565b600080604083850312156130e7576130e6614068565b5b60006130f585828601612fde565b925050602061310685828601612fde565b9150509250929050565b60008060006060848603121561312957613128614068565b5b600061313786828701612fde565b935050602061314886828701612fde565b92505060406131598682870161308e565b9150509250925092565b6000806000806080858703121561317d5761317c614068565b5b600061318b87828801612fde565b945050602061319c87828801612fde565b93505060406131ad8782880161308e565b925050606085013567ffffffffffffffff8111156131ce576131cd614063565b5b6131da87828801613032565b91505092959194509250565b600080604083850312156131fd576131fc614068565b5b600061320b85828601612fde565b925050602061321c85828601612ff3565b9150509250929050565b6000806040838503121561323d5761323c614068565b5b600061324b85828601612fde565b925050602061325c8582860161308e565b9150509250929050565b60006020828403121561327c5761327b614068565b5b600061328a84828501613008565b91505092915050565b6000602082840312156132a9576132a8614068565b5b60006132b78482850161301d565b91505092915050565b6000602082840312156132d6576132d5614068565b5b60006132e48482850161308e565b91505092915050565b60008060006060848603121561330657613305614068565b5b60006133148682870161308e565b93505060206133258682870161308e565b925050604084013567ffffffffffffffff81111561334657613345614063565b5b61335286828701613060565b9150509250925092565b61336581613d87565b82525050565b61337481613d99565b82525050565b600061338582613c2f565b61338f8185613c45565b935061339f818560208601613e2f565b6133a88161406d565b840191505092915050565b6133bc81613e0e565b82525050565b60006133cd82613c3a565b6133d78185613c56565b93506133e7818560208601613e2f565b6133f08161406d565b840191505092915050565b600061340682613c3a565b6134108185613c67565b9350613420818560208601613e2f565b80840191505092915050565b6000613439603283613c56565b91506134448261407e565b604082019050919050565b600061345c602683613c56565b9150613467826140cd565b604082019050919050565b600061347f601c83613c56565b915061348a8261411c565b602082019050919050565b60006134a2602483613c56565b91506134ad82614145565b604082019050919050565b60006134c5601983613c56565b91506134d082614194565b602082019050919050565b60006134e8602c83613c56565b91506134f3826141bd565b604082019050919050565b600061350b603883613c56565b91506135168261420c565b604082019050919050565b600061352e602a83613c56565b91506135398261425b565b604082019050919050565b6000613551602983613c56565b915061355c826142aa565b604082019050919050565b6000613574602e83613c56565b915061357f826142f9565b604082019050919050565b6000613597602083613c56565b91506135a282614348565b602082019050919050565b60006135ba603183613c56565b91506135c582614371565b604082019050919050565b60006135dd602c83613c56565b91506135e8826143c0565b604082019050919050565b6000613600602083613c56565b915061360b8261440f565b602082019050919050565b6000613623602983613c56565b915061362e82614438565b604082019050919050565b6000613646602f83613c56565b915061365182614487565b604082019050919050565b6000613669602383613c56565b9150613674826144d6565b604082019050919050565b600061368c602183613c56565b915061369782614525565b604082019050919050565b60006136af601983613c56565b91506136ba82614574565b602082019050919050565b60006136d2602583613c56565b91506136dd8261459d565b604082019050919050565b60006136f5603183613c56565b9150613700826145ec565b604082019050919050565b61371481613e04565b82525050565b600061372682856133fb565b915061373282846133fb565b91508190509392505050565b6000602082019050613753600083018461335c565b92915050565b600060808201905061376e600083018761335c565b61377b602083018661335c565b613788604083018561370b565b818103606083015261379a818461337a565b905095945050505050565b60006040820190506137ba600083018561335c565b6137c7602083018461370b565b9392505050565b60006020820190506137e3600083018461336b565b92915050565b60006020820190506137fe60008301846133b3565b92915050565b6000602082019050818103600083015261381e81846133c2565b905092915050565b6000602082019050818103600083015261383f8161342c565b9050919050565b6000602082019050818103600083015261385f8161344f565b9050919050565b6000602082019050818103600083015261387f81613472565b9050919050565b6000602082019050818103600083015261389f81613495565b9050919050565b600060208201905081810360008301526138bf816134b8565b9050919050565b600060208201905081810360008301526138df816134db565b9050919050565b600060208201905081810360008301526138ff816134fe565b9050919050565b6000602082019050818103600083015261391f81613521565b9050919050565b6000602082019050818103600083015261393f81613544565b9050919050565b6000602082019050818103600083015261395f81613567565b9050919050565b6000602082019050818103600083015261397f8161358a565b9050919050565b6000602082019050818103600083015261399f816135ad565b9050919050565b600060208201905081810360008301526139bf816135d0565b9050919050565b600060208201905081810360008301526139df816135f3565b9050919050565b600060208201905081810360008301526139ff81613616565b9050919050565b60006020820190508181036000830152613a1f81613639565b9050919050565b60006020820190508181036000830152613a3f8161365c565b9050919050565b60006020820190508181036000830152613a5f8161367f565b9050919050565b60006020820190508181036000830152613a7f816136a2565b9050919050565b60006020820190508181036000830152613a9f816136c5565b9050919050565b60006020820190508181036000830152613abf816136e8565b9050919050565b6000602082019050613adb600083018461370b565b92915050565b6000604082019050613af6600083018561370b565b613b03602083018461335c565b9392505050565b6000604082019050613b1f600083018561370b565b613b2c602083018461336b565b9392505050565b6000606082019050613b48600083018661370b565b613b55602083018561370b565b613b62604083018461336b565b949350505050565b6000606082019050613b7f600083018661370b565b613b8c602083018561370b565b8181036040830152613b9e81846133c2565b9050949350505050565b6000613bb2613bc3565b9050613bbe8282613e94565b919050565b6000604051905090565b600067ffffffffffffffff821115613be857613be761402a565b5b613bf18261406d565b9050602081019050919050565b600067ffffffffffffffff821115613c1957613c1861402a565b5b613c228261406d565b9050602081019050919050565b600081519050919050565b600081519050919050565b600082825260208201905092915050565b600082825260208201905092915050565b600081905092915050565b6000613c7d82613e04565b9150613c8883613e04565b9250827fffffffffffffffffffffffffffffffffffffffffffffffffffffffffffffffff03821115613cbd57613cbc613f3f565b5b828201905092915050565b6000613cd382613e04565b9150613cde83613e04565b925082613cee57613ced613f6e565b5b828204905092915050565b6000613d0482613e04565b9150613d0f83613e04565b9250817fffffffffffffffffffffffffffffffffffffffffffffffffffffffffffffffff0483118215151615613d4857613d47613f3f565b5b828202905092915050565b6000613d5e82613e04565b9150613d6983613e04565b925082821015613d7c57613d7b613f3f565b5b828203905092915050565b6000613d9282613de4565b9050919050565b60008115159050919050565b60007fffffffff0000000000000000000000000000000000000000000000000000000082169050919050565b6000819050613ddf8261463b565b919050565b600073ffffffffffffffffffffffffffffffffffffffff82169050919050565b6000819050919050565b6000613e1982613dd1565b9050919050565b82818337600083830152505050565b60005b83811015613e4d578082015181840152602081019050613e32565b83811115613e5c576000848401525b50505050565b60006002820490506001821680613e7a57607f821691505b60208210811415613e8e57613e8d613fcc565b5b50919050565b613e9d8261406d565b810181811067ffffffffffffffff82111715613ebc57613ebb61402a565b5b80604052505050565b6000613ed082613e04565b91507fffffffffffffffffffffffffffffffffffffffffffffffffffffffffffffffff821415613f0357613f02613f3f565b5b600182019050919050565b6000613f1982613e04565b9150613f2483613e04565b925082613f3457613f33613f6e565b5b828206905092915050565b7f4e487b7100000000000000000000000000000000000000000000000000000000600052601160045260246000fd5b7f4e487b7100000000000000000000000000000000000000000000000000000000600052601260045260246000fd5b7f4e487b7100000000000000000000000000000000000000000000000000000000600052602160045260246000fd5b7f4e487b7100000000000000000000000000000000000000000000000000000000600052602260045260246000fd5b7f4e487b7100000000000000000000000000000000000000000000000000000000600052603260045260246000fd5b7f4e487b7100000000000000000000000000000000000000000000000000000000600052604160045260246000fd5b600080fd5b600080fd5b600080fd5b600080fd5b6000601f19601f8301169050919050565b7f4552433732313a207472616e7366657220746f206e6f6e20455243373231526560008201527f63656976657220696d706c656d656e7465720000000000000000000000000000602082015250565b7f4f776e61626c653a206e6577206f776e657220697320746865207a65726f206160008201527f6464726573730000000000000000000000000000000000000000000000000000602082015250565b7f4552433732313a20746f6b656e20616c7265616479206d696e74656400000000600082015250565b7f4552433732313a207472616e7366657220746f20746865207a65726f2061646460008201527f7265737300000000000000000000000000000000000000000000000000000000602082015250565b7f4552433732313a20617070726f766520746f2063616c6c657200000000000000600082015250565b7f4552433732313a206f70657261746f7220717565727920666f72206e6f6e657860008201527f697374656e7420746f6b656e0000000000000000000000000000000000000000602082015250565b7f4552433732313a20617070726f76652063616c6c6572206973206e6f74206f7760008201527f6e6572206e6f7220617070726f76656420666f7220616c6c0000000000000000602082015250565b7f4552433732313a2062616c616e636520717565727920666f7220746865207a6560008201527f726f206164647265737300000000000000000000000000000000000000000000602082015250565b7f4552433732313a206f776e657220717565727920666f72206e6f6e657869737460008201527f656e7420746f6b656e0000000000000000000000000000000000000000000000602082015250565b7f45524337323155524953746f726167653a2055524920736574206f66206e6f6e60008201527f6578697374656e7420746f6b656e000000000000000000000000000000000000602082015250565b7f4552433732313a206d696e7420746f20746865207a65726f2061646472657373600082015250565b7f45524337323155524953746f726167653a2055524920717565727920666f722060008201527f6e6f6e6578697374656e7420746f6b656e000000000000000000000000000000602082015250565b7f4552433732313a20617070726f76656420717565727920666f72206e6f6e657860008201527f697374656e7420746f6b656e0000000000000000000000000000000000000000602082015250565b7f4f776e61626c653a2063616c6c6572206973206e6f7420746865206f776e6572600082015250565b7f4552433732313a207472616e73666572206f6620746f6b656e2074686174206960008201527f73206e6f74206f776e0000000000000000000000000000000000000000000000602082015250565b7f4552433732314d657461646174613a2055524920717565727920666f72206e6f60008201527f6e6578697374656e7420746f6b656e0000000000000000000000000000000000602082015250565b7f6e6f74206d6f7265207468616e20746865207570706572206c696d697420707260008201527f6963650000000000000000000000000000000000000000000000000000000000602082015250565b7f4552433732313a20617070726f76616c20746f2063757272656e74206f776e6560008201527f7200000000000000000000000000000000000000000000000000000000000000602082015250565b7f6174206c6561737420746865207469636b657420707269636500000000000000600082015250565b7f6578636565646564206d6178206e756d626572206f66207469636b657473206260008201527f6f75676874000000000000000000000000000000000000000000000000000000602082015250565b7f4552433732313a207472616e736665722063616c6c6572206973206e6f74206f60008201527f776e6572206e6f7220617070726f766564000000000000000000000000000000602082015250565b6005811061464c5761464b613f9d565b5b50565b61465881613d87565b811461466357600080fd5b50565b61466f81613d99565b811461467a57600080fd5b50565b61468681613da5565b811461469157600080fd5b50565b61469d81613e04565b81146146a857600080fd5b5056fea26469706673582212200c5933c04585ba0c0a892aa2c62dbc28f0d879ecc24c7ebb6888b429727f973d64736f6c63430008070033",
  "immutableReferences": {},
  "source": "// SPDX-License-Identifier: MIT\n// curren deployed address on Shibuya: 0x5D1ce7Fb931274Aa315707aEB2abAD9D138780FA\n\npragma solidity ^0.8.0;\n\nimport \"@openzeppelin/contracts/access/Ownable.sol\";\nimport \"@openzeppelin/contracts/token/ERC721/extensions/ERC721URIStorage.sol\";\nimport \"@openzeppelin/contracts/utils/math/SafeMath.sol\";\n\ncontract Marketplace is Ownable, ERC721URIStorage{\n\n  using SafeMath for uint;\n\n  enum State { creatingTickets, investmentStart, investmentStop, ticketSaleStart, eventStart }\n  State public currentState = State.creatingTickets;\n\n  // metadata for each ticket\n  struct Ticket {\n      uint256 maxPrice; // maximum price cap on the ticket\n      uint256 price; // current price\n      bool onSale;\n  }\n\n  uint256 private _currentTokenId = 0;\n  Ticket[] public tickets;\n  mapping (address => uint256) etherBalance;\n  uint public vaultBalance;\n  uint private _maxTicketNum = 10;\n  string private _base;\n\n  uint public investmentPrice;\n  uint public unitReturn; \n  uint public _investmentSold = 0;\n  mapping(address=>uint) public investors; // mapping to show number of shares owned by each investor\n\n  constructor(uint _investmentPrice) ERC721(\"NFT Tickets\", \"TIX\") {\n    // investmentPrice = _investmentPrice;\n    investmentPrice = 3;\n    _setBaseURI(\"https://ipfs.infura.io/ipfs/\");\n    // _setBaseURI(\"ipfs://\");\n  }\n\n  modifier eventNotStarted() {\n    require(currentState == State.ticketSaleStart);\n    _;\n  }\n\n  function _setBaseURI(string memory _uri) private {\n    _base = _uri;\n  }\n\n  function _baseURI() internal view override returns (string memory) {\n    return _base;\n  }\n\n  function createTicket(uint256 _price, uint256 _maxPrice, string memory _tokenURI) public onlyOwner {\n    require(currentState == State.creatingTickets);\n    _mint(msg.sender, _currentTokenId); //token id starts from 0\n    tickets.push(Ticket(_maxPrice, _price, true));\n    _setTokenURI(_currentTokenId, _tokenURI);\n    emit ticketCreated(_currentTokenId, _price, _tokenURI);\n    _incrementTokenId();\n  }\n\n// https://rinkeby.rarible.com/token/0x80BC2298872D8C88f0Eca80fA1a63953Ac3093F8:1\n\n// https://rinkeby.rarible.com/token/0x0000000000000000000000000000000000000000:1\n\n  // let's say the event organiser will have 100 tickets as Collateral\n  // each ticket will cost $100 in the primary market = $10000\n  // for each ticket sold, $40 will be put into a vault (40%)\n  // total collateral worth $40 x 100 (if sold out) = $4000\n  // and now the event organiser wants to pre finance $3000\n  // so the event organiser will sell each collateral at $30 until 100 collateral has been sold\n\n\n  // investors can choose to invest in a number of tokens\n  function invest(uint _number) public payable {\n    require(currentState == State.investmentStart);\n    require(msg.value == investmentPrice.mul(_number));\n    require(_number + _investmentSold < _currentTokenId.add(1));\n    _incrementInvestmentId(_number);\n    investors[msg.sender] += _number;\n    emit invested(msg.sender, _number);\n  }\n\n  function _incrementInvestmentId(uint _number) private {\n    _investmentSold = _investmentSold + _number;\n  }\n\n  // event organiser can withdraw funds before the event starts\n  function withdraw() public onlyOwner {\n    require(currentState == State.investmentStop);\n    payable(msg.sender).transfer(address(this).balance);\n  }\n\n  function getContractBalance() public view returns(uint) {\n    return address(this).balance;\n  }\n\n  function changeTicketPrice(uint256 _tokenId, uint256 _newPrice, string memory _tokenURI) public {\n    require(msg.sender == ownerOf(_tokenId));\n    Ticket storage tix = tickets[_tokenId];\n    require(_newPrice < tix.maxPrice, \"not more than the upper limit price\");\n    tix.price = _newPrice;\n    _setTokenURI(_tokenId, _tokenURI);\n  }\n\n  function startEvent() public onlyOwner {\n    require(currentState == State.ticketSaleStart);\n    currentState = State.eventStart;\n    unitReturn = vaultBalance.div(_investmentSold);\n    emit eventStarted(); \n  }\n\n  function startInvestment() public onlyOwner {\n    require(currentState == State.creatingTickets);\n    currentState = State.investmentStart;\n    emit investmentStarted(); \n  }\n\n  function stopInvestment() public onlyOwner {\n    require(currentState == State.investmentStart);\n    currentState = State.investmentStop;\n    emit investmentStopped();\n  }\n\n  function startTicketSale() public onlyOwner {\n    require(currentState == State.investmentStop);\n    currentState = State.ticketSaleStart;\n    emit ticketSaleStarted();\n  }\n\n  function _incrementTokenId() private {\n    _currentTokenId++;\n  }\n\n  function retrieve() public {\n    require(currentState == State.eventStart);\n    if (investors[msg.sender] > 0) {\n      etherBalance[msg.sender] += unitReturn.mul(investors[msg.sender]);\n      investors[msg.sender] = 0;\n    }\n    payable(msg.sender).transfer(etherBalance[msg.sender]);\n  }\n\n  // tickets need to put on sale first before it could be purchased\n  function toggleSale(uint256 _tokenId) public {\n    require(msg.sender == ownerOf(_tokenId));\n    Ticket storage tix = tickets[_tokenId];\n    tix.onSale = !tix.onSale;\n    emit saleToggled(_tokenId, tix.onSale);\n  }\n\n  // this function should be called by the buyer\n  function buyTicket(uint256 _tokenId) external payable {\n    Ticket storage tix = tickets[_tokenId];\n    require(tix.onSale == true);\n    require(msg.value >= tix.price, \"at least the ticket price\");\n    require(balanceOf(msg.sender) < _maxTicketNum, \"exceeded max number of tickets bought\");\n    address seller = ownerOf(_tokenId);\n    tix.onSale = false;\n    etherBalance[seller] += (msg.value).div(5).mul(3); //60%\n    vaultBalance += (msg.value).div(5).mul(2); //40%\n    _safeTransfer(seller, msg.sender, _tokenId, \"\");\n    emit ticketTransferred(_tokenId, msg.sender);\n    emit saleToggled(_tokenId, false);\n  }\n\n  function getTicketsLength() public view returns(uint) {\n    return tickets.length;\n  }\n\n  event ticketTransferred(uint256 _id, address _owner); //show the address of new owner\n  event saleToggled(uint256 _id, bool state); //show whether ticket is on sale\n  event ticketCreated(uint256 _id, uint256 _price, string _tokenURI);\n  event invested(address _investor, uint _number);\n  event investmentStarted();\n  event investmentStopped();\n  event ticketSaleStarted();\n  event eventStarted();\n\n}",
  "sourcePath": "/home/kaijun/Documents/blockchain-ticketing/contracts/Marketplace.sol",
  "compiler": {
    "name": "solc",
    "version": "0.8.7+commit.e28d00a7.Emscripten.clang"
  },
  "schemaVersion": "3.4.1",
  "updatedAt": "2021-12-04T15:44:52.008Z",
  "networkType": "ethereum",
  "devdoc": {
    "kind": "dev",
    "methods": {
      "approve(address,uint256)": {
        "details": "See {IERC721-approve}."
      },
      "balanceOf(address)": {
        "details": "See {IERC721-balanceOf}."
      },
      "getApproved(uint256)": {
        "details": "See {IERC721-getApproved}."
      },
      "isApprovedForAll(address,address)": {
        "details": "See {IERC721-isApprovedForAll}."
      },
      "name()": {
        "details": "See {IERC721Metadata-name}."
      },
      "owner()": {
        "details": "Returns the address of the current owner."
      },
      "ownerOf(uint256)": {
        "details": "See {IERC721-ownerOf}."
      },
      "renounceOwnership()": {
        "details": "Leaves the contract without owner. It will not be possible to call `onlyOwner` functions anymore. Can only be called by the current owner. NOTE: Renouncing ownership will leave the contract without an owner, thereby removing any functionality that is only available to the owner."
      },
      "safeTransferFrom(address,address,uint256)": {
        "details": "See {IERC721-safeTransferFrom}."
      },
      "safeTransferFrom(address,address,uint256,bytes)": {
        "details": "See {IERC721-safeTransferFrom}."
      },
      "setApprovalForAll(address,bool)": {
        "details": "See {IERC721-setApprovalForAll}."
      },
      "supportsInterface(bytes4)": {
        "details": "See {IERC165-supportsInterface}."
      },
      "symbol()": {
        "details": "See {IERC721Metadata-symbol}."
      },
      "tokenURI(uint256)": {
        "details": "See {IERC721Metadata-tokenURI}."
      },
      "transferFrom(address,address,uint256)": {
        "details": "See {IERC721-transferFrom}."
      },
      "transferOwnership(address)": {
        "details": "Transfers ownership of the contract to a new account (`newOwner`). Can only be called by the current owner."
      }
    },
    "version": 1
  },
  "userdoc": {
    "kind": "user",
    "methods": {},
    "version": 1
  }
}