{
  "contractName": "Market",
  "abi": [
    {
      "inputs": [],
      "stateMutability": "nonpayable",
      "type": "constructor"
    },
    {
      "anonymous": false,
      "inputs": [
        {
          "indexed": true,
          "internalType": "address",
          "name": "owner",
          "type": "address"
        },
        {
          "indexed": true,
          "internalType": "address",
          "name": "approved",
          "type": "address"
        },
        {
          "indexed": true,
          "internalType": "uint256",
          "name": "tokenId",
          "type": "uint256"
        }
      ],
      "name": "Approval",
      "type": "event"
    },
    {
      "anonymous": false,
      "inputs": [
        {
          "indexed": true,
          "internalType": "address",
          "name": "owner",
          "type": "address"
        },
        {
          "indexed": true,
          "internalType": "address",
          "name": "operator",
          "type": "address"
        },
        {
          "indexed": false,
          "internalType": "bool",
          "name": "approved",
          "type": "bool"
        }
      ],
      "name": "ApprovalForAll",
      "type": "event"
    },
    {
      "anonymous": false,
      "inputs": [
        {
          "indexed": true,
          "internalType": "address",
          "name": "previousOwner",
          "type": "address"
        },
        {
          "indexed": true,
          "internalType": "address",
          "name": "newOwner",
          "type": "address"
        }
      ],
      "name": "OwnershipTransferred",
      "type": "event"
    },
    {
      "anonymous": false,
      "inputs": [
        {
          "indexed": true,
          "internalType": "address",
          "name": "from",
          "type": "address"
        },
        {
          "indexed": true,
          "internalType": "address",
          "name": "to",
          "type": "address"
        },
        {
          "indexed": true,
          "internalType": "uint256",
          "name": "tokenId",
          "type": "uint256"
        }
      ],
      "name": "Transfer",
      "type": "event"
    },
    {
      "anonymous": false,
      "inputs": [
        {
          "indexed": false,
          "internalType": "uint256",
          "name": "_id",
          "type": "uint256"
        },
        {
          "indexed": false,
          "internalType": "uint256",
          "name": "_numTickets",
          "type": "uint256"
        },
        {
          "indexed": false,
          "internalType": "uint256",
          "name": "_price",
          "type": "uint256"
        }
      ],
      "name": "eventCreated",
      "type": "event"
    },
    {
      "anonymous": false,
      "inputs": [
        {
          "indexed": false,
          "internalType": "uint256",
          "name": "_id",
          "type": "uint256"
        },
        {
          "indexed": false,
          "internalType": "address",
          "name": "_owner",
          "type": "address"
        }
      ],
      "name": "ticketTransferred",
      "type": "event"
    },
    {
      "inputs": [
        {
          "internalType": "address",
          "name": "to",
          "type": "address"
        },
        {
          "internalType": "uint256",
          "name": "tokenId",
          "type": "uint256"
        }
      ],
      "name": "approve",
      "outputs": [],
      "stateMutability": "nonpayable",
      "type": "function"
    },
    {
      "inputs": [
        {
          "internalType": "uint256",
          "name": "",
          "type": "uint256"
        },
        {
          "internalType": "uint256",
          "name": "",
          "type": "uint256"
        }
      ],
      "name": "attendees",
      "outputs": [
        {
          "internalType": "address",
          "name": "",
          "type": "address"
        }
      ],
      "stateMutability": "view",
      "type": "function",
      "constant": true
    },
    {
      "inputs": [
        {
          "internalType": "address",
          "name": "owner",
          "type": "address"
        }
      ],
      "name": "balanceOf",
      "outputs": [
        {
          "internalType": "uint256",
          "name": "",
          "type": "uint256"
        }
      ],
      "stateMutability": "view",
      "type": "function",
      "constant": true
    },
    {
      "inputs": [
        {
          "internalType": "uint256",
          "name": "",
          "type": "uint256"
        }
      ],
      "name": "events",
      "outputs": [
        {
          "internalType": "uint256",
          "name": "eventID",
          "type": "uint256"
        },
        {
          "internalType": "address",
          "name": "organiser",
          "type": "address"
        },
        {
          "internalType": "enum Market.State",
          "name": "currentState",
          "type": "uint8"
        },
        {
          "internalType": "uint256",
          "name": "totalTicket",
          "type": "uint256"
        },
        {
          "internalType": "uint256",
          "name": "ticketPrice",
          "type": "uint256"
        },
        {
          "internalType": "uint256",
          "name": "firstTicketID",
          "type": "uint256"
        },
        {
          "internalType": "uint256",
          "name": "currentTicketID",
          "type": "uint256"
        },
        {
          "internalType": "uint256",
          "name": "lastTicketID",
          "type": "uint256"
        }
      ],
      "stateMutability": "view",
      "type": "function",
      "constant": true
    },
    {
      "inputs": [
        {
          "internalType": "uint256",
          "name": "tokenId",
          "type": "uint256"
        }
      ],
      "name": "getApproved",
      "outputs": [
        {
          "internalType": "address",
          "name": "",
          "type": "address"
        }
      ],
      "stateMutability": "view",
      "type": "function",
      "constant": true
    },
    {
      "inputs": [
        {
          "internalType": "address",
          "name": "owner",
          "type": "address"
        },
        {
          "internalType": "address",
          "name": "operator",
          "type": "address"
        }
      ],
      "name": "isApprovedForAll",
      "outputs": [
        {
          "internalType": "bool",
          "name": "",
          "type": "bool"
        }
      ],
      "stateMutability": "view",
      "type": "function",
      "constant": true
    },
    {
      "inputs": [],
      "name": "name",
      "outputs": [
        {
          "internalType": "string",
          "name": "",
          "type": "string"
        }
      ],
      "stateMutability": "view",
      "type": "function",
      "constant": true
    },
    {
      "inputs": [],
      "name": "owner",
      "outputs": [
        {
          "internalType": "address",
          "name": "",
          "type": "address"
        }
      ],
      "stateMutability": "view",
      "type": "function",
      "constant": true
    },
    {
      "inputs": [
        {
          "internalType": "uint256",
          "name": "tokenId",
          "type": "uint256"
        }
      ],
      "name": "ownerOf",
      "outputs": [
        {
          "internalType": "address",
          "name": "",
          "type": "address"
        }
      ],
      "stateMutability": "view",
      "type": "function",
      "constant": true
    },
    {
      "inputs": [],
      "name": "renounceOwnership",
      "outputs": [],
      "stateMutability": "nonpayable",
      "type": "function"
    },
    {
      "inputs": [
        {
          "internalType": "address",
          "name": "from",
          "type": "address"
        },
        {
          "internalType": "address",
          "name": "to",
          "type": "address"
        },
        {
          "internalType": "uint256",
          "name": "tokenId",
          "type": "uint256"
        }
      ],
      "name": "safeTransferFrom",
      "outputs": [],
      "stateMutability": "nonpayable",
      "type": "function"
    },
    {
      "inputs": [
        {
          "internalType": "address",
          "name": "from",
          "type": "address"
        },
        {
          "internalType": "address",
          "name": "to",
          "type": "address"
        },
        {
          "internalType": "uint256",
          "name": "tokenId",
          "type": "uint256"
        },
        {
          "internalType": "bytes",
          "name": "_data",
          "type": "bytes"
        }
      ],
      "name": "safeTransferFrom",
      "outputs": [],
      "stateMutability": "nonpayable",
      "type": "function"
    },
    {
      "inputs": [
        {
          "internalType": "address",
          "name": "operator",
          "type": "address"
        },
        {
          "internalType": "bool",
          "name": "approved",
          "type": "bool"
        }
      ],
      "name": "setApprovalForAll",
      "outputs": [],
      "stateMutability": "nonpayable",
      "type": "function"
    },
    {
      "inputs": [
        {
          "internalType": "bytes4",
          "name": "interfaceId",
          "type": "bytes4"
        }
      ],
      "name": "supportsInterface",
      "outputs": [
        {
          "internalType": "bool",
          "name": "",
          "type": "bool"
        }
      ],
      "stateMutability": "view",
      "type": "function",
      "constant": true
    },
    {
      "inputs": [],
      "name": "symbol",
      "outputs": [
        {
          "internalType": "string",
          "name": "",
          "type": "string"
        }
      ],
      "stateMutability": "view",
      "type": "function",
      "constant": true
    },
    {
      "inputs": [
        {
          "internalType": "uint256",
          "name": "tokenId",
          "type": "uint256"
        }
      ],
      "name": "tokenURI",
      "outputs": [
        {
          "internalType": "string",
          "name": "",
          "type": "string"
        }
      ],
      "stateMutability": "view",
      "type": "function",
      "constant": true
    },
    {
      "inputs": [
        {
          "internalType": "address",
          "name": "from",
          "type": "address"
        },
        {
          "internalType": "address",
          "name": "to",
          "type": "address"
        },
        {
          "internalType": "uint256",
          "name": "tokenId",
          "type": "uint256"
        }
      ],
      "name": "transferFrom",
      "outputs": [],
      "stateMutability": "nonpayable",
      "type": "function"
    },
    {
      "inputs": [
        {
          "internalType": "address",
          "name": "newOwner",
          "type": "address"
        }
      ],
      "name": "transferOwnership",
      "outputs": [],
      "stateMutability": "nonpayable",
      "type": "function"
    },
    {
      "inputs": [
        {
          "internalType": "uint256",
          "name": "_numTickets",
          "type": "uint256"
        },
        {
          "internalType": "uint256",
          "name": "_price",
          "type": "uint256"
        }
      ],
      "name": "createEvent",
      "outputs": [],
      "stateMutability": "nonpayable",
      "type": "function"
    },
    {
      "inputs": [],
      "name": "withdraw",
      "outputs": [],
      "stateMutability": "nonpayable",
      "type": "function"
    },
    {
      "inputs": [
        {
          "internalType": "uint256",
          "name": "_eventId",
          "type": "uint256"
        }
      ],
      "name": "startTicketSale",
      "outputs": [],
      "stateMutability": "nonpayable",
      "type": "function"
    },
    {
      "inputs": [
        {
          "internalType": "uint256",
          "name": "_eventId",
          "type": "uint256"
        }
      ],
      "name": "endTicketSale",
      "outputs": [],
      "stateMutability": "nonpayable",
      "type": "function"
    },
    {
      "inputs": [
        {
          "internalType": "uint256",
          "name": "_eventId",
          "type": "uint256"
        }
      ],
      "name": "buyTicket",
      "outputs": [],
      "stateMutability": "payable",
      "type": "function",
      "payable": true
    },
    {
      "inputs": [],
      "name": "getEventsLength",
      "outputs": [
        {
          "internalType": "uint256",
          "name": "",
          "type": "uint256"
        }
      ],
      "stateMutability": "view",
      "type": "function",
      "constant": true
    },
    {
      "inputs": [
        {
          "internalType": "uint256",
          "name": "_eventId",
          "type": "uint256"
        }
      ],
      "name": "getAttendeesLength",
      "outputs": [
        {
          "internalType": "uint256",
          "name": "",
          "type": "uint256"
        }
      ],
      "stateMutability": "view",
      "type": "function",
      "constant": true
    }
  ],
  "bytecode": "0x60806040526000600a556000600b553480156200001b57600080fd5b506040518060400160405280600b81526020017f4e4654205469636b6574730000000000000000000000000000000000000000008152506040518060400160405280600381526020017f5449580000000000000000000000000000000000000000000000000000000000815250620000a86200009c6200012860201b60201c565b6200013060201b60201c565b8160019080519060200190620000c092919062000210565b508060029080519060200190620000d992919062000210565b505050620001226040518060400160405280601c81526020017f68747470733a2f2f697066732e696e667572612e696f2f697066732f00000000815250620001f460201b60201c565b62000325565b600033905090565b60008060009054906101000a900473ffffffffffffffffffffffffffffffffffffffff169050816000806101000a81548173ffffffffffffffffffffffffffffffffffffffff021916908373ffffffffffffffffffffffffffffffffffffffff1602179055508173ffffffffffffffffffffffffffffffffffffffff168173ffffffffffffffffffffffffffffffffffffffff167f8be0079c531659141344cd1fd0a4f28419497f9722a3daafe3b4186f6b6457e060405160405180910390a35050565b80600d90805190602001906200020c92919062000210565b5050565b8280546200021e90620002c0565b90600052602060002090601f0160209004810192826200024257600085556200028e565b82601f106200025d57805160ff19168380011785556200028e565b828001600101855582156200028e579182015b828111156200028d57825182559160200191906001019062000270565b5b5090506200029d9190620002a1565b5090565b5b80821115620002bc576000816000905550600101620002a2565b5090565b60006002820490506001821680620002d957607f821691505b60208210811415620002f057620002ef620002f6565b5b50919050565b7f4e487b7100000000000000000000000000000000000000000000000000000000600052602260045260246000fd5b6138e280620003356000396000f3fe6080604052600436106101665760003560e01c806370a08231116100d1578063adadcfef1161008a578063c9b2264c11610064578063c9b2264c14610532578063dac44d871461056f578063e985e9c514610598578063f2fde38b146105d557610166565b8063adadcfef1461048f578063b88d4fde146104cc578063c87b56dd146104f557610166565b806370a0823114610393578063715018a6146103d0578063790c0125146103e75780638da5cb5b1461041057806395d89b411461043b578063a22cb4651461046657610166565b806323b872dd1161012357806323b872dd146102a65780633ccfd60b146102cf57806342842e0e146102e657806347fc216e1461030f5780636352211e1461033a57806367dd74ca1461037757610166565b806301ffc9a71461016b57806306fdde03146101a8578063081812fc146101d3578063095ea7b3146102105780630b791430146102395780631c5f9a9c1461027d575b600080fd5b34801561017757600080fd5b50610192600480360381019061018d91906127c3565b6105fe565b60405161019f9190612c37565b60405180910390f35b3480156101b457600080fd5b506101bd6106e0565b6040516101ca9190612c52565b60405180910390f35b3480156101df57600080fd5b506101fa60048036038101906101f59190612815565b610772565b6040516102079190612bd0565b60405180910390f35b34801561021c57600080fd5b5061023760048036038101906102329190612787565b6107f7565b005b34801561024557600080fd5b50610260600480360381019061025b9190612815565b61090f565b604051610274989796959493929190612ed8565b60405180910390f35b34801561028957600080fd5b506102a4600480360381019061029f9190612815565b610994565b005b3480156102b257600080fd5b506102cd60048036038101906102c89190612681565b610a93565b005b3480156102db57600080fd5b506102e4610af3565b005b3480156102f257600080fd5b5061030d60048036038101906103089190612681565b610b7b565b005b34801561031b57600080fd5b50610324610b9b565b6040516103319190612e94565b60405180910390f35b34801561034657600080fd5b50610361600480360381019061035c9190612815565b610ba8565b60405161036e9190612bd0565b60405180910390f35b610391600480360381019061038c9190612815565b610c5a565b005b34801561039f57600080fd5b506103ba60048036038101906103b5919061261c565b610e1c565b6040516103c79190612e94565b60405180910390f35b3480156103dc57600080fd5b506103e5610ed4565b005b3480156103f357600080fd5b5061040e6004803603810190610409919061283e565b610f5c565b005b34801561041c57600080fd5b5061042561116b565b6040516104329190612bd0565b60405180910390f35b34801561044757600080fd5b50610450611194565b60405161045d9190612c52565b60405180910390f35b34801561047257600080fd5b5061048d6004803603810190610488919061274b565b611226565b005b34801561049b57600080fd5b506104b660048036038101906104b19190612815565b61123c565b6040516104c39190612e94565b60405180910390f35b3480156104d857600080fd5b506104f360048036038101906104ee91906126d0565b61125c565b005b34801561050157600080fd5b5061051c60048036038101906105179190612815565b6112be565b6040516105299190612c52565b60405180910390f35b34801561053e57600080fd5b506105596004803603810190610554919061283e565b611410565b6040516105669190612bd0565b60405180910390f35b34801561057b57600080fd5b5061059660048036038101906105919190612815565b61145e565b005b3480156105a457600080fd5b506105bf60048036038101906105ba9190612645565b61155d565b6040516105cc9190612c37565b60405180910390f35b3480156105e157600080fd5b506105fc60048036038101906105f7919061261c565b6115f1565b005b60007f80ac58cd000000000000000000000000000000000000000000000000000000007bffffffffffffffffffffffffffffffffffffffffffffffffffffffff1916827bffffffffffffffffffffffffffffffffffffffffffffffffffffffff191614806106c957507f5b5e139f000000000000000000000000000000000000000000000000000000007bffffffffffffffffffffffffffffffffffffffffffffffffffffffff1916827bffffffffffffffffffffffffffffffffffffffffffffffffffffffff1916145b806106d957506106d8826116e9565b5b9050919050565b6060600180546106ef906131bc565b80601f016020809104026020016040519081016040528092919081815260200182805461071b906131bc565b80156107685780601f1061073d57610100808354040283529160200191610768565b820191906000526020600020905b81548152906001019060200180831161074b57829003601f168201915b5050505050905090565b600061077d82611753565b6107bc576040517f08c379a00000000000000000000000000000000000000000000000000000000081526004016107b390612dd4565b60405180910390fd5b6005600083815260200190815260200160002060009054906101000a900473ffffffffffffffffffffffffffffffffffffffff169050919050565b600061080282610ba8565b90508073ffffffffffffffffffffffffffffffffffffffff168373ffffffffffffffffffffffffffffffffffffffff161415610873576040517f08c379a000000000000000000000000000000000000000000000000000000000815260040161086a90612e54565b60405180910390fd5b8073ffffffffffffffffffffffffffffffffffffffff166108926117bf565b73ffffffffffffffffffffffffffffffffffffffff1614806108c157506108c0816108bb6117bf565b61155d565b5b610900576040517f08c379a00000000000000000000000000000000000000000000000000000000081526004016108f790612d34565b60405180910390fd5b61090a83836117c7565b505050565b6008818154811061091f57600080fd5b90600052602060002090600702016000915090508060000154908060010160009054906101000a900473ffffffffffffffffffffffffffffffffffffffff16908060010160149054906101000a900460ff16908060020154908060030154908060040154908060050154908060060154905088565b6000600882815481106109d0577f4e487b7100000000000000000000000000000000000000000000000000000000600052603260045260246000fd5b906000526020600020906007020190508060010160009054906101000a900473ffffffffffffffffffffffffffffffffffffffff1673ffffffffffffffffffffffffffffffffffffffff163373ffffffffffffffffffffffffffffffffffffffff1614610a3c57600080fd5b60018160010160146101000a81548160ff02191690836002811115610a8a577f4e487b7100000000000000000000000000000000000000000000000000000000600052602160045260246000fd5b02179055505050565b610aa4610a9e6117bf565b82611880565b610ae3576040517f08c379a0000000000000000000000000000000000000000000000000000000008152600401610ada90612e74565b60405180910390fd5b610aee83838361195e565b505050565b3373ffffffffffffffffffffffffffffffffffffffff166108fc600c60003373ffffffffffffffffffffffffffffffffffffffff1673ffffffffffffffffffffffffffffffffffffffff168152602001908152602001600020549081150290604051600060405180830381858888f19350505050158015610b78573d6000803e3d6000fd5b50565b610b968383836040518060200160405280600081525061125c565b505050565b6000600880549050905090565b6000806003600084815260200190815260200160002060009054906101000a900473ffffffffffffffffffffffffffffffffffffffff169050600073ffffffffffffffffffffffffffffffffffffffff168173ffffffffffffffffffffffffffffffffffffffff161415610c51576040517f08c379a0000000000000000000000000000000000000000000000000000000008152600401610c4890612d74565b60405180910390fd5b80915050919050565b600060088281548110610c96577f4e487b7100000000000000000000000000000000000000000000000000000000600052603260045260246000fd5b906000526020600020906007020190508060030154341015610cb757600080fd5b6000816005015490508160060154811115610cd157600080fd5b6000610cdc82610ba8565b905034600c60008373ffffffffffffffffffffffffffffffffffffffff1673ffffffffffffffffffffffffffffffffffffffff1681526020019081526020016000206000828254610d2d9190613026565b9250508190555060096000858152602001908152602001600020339080600181540180825580915050600190039060005260206000200160009091909190916101000a81548173ffffffffffffffffffffffffffffffffffffffff021916908373ffffffffffffffffffffffffffffffffffffffff160217905550610dc381338460405180602001604052806000815250611bba565b826005016000815480929190610dd89061321f565b91905055507f1a16bc699ce0f6ccd4b93e7dc6f592ff10f75af2aa2e0a7346adbc317943749a8233604051610e0e929190612eaf565b60405180910390a150505050565b60008073ffffffffffffffffffffffffffffffffffffffff168273ffffffffffffffffffffffffffffffffffffffff161415610e8d576040517f08c379a0000000000000000000000000000000000000000000000000000000008152600401610e8490612d54565b60405180910390fd5b600460008373ffffffffffffffffffffffffffffffffffffffff1673ffffffffffffffffffffffffffffffffffffffff168152602001908152602001600020549050919050565b610edc6117bf565b73ffffffffffffffffffffffffffffffffffffffff16610efa61116b565b73ffffffffffffffffffffffffffffffffffffffff1614610f50576040517f08c379a0000000000000000000000000000000000000000000000000000000008152600401610f4790612df4565b60405180910390fd5b610f5a6000611c16565b565b6008604051806101000160405280600a5481526020013373ffffffffffffffffffffffffffffffffffffffff16815260200160006002811115610fc8577f4e487b7100000000000000000000000000000000000000000000000000000000600052602160045260246000fd5b8152602001848152602001838152602001600b548152602001600b548152602001611011600161100387600b54611cda90919063ffffffff16565b611cf090919063ffffffff16565b81525090806001815401808255809150506001900390600052602060002090600702016000909190919091506000820151816000015560208201518160010160006101000a81548173ffffffffffffffffffffffffffffffffffffffff021916908373ffffffffffffffffffffffffffffffffffffffff16021790555060408201518160010160146101000a81548160ff021916908360028111156110df577f4e487b7100000000000000000000000000000000000000000000000000000000600052602160045260246000fd5b0217905550606082015181600201556080820151816003015560a0820151816004015560c0820151816005015560e08201518160060155505061112182611d06565b507f510309c3e6be414884b8f9842a0f181fef1b2bb405bb05840d1ce0096d09cef8600a54838360405161115793929190612f56565b60405180910390a1611167611d47565b5050565b60008060009054906101000a900473ffffffffffffffffffffffffffffffffffffffff16905090565b6060600280546111a3906131bc565b80601f01602080910402602001604051908101604052809291908181526020018280546111cf906131bc565b801561121c5780601f106111f15761010080835404028352916020019161121c565b820191906000526020600020905b8154815290600101906020018083116111ff57829003601f168201915b5050505050905090565b6112386112316117bf565b8383611d61565b5050565b600060096000838152602001908152602001600020805490509050919050565b61126d6112676117bf565b83611880565b6112ac576040517f08c379a00000000000000000000000000000000000000000000000000000000081526004016112a390612e74565b60405180910390fd5b6112b884848484611bba565b50505050565b60606112c982611753565b611308576040517f08c379a00000000000000000000000000000000000000000000000000000000081526004016112ff90612db4565b60405180910390fd5b6000600760008481526020019081526020016000208054611328906131bc565b80601f0160208091040260200160405190810160405280929190818152602001828054611354906131bc565b80156113a15780601f10611376576101008083540402835291602001916113a1565b820191906000526020600020905b81548152906001019060200180831161138457829003601f168201915b5050505050905060006113b2611ece565b90506000815114156113c857819250505061140b565b6000825111156113fd5780826040516020016113e5929190612bac565b6040516020818303038152906040529250505061140b565b61140684611f60565b925050505b919050565b6009602052816000526040600020818154811061142c57600080fd5b906000526020600020016000915091509054906101000a900473ffffffffffffffffffffffffffffffffffffffff1681565b60006008828154811061149a577f4e487b7100000000000000000000000000000000000000000000000000000000600052603260045260246000fd5b906000526020600020906007020190508060010160009054906101000a900473ffffffffffffffffffffffffffffffffffffffff1673ffffffffffffffffffffffffffffffffffffffff163373ffffffffffffffffffffffffffffffffffffffff161461150657600080fd5b60028160010160146101000a81548160ff02191690836002811115611554577f4e487b7100000000000000000000000000000000000000000000000000000000600052602160045260246000fd5b02179055505050565b6000600660008473ffffffffffffffffffffffffffffffffffffffff1673ffffffffffffffffffffffffffffffffffffffff16815260200190815260200160002060008373ffffffffffffffffffffffffffffffffffffffff1673ffffffffffffffffffffffffffffffffffffffff16815260200190815260200160002060009054906101000a900460ff16905092915050565b6115f96117bf565b73ffffffffffffffffffffffffffffffffffffffff1661161761116b565b73ffffffffffffffffffffffffffffffffffffffff161461166d576040517f08c379a000000000000000000000000000000000000000000000000000000000815260040161166490612df4565b60405180910390fd5b600073ffffffffffffffffffffffffffffffffffffffff168173ffffffffffffffffffffffffffffffffffffffff1614156116dd576040517f08c379a00000000000000000000000000000000000000000000000000000000081526004016116d490612c94565b60405180910390fd5b6116e681611c16565b50565b60007f01ffc9a7000000000000000000000000000000000000000000000000000000007bffffffffffffffffffffffffffffffffffffffffffffffffffffffff1916827bffffffffffffffffffffffffffffffffffffffffffffffffffffffff1916149050919050565b60008073ffffffffffffffffffffffffffffffffffffffff166003600084815260200190815260200160002060009054906101000a900473ffffffffffffffffffffffffffffffffffffffff1673ffffffffffffffffffffffffffffffffffffffff1614159050919050565b600033905090565b816005600083815260200190815260200160002060006101000a81548173ffffffffffffffffffffffffffffffffffffffff021916908373ffffffffffffffffffffffffffffffffffffffff160217905550808273ffffffffffffffffffffffffffffffffffffffff1661183a83610ba8565b73ffffffffffffffffffffffffffffffffffffffff167f8c5be1e5ebec7d5bd14f71427d1e84f3dd0314c0f7b2291e5b200ac8c7c3b92560405160405180910390a45050565b600061188b82611753565b6118ca576040517f08c379a00000000000000000000000000000000000000000000000000000000081526004016118c190612d14565b60405180910390fd5b60006118d583610ba8565b90508073ffffffffffffffffffffffffffffffffffffffff168473ffffffffffffffffffffffffffffffffffffffff16148061194457508373ffffffffffffffffffffffffffffffffffffffff1661192c84610772565b73ffffffffffffffffffffffffffffffffffffffff16145b806119555750611954818561155d565b5b91505092915050565b8273ffffffffffffffffffffffffffffffffffffffff1661197e82610ba8565b73ffffffffffffffffffffffffffffffffffffffff16146119d4576040517f08c379a00000000000000000000000000000000000000000000000000000000081526004016119cb90612e14565b60405180910390fd5b600073ffffffffffffffffffffffffffffffffffffffff168273ffffffffffffffffffffffffffffffffffffffff161415611a44576040517f08c379a0000000000000000000000000000000000000000000000000000000008152600401611a3b90612cd4565b60405180910390fd5b611a4f838383612007565b611a5a6000826117c7565b6001600460008573ffffffffffffffffffffffffffffffffffffffff1673ffffffffffffffffffffffffffffffffffffffff1681526020019081526020016000206000828254611aaa91906130ad565b925050819055506001600460008473ffffffffffffffffffffffffffffffffffffffff1673ffffffffffffffffffffffffffffffffffffffff1681526020019081526020016000206000828254611b019190613026565b92505081905550816003600083815260200190815260200160002060006101000a81548173ffffffffffffffffffffffffffffffffffffffff021916908373ffffffffffffffffffffffffffffffffffffffff160217905550808273ffffffffffffffffffffffffffffffffffffffff168473ffffffffffffffffffffffffffffffffffffffff167fddf252ad1be2c89b69c2b068fc378daa952ba7f163c4a11628f55a4df523b3ef60405160405180910390a4505050565b611bc584848461195e565b611bd18484848461200c565b611c10576040517f08c379a0000000000000000000000000000000000000000000000000000000008152600401611c0790612c74565b60405180910390fd5b50505050565b60008060009054906101000a900473ffffffffffffffffffffffffffffffffffffffff169050816000806101000a81548173ffffffffffffffffffffffffffffffffffffffff021916908373ffffffffffffffffffffffffffffffffffffffff1602179055508173ffffffffffffffffffffffffffffffffffffffff168173ffffffffffffffffffffffffffffffffffffffff167f8be0079c531659141344cd1fd0a4f28419497f9722a3daafe3b4186f6b6457e060405160405180910390a35050565b60008183611ce89190613026565b905092915050565b60008183611cfe91906130ad565b905092915050565b600080600090505b82811015611d3d57611d2233600b546121a3565b611d2a612371565b8080611d359061321f565b915050611d0e565b5060019050919050565b600a6000815480929190611d5a9061321f565b9190505550565b8173ffffffffffffffffffffffffffffffffffffffff168373ffffffffffffffffffffffffffffffffffffffff161415611dd0576040517f08c379a0000000000000000000000000000000000000000000000000000000008152600401611dc790612cf4565b60405180910390fd5b80600660008573ffffffffffffffffffffffffffffffffffffffff1673ffffffffffffffffffffffffffffffffffffffff16815260200190815260200160002060008473ffffffffffffffffffffffffffffffffffffffff1673ffffffffffffffffffffffffffffffffffffffff16815260200190815260200160002060006101000a81548160ff0219169083151502179055508173ffffffffffffffffffffffffffffffffffffffff168373ffffffffffffffffffffffffffffffffffffffff167f17307eab39ab6107e8899845ad3d59bd9653f200f220920489ca2b5937696c3183604051611ec19190612c37565b60405180910390a3505050565b6060600d8054611edd906131bc565b80601f0160208091040260200160405190810160405280929190818152602001828054611f09906131bc565b8015611f565780601f10611f2b57610100808354040283529160200191611f56565b820191906000526020600020905b815481529060010190602001808311611f3957829003601f168201915b5050505050905090565b6060611f6b82611753565b611faa576040517f08c379a0000000000000000000000000000000000000000000000000000000008152600401611fa190612e34565b60405180910390fd5b6000611fb4611ece565b90506000815111611fd45760405180602001604052806000815250611fff565b80611fde8461238b565b604051602001611fef929190612bac565b6040516020818303038152906040525b915050919050565b505050565b600061202d8473ffffffffffffffffffffffffffffffffffffffff16612538565b15612196578373ffffffffffffffffffffffffffffffffffffffff1663150b7a026120566117bf565b8786866040518563ffffffff1660e01b81526004016120789493929190612beb565b602060405180830381600087803b15801561209257600080fd5b505af19250505080156120c357506040513d601f19601f820116820180604052508101906120c091906127ec565b60015b612146573d80600081146120f3576040519150601f19603f3d011682016040523d82523d6000602084013e6120f8565b606091505b5060008151141561213e576040517f08c379a000000000000000000000000000000000000000000000000000000000815260040161213590612c74565b60405180910390fd5b805181602001fd5b63150b7a0260e01b7bffffffffffffffffffffffffffffffffffffffffffffffffffffffff1916817bffffffffffffffffffffffffffffffffffffffffffffffffffffffff19161491505061219b565b600190505b949350505050565b600073ffffffffffffffffffffffffffffffffffffffff168273ffffffffffffffffffffffffffffffffffffffff161415612213576040517f08c379a000000000000000000000000000000000000000000000000000000000815260040161220a90612d94565b60405180910390fd5b61221c81611753565b1561225c576040517f08c379a000000000000000000000000000000000000000000000000000000000815260040161225390612cb4565b60405180910390fd5b61226860008383612007565b6001600460008473ffffffffffffffffffffffffffffffffffffffff1673ffffffffffffffffffffffffffffffffffffffff16815260200190815260200160002060008282546122b89190613026565b92505081905550816003600083815260200190815260200160002060006101000a81548173ffffffffffffffffffffffffffffffffffffffff021916908373ffffffffffffffffffffffffffffffffffffffff160217905550808273ffffffffffffffffffffffffffffffffffffffff16600073ffffffffffffffffffffffffffffffffffffffff167fddf252ad1be2c89b69c2b068fc378daa952ba7f163c4a11628f55a4df523b3ef60405160405180910390a45050565b600b60008154809291906123849061321f565b9190505550565b606060008214156123d3576040518060400160405280600181526020017f30000000000000000000000000000000000000000000000000000000000000008152509050612533565b600082905060005b600082146124055780806123ee9061321f565b915050600a826123fe919061307c565b91506123db565b60008167ffffffffffffffff811115612447577f4e487b7100000000000000000000000000000000000000000000000000000000600052604160045260246000fd5b6040519080825280601f01601f1916602001820160405280156124795781602001600182028036833780820191505090505b5090505b6000851461252c5760018261249291906130ad565b9150600a856124a19190613268565b60306124ad9190613026565b60f81b8183815181106124e9577f4e487b7100000000000000000000000000000000000000000000000000000000600052603260045260246000fd5b60200101907effffffffffffffffffffffffffffffffffffffffffffffffffffffffffffff1916908160001a905350600a85612525919061307c565b945061247d565b8093505050505b919050565b600080823b905060008111915050919050565b600061255e61255984612fb2565b612f8d565b90508281526020810184848401111561257657600080fd5b61258184828561317a565b509392505050565b60008135905061259881613850565b92915050565b6000813590506125ad81613867565b92915050565b6000813590506125c28161387e565b92915050565b6000815190506125d78161387e565b92915050565b600082601f8301126125ee57600080fd5b81356125fe84826020860161254b565b91505092915050565b60008135905061261681613895565b92915050565b60006020828403121561262e57600080fd5b600061263c84828501612589565b91505092915050565b6000806040838503121561265857600080fd5b600061266685828601612589565b925050602061267785828601612589565b9150509250929050565b60008060006060848603121561269657600080fd5b60006126a486828701612589565b93505060206126b586828701612589565b92505060406126c686828701612607565b9150509250925092565b600080600080608085870312156126e657600080fd5b60006126f487828801612589565b945050602061270587828801612589565b935050604061271687828801612607565b925050606085013567ffffffffffffffff81111561273357600080fd5b61273f878288016125dd565b91505092959194509250565b6000806040838503121561275e57600080fd5b600061276c85828601612589565b925050602061277d8582860161259e565b9150509250929050565b6000806040838503121561279a57600080fd5b60006127a885828601612589565b92505060206127b985828601612607565b9150509250929050565b6000602082840312156127d557600080fd5b60006127e3848285016125b3565b91505092915050565b6000602082840312156127fe57600080fd5b600061280c848285016125c8565b91505092915050565b60006020828403121561282757600080fd5b600061283584828501612607565b91505092915050565b6000806040838503121561285157600080fd5b600061285f85828601612607565b925050602061287085828601612607565b9150509250929050565b612883816130e1565b82525050565b612892816130f3565b82525050565b60006128a382612fe3565b6128ad8185612ff9565b93506128bd818560208601613189565b6128c681613384565b840191505092915050565b6128da81613168565b82525050565b60006128eb82612fee565b6128f5818561300a565b9350612905818560208601613189565b61290e81613384565b840191505092915050565b600061292482612fee565b61292e818561301b565b935061293e818560208601613189565b80840191505092915050565b600061295760328361300a565b915061296282613395565b604082019050919050565b600061297a60268361300a565b9150612985826133e4565b604082019050919050565b600061299d601c8361300a565b91506129a882613433565b602082019050919050565b60006129c060248361300a565b91506129cb8261345c565b604082019050919050565b60006129e360198361300a565b91506129ee826134ab565b602082019050919050565b6000612a06602c8361300a565b9150612a11826134d4565b604082019050919050565b6000612a2960388361300a565b9150612a3482613523565b604082019050919050565b6000612a4c602a8361300a565b9150612a5782613572565b604082019050919050565b6000612a6f60298361300a565b9150612a7a826135c1565b604082019050919050565b6000612a9260208361300a565b9150612a9d82613610565b602082019050919050565b6000612ab560318361300a565b9150612ac082613639565b604082019050919050565b6000612ad8602c8361300a565b9150612ae382613688565b604082019050919050565b6000612afb60208361300a565b9150612b06826136d7565b602082019050919050565b6000612b1e60298361300a565b9150612b2982613700565b604082019050919050565b6000612b41602f8361300a565b9150612b4c8261374f565b604082019050919050565b6000612b6460218361300a565b9150612b6f8261379e565b604082019050919050565b6000612b8760318361300a565b9150612b92826137ed565b604082019050919050565b612ba68161315e565b82525050565b6000612bb88285612919565b9150612bc48284612919565b91508190509392505050565b6000602082019050612be5600083018461287a565b92915050565b6000608082019050612c00600083018761287a565b612c0d602083018661287a565b612c1a6040830185612b9d565b8181036060830152612c2c8184612898565b905095945050505050565b6000602082019050612c4c6000830184612889565b92915050565b60006020820190508181036000830152612c6c81846128e0565b905092915050565b60006020820190508181036000830152612c8d8161294a565b9050919050565b60006020820190508181036000830152612cad8161296d565b9050919050565b60006020820190508181036000830152612ccd81612990565b9050919050565b60006020820190508181036000830152612ced816129b3565b9050919050565b60006020820190508181036000830152612d0d816129d6565b9050919050565b60006020820190508181036000830152612d2d816129f9565b9050919050565b60006020820190508181036000830152612d4d81612a1c565b9050919050565b60006020820190508181036000830152612d6d81612a3f565b9050919050565b60006020820190508181036000830152612d8d81612a62565b9050919050565b60006020820190508181036000830152612dad81612a85565b9050919050565b60006020820190508181036000830152612dcd81612aa8565b9050919050565b60006020820190508181036000830152612ded81612acb565b9050919050565b60006020820190508181036000830152612e0d81612aee565b9050919050565b60006020820190508181036000830152612e2d81612b11565b9050919050565b60006020820190508181036000830152612e4d81612b34565b9050919050565b60006020820190508181036000830152612e6d81612b57565b9050919050565b60006020820190508181036000830152612e8d81612b7a565b9050919050565b6000602082019050612ea96000830184612b9d565b92915050565b6000604082019050612ec46000830185612b9d565b612ed1602083018461287a565b9392505050565b600061010082019050612eee600083018b612b9d565b612efb602083018a61287a565b612f0860408301896128d1565b612f156060830188612b9d565b612f226080830187612b9d565b612f2f60a0830186612b9d565b612f3c60c0830185612b9d565b612f4960e0830184612b9d565b9998505050505050505050565b6000606082019050612f6b6000830186612b9d565b612f786020830185612b9d565b612f856040830184612b9d565b949350505050565b6000612f97612fa8565b9050612fa382826131ee565b919050565b6000604051905090565b600067ffffffffffffffff821115612fcd57612fcc613355565b5b612fd682613384565b9050602081019050919050565b600081519050919050565b600081519050919050565b600082825260208201905092915050565b600082825260208201905092915050565b600081905092915050565b60006130318261315e565b915061303c8361315e565b9250827fffffffffffffffffffffffffffffffffffffffffffffffffffffffffffffffff0382111561307157613070613299565b5b828201905092915050565b60006130878261315e565b91506130928361315e565b9250826130a2576130a16132c8565b5b828204905092915050565b60006130b88261315e565b91506130c38361315e565b9250828210156130d6576130d5613299565b5b828203905092915050565b60006130ec8261313e565b9050919050565b60008115159050919050565b60007fffffffff0000000000000000000000000000000000000000000000000000000082169050919050565b60008190506131398261383c565b919050565b600073ffffffffffffffffffffffffffffffffffffffff82169050919050565b6000819050919050565b60006131738261312b565b9050919050565b82818337600083830152505050565b60005b838110156131a757808201518184015260208101905061318c565b838111156131b6576000848401525b50505050565b600060028204905060018216806131d457607f821691505b602082108114156131e8576131e7613326565b5b50919050565b6131f782613384565b810181811067ffffffffffffffff8211171561321657613215613355565b5b80604052505050565b600061322a8261315e565b91507fffffffffffffffffffffffffffffffffffffffffffffffffffffffffffffffff82141561325d5761325c613299565b5b600182019050919050565b60006132738261315e565b915061327e8361315e565b92508261328e5761328d6132c8565b5b828206905092915050565b7f4e487b7100000000000000000000000000000000000000000000000000000000600052601160045260246000fd5b7f4e487b7100000000000000000000000000000000000000000000000000000000600052601260045260246000fd5b7f4e487b7100000000000000000000000000000000000000000000000000000000600052602160045260246000fd5b7f4e487b7100000000000000000000000000000000000000000000000000000000600052602260045260246000fd5b7f4e487b7100000000000000000000000000000000000000000000000000000000600052604160045260246000fd5b6000601f19601f8301169050919050565b7f4552433732313a207472616e7366657220746f206e6f6e20455243373231526560008201527f63656976657220696d706c656d656e7465720000000000000000000000000000602082015250565b7f4f776e61626c653a206e6577206f776e657220697320746865207a65726f206160008201527f6464726573730000000000000000000000000000000000000000000000000000602082015250565b7f4552433732313a20746f6b656e20616c7265616479206d696e74656400000000600082015250565b7f4552433732313a207472616e7366657220746f20746865207a65726f2061646460008201527f7265737300000000000000000000000000000000000000000000000000000000602082015250565b7f4552433732313a20617070726f766520746f2063616c6c657200000000000000600082015250565b7f4552433732313a206f70657261746f7220717565727920666f72206e6f6e657860008201527f697374656e7420746f6b656e0000000000000000000000000000000000000000602082015250565b7f4552433732313a20617070726f76652063616c6c6572206973206e6f74206f7760008201527f6e6572206e6f7220617070726f76656420666f7220616c6c0000000000000000602082015250565b7f4552433732313a2062616c616e636520717565727920666f7220746865207a6560008201527f726f206164647265737300000000000000000000000000000000000000000000602082015250565b7f4552433732313a206f776e657220717565727920666f72206e6f6e657869737460008201527f656e7420746f6b656e0000000000000000000000000000000000000000000000602082015250565b7f4552433732313a206d696e7420746f20746865207a65726f2061646472657373600082015250565b7f45524337323155524953746f726167653a2055524920717565727920666f722060008201527f6e6f6e6578697374656e7420746f6b656e000000000000000000000000000000602082015250565b7f4552433732313a20617070726f76656420717565727920666f72206e6f6e657860008201527f697374656e7420746f6b656e0000000000000000000000000000000000000000602082015250565b7f4f776e61626c653a2063616c6c6572206973206e6f7420746865206f776e6572600082015250565b7f4552433732313a207472616e73666572206f6620746f6b656e2074686174206960008201527f73206e6f74206f776e0000000000000000000000000000000000000000000000602082015250565b7f4552433732314d657461646174613a2055524920717565727920666f72206e6f60008201527f6e6578697374656e7420746f6b656e0000000000000000000000000000000000602082015250565b7f4552433732313a20617070726f76616c20746f2063757272656e74206f776e6560008201527f7200000000000000000000000000000000000000000000000000000000000000602082015250565b7f4552433732313a207472616e736665722063616c6c6572206973206e6f74206f60008201527f776e6572206e6f7220617070726f766564000000000000000000000000000000602082015250565b6003811061384d5761384c6132f7565b5b50565b613859816130e1565b811461386457600080fd5b50565b613870816130f3565b811461387b57600080fd5b50565b613887816130ff565b811461389257600080fd5b50565b61389e8161315e565b81146138a957600080fd5b5056fea2646970667358221220bc472a12adcb4cb3058a8cce75a0a931285548bbd8dc83e2c49245e05a47af9a64736f6c63430008040033",
  "immutableReferences": {},
  "source": "// SPDX-License-Identifier: MIT\n\npragma solidity ^0.8.0;\n\nimport \"@openzeppelin/contracts/access/Ownable.sol\";\nimport \"@openzeppelin/contracts/token/ERC721/extensions/ERC721URIStorage.sol\";\nimport \"@openzeppelin/contracts/utils/math/SafeMath.sol\";\n\ncontract Market is Ownable, ERC721URIStorage{\n\n  using SafeMath for uint;\n\n  enum State { ticketSaleNotStarted, ticketSaleStarted, ticketSaleEnded }\n\n  Event[] public events;\n  mapping (uint256 => address[]) public attendees;\n\n  struct Event {\n      uint256 eventID;\n      address organiser;\n      State currentState;\n      uint256 totalTicket;\n      uint256 ticketPrice;\n      uint256 firstTicketID; \n      uint256 currentTicketID;\n      uint256 lastTicketID;\n  }\n\n  uint256 private _currentEventId = 0;\n  uint256 private _currentTokenId = 0;\n  mapping (address => uint256) balances;\n  string private _base;\n\n  constructor() ERC721(\"NFT Tickets\", \"TIX\") {\n      _setBaseURI(\"https://ipfs.infura.io/ipfs/\");\n  }\n\n  function _setBaseURI(string memory _uri) private {\n      _base = _uri;\n  }\n\n  function _baseURI() internal view override returns (string memory) {\n      return _base;\n  }\n\n  function createEvent(uint256 _numTickets, uint256 _price) public {\n      events.push(Event(\n          _currentEventId, \n          msg.sender, \n          State.ticketSaleNotStarted, \n          _numTickets, \n          _price,\n          _currentTokenId,\n          _currentTokenId,\n          _currentTokenId.add(_numTickets).sub(1)));\n      createTickets(_numTickets);\n      emit eventCreated(_currentEventId, _numTickets, _price);\n      _incrementEventId();\n  }\n\n  function createTickets(uint256 _num) private returns(bool) {\n      for (uint i=0; i<_num; i++) {\n          _mint(msg.sender, _currentTokenId); \n          //_setTokenURI(_currentTokenId, _tokenURI);\n          _incrementTokenId();\n      }\n      return true;\n  }\n\n  // event organiser can withdraw funds from ticket sales\n  function withdraw() public {\n      payable(msg.sender).transfer(balances[msg.sender]);\n  }\n\n  function startTicketSale(uint256 _eventId) public {\n      Event storage selectedEvent = events[_eventId];\n      require(msg.sender == selectedEvent.organiser);\n      selectedEvent.currentState = State.ticketSaleStarted;\n  }\n\n  function endTicketSale(uint256 _eventId) public {\n      Event storage selectedEvent = events[_eventId];\n      require(msg.sender == selectedEvent.organiser);\n      selectedEvent.currentState = State.ticketSaleEnded;\n  }\n\n  function _incrementTokenId() private {\n      _currentTokenId++;\n  }\n\n  function _incrementEventId() private {\n      _currentEventId++;\n  }\n\n  // this function should be called by the buyer\n  function buyTicket(uint256 _eventId) public payable {\n      Event storage selectedEvent = events[_eventId];\n      //require(selectedEvent.currentState == State.ticketSaleStarted);\n      require(msg.value >= selectedEvent.ticketPrice);\n      uint256 tokenId = selectedEvent.currentTicketID;\n      require(tokenId <= selectedEvent.lastTicketID);\n      address seller = ownerOf(tokenId);\n      balances[seller] += msg.value;\n      attendees[_eventId].push(msg.sender);\n      _safeTransfer(seller, msg.sender, tokenId, \"\");\n      selectedEvent.currentTicketID++;\n      emit ticketTransferred(tokenId, msg.sender);\n  }\n\n  function getEventsLength() public view returns(uint) {\n      return events.length;\n  }\n\n  function getAttendeesLength(uint256 _eventId) public view returns(uint) {\n      return attendees[_eventId].length;\n  }\n\n  event ticketTransferred(uint256 _id, address _owner); //show the address of new owner\n  event eventCreated(uint256 _id, uint256 _numTickets, uint256 _price);\n\n}\n",
  "sourcePath": "C:\\Users\\Eer Kai Jun\\Documents\\tixlab-next-web3\\contracts\\Market.sol",
  "compiler": {
    "name": "solc",
    "version": "0.8.4+commit.c7e474f2.Emscripten.clang"
  },
  "schemaVersion": "3.4.3",
  "updatedAt": "2022-01-09T22:18:36.474Z",
  "networkType": "ethereum",
  "devdoc": {
    "kind": "dev",
    "methods": {
      "approve(address,uint256)": {
        "details": "See {IERC721-approve}."
      },
      "balanceOf(address)": {
        "details": "See {IERC721-balanceOf}."
      },
      "getApproved(uint256)": {
        "details": "See {IERC721-getApproved}."
      },
      "isApprovedForAll(address,address)": {
        "details": "See {IERC721-isApprovedForAll}."
      },
      "name()": {
        "details": "See {IERC721Metadata-name}."
      },
      "owner()": {
        "details": "Returns the address of the current owner."
      },
      "ownerOf(uint256)": {
        "details": "See {IERC721-ownerOf}."
      },
      "renounceOwnership()": {
        "details": "Leaves the contract without owner. It will not be possible to call `onlyOwner` functions anymore. Can only be called by the current owner. NOTE: Renouncing ownership will leave the contract without an owner, thereby removing any functionality that is only available to the owner."
      },
      "safeTransferFrom(address,address,uint256)": {
        "details": "See {IERC721-safeTransferFrom}."
      },
      "safeTransferFrom(address,address,uint256,bytes)": {
        "details": "See {IERC721-safeTransferFrom}."
      },
      "setApprovalForAll(address,bool)": {
        "details": "See {IERC721-setApprovalForAll}."
      },
      "supportsInterface(bytes4)": {
        "details": "See {IERC165-supportsInterface}."
      },
      "symbol()": {
        "details": "See {IERC721Metadata-symbol}."
      },
      "tokenURI(uint256)": {
        "details": "See {IERC721Metadata-tokenURI}."
      },
      "transferFrom(address,address,uint256)": {
        "details": "See {IERC721-transferFrom}."
      },
      "transferOwnership(address)": {
        "details": "Transfers ownership of the contract to a new account (`newOwner`). Can only be called by the current owner."
      }
    },
    "version": 1
  },
  "userdoc": {
    "kind": "user",
    "methods": {},
    "version": 1
  }
}