{
  "contractName": "Market",
  "abi": [
    {
      "inputs": [],
      "stateMutability": "nonpayable",
      "type": "constructor"
    },
    {
      "anonymous": false,
      "inputs": [
        {
          "indexed": true,
          "internalType": "address",
          "name": "account",
          "type": "address"
        },
        {
          "indexed": true,
          "internalType": "address",
          "name": "operator",
          "type": "address"
        },
        {
          "indexed": false,
          "internalType": "bool",
          "name": "approved",
          "type": "bool"
        }
      ],
      "name": "ApprovalForAll",
      "type": "event"
    },
    {
      "anonymous": false,
      "inputs": [
        {
          "indexed": true,
          "internalType": "address",
          "name": "previousOwner",
          "type": "address"
        },
        {
          "indexed": true,
          "internalType": "address",
          "name": "newOwner",
          "type": "address"
        }
      ],
      "name": "OwnershipTransferred",
      "type": "event"
    },
    {
      "anonymous": false,
      "inputs": [
        {
          "indexed": true,
          "internalType": "address",
          "name": "operator",
          "type": "address"
        },
        {
          "indexed": true,
          "internalType": "address",
          "name": "from",
          "type": "address"
        },
        {
          "indexed": true,
          "internalType": "address",
          "name": "to",
          "type": "address"
        },
        {
          "indexed": false,
          "internalType": "uint256[]",
          "name": "ids",
          "type": "uint256[]"
        },
        {
          "indexed": false,
          "internalType": "uint256[]",
          "name": "values",
          "type": "uint256[]"
        }
      ],
      "name": "TransferBatch",
      "type": "event"
    },
    {
      "anonymous": false,
      "inputs": [
        {
          "indexed": true,
          "internalType": "address",
          "name": "operator",
          "type": "address"
        },
        {
          "indexed": true,
          "internalType": "address",
          "name": "from",
          "type": "address"
        },
        {
          "indexed": true,
          "internalType": "address",
          "name": "to",
          "type": "address"
        },
        {
          "indexed": false,
          "internalType": "uint256",
          "name": "id",
          "type": "uint256"
        },
        {
          "indexed": false,
          "internalType": "uint256",
          "name": "value",
          "type": "uint256"
        }
      ],
      "name": "TransferSingle",
      "type": "event"
    },
    {
      "anonymous": false,
      "inputs": [
        {
          "indexed": false,
          "internalType": "string",
          "name": "value",
          "type": "string"
        },
        {
          "indexed": true,
          "internalType": "uint256",
          "name": "id",
          "type": "uint256"
        }
      ],
      "name": "URI",
      "type": "event"
    },
    {
      "anonymous": false,
      "inputs": [
        {
          "indexed": false,
          "internalType": "uint256",
          "name": "_id",
          "type": "uint256"
        },
        {
          "indexed": false,
          "internalType": "uint256",
          "name": "_numTickets",
          "type": "uint256"
        },
        {
          "indexed": false,
          "internalType": "uint256",
          "name": "_price",
          "type": "uint256"
        }
      ],
      "name": "eventCreated",
      "type": "event"
    },
    {
      "anonymous": false,
      "inputs": [
        {
          "indexed": false,
          "internalType": "uint256",
          "name": "_id",
          "type": "uint256"
        },
        {
          "indexed": false,
          "internalType": "address",
          "name": "_owner",
          "type": "address"
        }
      ],
      "name": "ticketTransferred",
      "type": "event"
    },
    {
      "inputs": [
        {
          "internalType": "uint256",
          "name": "",
          "type": "uint256"
        },
        {
          "internalType": "uint256",
          "name": "",
          "type": "uint256"
        }
      ],
      "name": "attendees",
      "outputs": [
        {
          "internalType": "address",
          "name": "",
          "type": "address"
        }
      ],
      "stateMutability": "view",
      "type": "function",
      "constant": true
    },
    {
      "inputs": [
        {
          "internalType": "address",
          "name": "account",
          "type": "address"
        },
        {
          "internalType": "uint256",
          "name": "id",
          "type": "uint256"
        }
      ],
      "name": "balanceOf",
      "outputs": [
        {
          "internalType": "uint256",
          "name": "",
          "type": "uint256"
        }
      ],
      "stateMutability": "view",
      "type": "function",
      "constant": true
    },
    {
      "inputs": [
        {
          "internalType": "address[]",
          "name": "accounts",
          "type": "address[]"
        },
        {
          "internalType": "uint256[]",
          "name": "ids",
          "type": "uint256[]"
        }
      ],
      "name": "balanceOfBatch",
      "outputs": [
        {
          "internalType": "uint256[]",
          "name": "",
          "type": "uint256[]"
        }
      ],
      "stateMutability": "view",
      "type": "function",
      "constant": true
    },
    {
      "inputs": [
        {
          "internalType": "uint256",
          "name": "",
          "type": "uint256"
        }
      ],
      "name": "events",
      "outputs": [
        {
          "internalType": "uint256",
          "name": "eventID",
          "type": "uint256"
        },
        {
          "internalType": "address",
          "name": "organiser",
          "type": "address"
        },
        {
          "internalType": "enum Market.State",
          "name": "currentState",
          "type": "uint8"
        },
        {
          "internalType": "uint256",
          "name": "totalTicket",
          "type": "uint256"
        },
        {
          "internalType": "uint256",
          "name": "ticketPrice",
          "type": "uint256"
        },
        {
          "internalType": "uint256",
          "name": "firstTicketID",
          "type": "uint256"
        },
        {
          "internalType": "uint256",
          "name": "currentTicketID",
          "type": "uint256"
        },
        {
          "internalType": "uint256",
          "name": "lastTicketID",
          "type": "uint256"
        },
        {
          "internalType": "string",
          "name": "initialTokenURI",
          "type": "string"
        }
      ],
      "stateMutability": "view",
      "type": "function",
      "constant": true
    },
    {
      "inputs": [
        {
          "internalType": "address",
          "name": "account",
          "type": "address"
        },
        {
          "internalType": "address",
          "name": "operator",
          "type": "address"
        }
      ],
      "name": "isApprovedForAll",
      "outputs": [
        {
          "internalType": "bool",
          "name": "",
          "type": "bool"
        }
      ],
      "stateMutability": "view",
      "type": "function",
      "constant": true
    },
    {
      "inputs": [],
      "name": "owner",
      "outputs": [
        {
          "internalType": "address",
          "name": "",
          "type": "address"
        }
      ],
      "stateMutability": "view",
      "type": "function",
      "constant": true
    },
    {
      "inputs": [],
      "name": "renounceOwnership",
      "outputs": [],
      "stateMutability": "nonpayable",
      "type": "function"
    },
    {
      "inputs": [
        {
          "internalType": "address",
          "name": "from",
          "type": "address"
        },
        {
          "internalType": "address",
          "name": "to",
          "type": "address"
        },
        {
          "internalType": "uint256[]",
          "name": "ids",
          "type": "uint256[]"
        },
        {
          "internalType": "uint256[]",
          "name": "amounts",
          "type": "uint256[]"
        },
        {
          "internalType": "bytes",
          "name": "data",
          "type": "bytes"
        }
      ],
      "name": "safeBatchTransferFrom",
      "outputs": [],
      "stateMutability": "nonpayable",
      "type": "function"
    },
    {
      "inputs": [
        {
          "internalType": "address",
          "name": "from",
          "type": "address"
        },
        {
          "internalType": "address",
          "name": "to",
          "type": "address"
        },
        {
          "internalType": "uint256",
          "name": "id",
          "type": "uint256"
        },
        {
          "internalType": "uint256",
          "name": "amount",
          "type": "uint256"
        },
        {
          "internalType": "bytes",
          "name": "data",
          "type": "bytes"
        }
      ],
      "name": "safeTransferFrom",
      "outputs": [],
      "stateMutability": "nonpayable",
      "type": "function"
    },
    {
      "inputs": [
        {
          "internalType": "address",
          "name": "operator",
          "type": "address"
        },
        {
          "internalType": "bool",
          "name": "approved",
          "type": "bool"
        }
      ],
      "name": "setApprovalForAll",
      "outputs": [],
      "stateMutability": "nonpayable",
      "type": "function"
    },
    {
      "inputs": [
        {
          "internalType": "bytes4",
          "name": "interfaceId",
          "type": "bytes4"
        }
      ],
      "name": "supportsInterface",
      "outputs": [
        {
          "internalType": "bool",
          "name": "",
          "type": "bool"
        }
      ],
      "stateMutability": "view",
      "type": "function",
      "constant": true
    },
    {
      "inputs": [
        {
          "internalType": "address",
          "name": "newOwner",
          "type": "address"
        }
      ],
      "name": "transferOwnership",
      "outputs": [],
      "stateMutability": "nonpayable",
      "type": "function"
    },
    {
      "inputs": [
        {
          "internalType": "uint256",
          "name": "tokenId",
          "type": "uint256"
        }
      ],
      "name": "uri",
      "outputs": [
        {
          "internalType": "string",
          "name": "",
          "type": "string"
        }
      ],
      "stateMutability": "view",
      "type": "function",
      "constant": true
    },
    {
      "inputs": [
        {
          "internalType": "uint256",
          "name": "_numTickets",
          "type": "uint256"
        },
        {
          "internalType": "uint256",
          "name": "_price",
          "type": "uint256"
        },
        {
          "internalType": "string",
          "name": "_tokenURI",
          "type": "string"
        }
      ],
      "name": "createEvent",
      "outputs": [],
      "stateMutability": "nonpayable",
      "type": "function"
    },
    {
      "inputs": [],
      "name": "withdraw",
      "outputs": [],
      "stateMutability": "nonpayable",
      "type": "function"
    },
    {
      "inputs": [
        {
          "internalType": "uint256",
          "name": "_eventId",
          "type": "uint256"
        }
      ],
      "name": "startTicketSale",
      "outputs": [],
      "stateMutability": "nonpayable",
      "type": "function"
    },
    {
      "inputs": [
        {
          "internalType": "uint256",
          "name": "_eventId",
          "type": "uint256"
        }
      ],
      "name": "endTicketSale",
      "outputs": [],
      "stateMutability": "nonpayable",
      "type": "function"
    },
    {
      "inputs": [
        {
          "internalType": "uint256",
          "name": "_eventId",
          "type": "uint256"
        },
        {
          "internalType": "string",
          "name": "_ticketUri",
          "type": "string"
        }
      ],
      "name": "buyTicket",
      "outputs": [],
      "stateMutability": "payable",
      "type": "function",
      "payable": true
    },
    {
      "inputs": [],
      "name": "getEventsLength",
      "outputs": [
        {
          "internalType": "uint256",
          "name": "",
          "type": "uint256"
        }
      ],
      "stateMutability": "view",
      "type": "function",
      "constant": true
    },
    {
      "inputs": [
        {
          "internalType": "uint256",
          "name": "_eventId",
          "type": "uint256"
        }
      ],
      "name": "getAttendeesLength",
      "outputs": [
        {
          "internalType": "uint256",
          "name": "",
          "type": "uint256"
        }
      ],
      "stateMutability": "view",
      "type": "function",
      "constant": true
    }
  ],
  "bytecode": "0x6080604052600060075560006008553480156200001b57600080fd5b5060405180608001604052806045815260200162003d516045913962000047816200006e60201b60201c565b50620000686200005c6200008a60201b60201c565b6200009260201b60201c565b6200026d565b80600290805190602001906200008692919062000158565b5050565b600033905090565b6000600360009054906101000a900473ffffffffffffffffffffffffffffffffffffffff16905081600360006101000a81548173ffffffffffffffffffffffffffffffffffffffff021916908373ffffffffffffffffffffffffffffffffffffffff1602179055508173ffffffffffffffffffffffffffffffffffffffff168173ffffffffffffffffffffffffffffffffffffffff167f8be0079c531659141344cd1fd0a4f28419497f9722a3daafe3b4186f6b6457e060405160405180910390a35050565b828054620001669062000208565b90600052602060002090601f0160209004810192826200018a5760008555620001d6565b82601f10620001a557805160ff1916838001178555620001d6565b82800160010185558215620001d6579182015b82811115620001d5578251825591602001919060010190620001b8565b5b509050620001e59190620001e9565b5090565b5b8082111562000204576000816000905550600101620001ea565b5090565b600060028204905060018216806200022157607f821691505b602082108114156200023857620002376200023e565b5b50919050565b7f4e487b7100000000000000000000000000000000000000000000000000000000600052602260045260246000fd5b613ad4806200027d6000396000f3fe60806040526004361061011e5760003560e01c8063715018a6116100a0578063c9b2264c11610064578063c9b2264c146103dd578063dac44d871461041a578063e985e9c514610443578063f242432a14610480578063f2fde38b146104a95761011e565b8063715018a6146103195780638da5cb5b146103305780639afb93cb1461035b578063a22cb46514610377578063adadcfef146103a05761011e565b8063294e0d56116100e7578063294e0d56146102485780632eb2c2d6146102715780633ccfd60b1461029a57806347fc216e146102b15780634e1273f4146102dc5761011e565b8062fdd58e1461012357806301ffc9a7146101605780630b7914301461019d5780630e89341c146101e25780631c5f9a9c1461021f575b600080fd5b34801561012f57600080fd5b5061014a6004803603810190610145919061271b565b6104d2565b6040516101579190612fb5565b60405180910390f35b34801561016c57600080fd5b50610187600480360381019061018291906127d3565b61059b565b6040516101949190612db8565b60405180910390f35b3480156101a957600080fd5b506101c460048036038101906101bf919061282d565b61067d565b6040516101d999989796959493929190612ff9565b60405180910390f35b3480156101ee57600080fd5b506102096004803603810190610204919061282d565b610790565b6040516102169190612dd3565b60405180910390f35b34801561022b57600080fd5b506102466004803603810190610241919061282d565b610835565b005b34801561025457600080fd5b5061026f600480360381019061026a91906128f6565b6108e8565b005b34801561027d57600080fd5b5061029860048036038101906102939190612575565b610ad1565b005b3480156102a657600080fd5b506102af610b72565b005b3480156102bd57600080fd5b506102c6610bfa565b6040516102d39190612fb5565b60405180910390f35b3480156102e857600080fd5b5061030360048036038101906102fe919061275b565b610c07565b6040516103109190612d5f565b60405180910390f35b34801561032557600080fd5b5061032e610d20565b005b34801561033c57600080fd5b50610345610da8565b6040516103529190612c82565b60405180910390f35b6103756004803603810190610370919061285a565b610dd2565b005b34801561038357600080fd5b5061039e600480360381019061039991906126db565b610efa565b005b3480156103ac57600080fd5b506103c760048036038101906103c2919061282d565b610f10565b6040516103d49190612fb5565b60405180910390f35b3480156103e957600080fd5b5061040460048036038101906103ff91906128b6565b610f30565b6040516104119190612c82565b60405180910390f35b34801561042657600080fd5b50610441600480360381019061043c919061282d565b610f7e565b005b34801561044f57600080fd5b5061046a60048036038101906104659190612535565b611031565b6040516104779190612db8565b60405180910390f35b34801561048c57600080fd5b506104a760048036038101906104a29190612644565b6110c5565b005b3480156104b557600080fd5b506104d060048036038101906104cb9190612508565b611166565b005b60008073ffffffffffffffffffffffffffffffffffffffff168373ffffffffffffffffffffffffffffffffffffffff161415610543576040517f08c379a000000000000000000000000000000000000000000000000000000000815260040161053a90612e35565b60405180910390fd5b60008083815260200190815260200160002060008473ffffffffffffffffffffffffffffffffffffffff1673ffffffffffffffffffffffffffffffffffffffff16815260200190815260200160002054905092915050565b60007fd9b67a26000000000000000000000000000000000000000000000000000000007bffffffffffffffffffffffffffffffffffffffffffffffffffffffff1916827bffffffffffffffffffffffffffffffffffffffffffffffffffffffff1916148061066657507f0e89341c000000000000000000000000000000000000000000000000000000007bffffffffffffffffffffffffffffffffffffffffffffffffffffffff1916827bffffffffffffffffffffffffffffffffffffffffffffffffffffffff1916145b8061067657506106758261125e565b5b9050919050565b6005818154811061068d57600080fd5b90600052602060002090600802016000915090508060000154908060010160009054906101000a900473ffffffffffffffffffffffffffffffffffffffff16908060010160149054906101000a900460ff169080600201549080600301549080600401549080600501549080600601549080600701805461070d906133a2565b80601f0160208091040260200160405190810160405280929190818152602001828054610739906133a2565b80156107865780601f1061075b57610100808354040283529160200191610786565b820191906000526020600020905b81548152906001019060200180831161076957829003601f168201915b5050505050905089565b60606004600083815260200190815260200160002080546107b0906133a2565b80601f01602080910402602001604051908101604052809291908181526020018280546107dc906133a2565b80156108295780601f106107fe57610100808354040283529160200191610829565b820191906000526020600020905b81548152906001019060200180831161080c57829003601f168201915b50505050509050919050565b60006005828154811061084b5761084a6134db565b5b906000526020600020906008020190508060010160009054906101000a900473ffffffffffffffffffffffffffffffffffffffff1673ffffffffffffffffffffffffffffffffffffffff163373ffffffffffffffffffffffffffffffffffffffff16146108b757600080fd5b60018160010160146101000a81548160ff021916908360028111156108df576108de61347d565b5b02179055505050565b600560405180610120016040528060075481526020013373ffffffffffffffffffffffffffffffffffffffff1681526020016000600281111561092e5761092d61347d565b5b8152602001858152602001848152602001600854815260200160085481526020016109776001610969886008546112c890919063ffffffff16565b6112de90919063ffffffff16565b81526020018381525090806001815401808255809150506001900390600052602060002090600802016000909190919091506000820151816000015560208201518160010160006101000a81548173ffffffffffffffffffffffffffffffffffffffff021916908373ffffffffffffffffffffffffffffffffffffffff16021790555060408201518160010160146101000a81548160ff02191690836002811115610a2557610a2461347d565b5b0217905550606082015181600201556080820151816003015560a0820151816004015560c0820151816005015560e08201518160060155610100820151816007019080519060200190610a799291906121e0565b505050610a8683826112f4565b507f510309c3e6be414884b8f9842a0f181fef1b2bb405bb05840d1ce0096d09cef86007548484604051610abc939291906130b6565b60405180910390a1610acc611354565b505050565b610ad961136e565b73ffffffffffffffffffffffffffffffffffffffff168573ffffffffffffffffffffffffffffffffffffffff161480610b1f5750610b1e85610b1961136e565b611031565b5b610b5e576040517f08c379a0000000000000000000000000000000000000000000000000000000008152600401610b5590612eb5565b60405180910390fd5b610b6b8585858585611376565b5050505050565b3373ffffffffffffffffffffffffffffffffffffffff166108fc600960003373ffffffffffffffffffffffffffffffffffffffff1673ffffffffffffffffffffffffffffffffffffffff168152602001908152602001600020549081150290604051600060405180830381858888f19350505050158015610bf7573d6000803e3d6000fd5b50565b6000600580549050905090565b60608151835114610c4d576040517f08c379a0000000000000000000000000000000000000000000000000000000008152600401610c4490612f55565b60405180910390fd5b6000835167ffffffffffffffff811115610c6a57610c6961350a565b5b604051908082528060200260200182016040528015610c985781602001602082028036833780820191505090505b50905060005b8451811015610d1557610ce5858281518110610cbd57610cbc6134db565b5b6020026020010151858381518110610cd857610cd76134db565b5b60200260200101516104d2565b828281518110610cf857610cf76134db565b5b60200260200101818152505080610d0e90613405565b9050610c9e565b508091505092915050565b610d2861136e565b73ffffffffffffffffffffffffffffffffffffffff16610d46610da8565b73ffffffffffffffffffffffffffffffffffffffff1614610d9c576040517f08c379a0000000000000000000000000000000000000000000000000000000008152600401610d9390612f15565b60405180910390fd5b610da6600061168a565b565b6000600360009054906101000a900473ffffffffffffffffffffffffffffffffffffffff16905090565b600060058381548110610de857610de76134db565b5b906000526020600020906008020190508060030154341015610e0957600080fd5b6000816005015490508160060154811115610e2357600080fd5b610e2d8184611750565b60066000858152602001908152602001600020339080600181540180825580915050600190039060005260206000200160009091909190916101000a81548173ffffffffffffffffffffffffffffffffffffffff021916908373ffffffffffffffffffffffffffffffffffffffff160217905550816005016000815480929190610eb690613405565b91905055507f1a16bc699ce0f6ccd4b93e7dc6f592ff10f75af2aa2e0a7346adbc317943749a8133604051610eec929190612fd0565b60405180910390a150505050565b610f0c610f0561136e565b83836117de565b5050565b600060066000838152602001908152602001600020805490509050919050565b60066020528160005260406000208181548110610f4c57600080fd5b906000526020600020016000915091509054906101000a900473ffffffffffffffffffffffffffffffffffffffff1681565b600060058281548110610f9457610f936134db565b5b906000526020600020906008020190508060010160009054906101000a900473ffffffffffffffffffffffffffffffffffffffff1673ffffffffffffffffffffffffffffffffffffffff163373ffffffffffffffffffffffffffffffffffffffff161461100057600080fd5b60028160010160146101000a81548160ff021916908360028111156110285761102761347d565b5b02179055505050565b6000600160008473ffffffffffffffffffffffffffffffffffffffff1673ffffffffffffffffffffffffffffffffffffffff16815260200190815260200160002060008373ffffffffffffffffffffffffffffffffffffffff1673ffffffffffffffffffffffffffffffffffffffff16815260200190815260200160002060009054906101000a900460ff16905092915050565b6110cd61136e565b73ffffffffffffffffffffffffffffffffffffffff168573ffffffffffffffffffffffffffffffffffffffff16148061111357506111128561110d61136e565b611031565b5b611152576040517f08c379a000000000000000000000000000000000000000000000000000000000815260040161114990612e75565b60405180910390fd5b61115f858585858561194b565b5050505050565b61116e61136e565b73ffffffffffffffffffffffffffffffffffffffff1661118c610da8565b73ffffffffffffffffffffffffffffffffffffffff16146111e2576040517f08c379a00000000000000000000000000000000000000000000000000000000081526004016111d990612f15565b60405180910390fd5b600073ffffffffffffffffffffffffffffffffffffffff168173ffffffffffffffffffffffffffffffffffffffff161415611252576040517f08c379a000000000000000000000000000000000000000000000000000000000815260040161124990612e55565b60405180910390fd5b61125b8161168a565b50565b60007f01ffc9a7000000000000000000000000000000000000000000000000000000007bffffffffffffffffffffffffffffffffffffffffffffffffffffffff1916827bffffffffffffffffffffffffffffffffffffffffffffffffffffffff1916149050919050565b600081836112d6919061323d565b905092915050565b600081836112ec9190613293565b905092915050565b600080600090505b838110156113495761132233600854600160405180602001604052806000815250611bcd565b61132e60085484611750565b611336611d63565b808061134190613405565b9150506112fc565b506001905092915050565b6007600081548092919061136790613405565b9190505550565b600033905090565b81518351146113ba576040517f08c379a00000000000000000000000000000000000000000000000000000000081526004016113b190612f75565b60405180910390fd5b600073ffffffffffffffffffffffffffffffffffffffff168473ffffffffffffffffffffffffffffffffffffffff16141561142a576040517f08c379a000000000000000000000000000000000000000000000000000000000815260040161142190612e95565b60405180910390fd5b600061143461136e565b9050611444818787878787611d7d565b60005b84518110156115f5576000858281518110611465576114646134db565b5b602002602001015190506000858381518110611484576114836134db565b5b60200260200101519050600080600084815260200190815260200160002060008b73ffffffffffffffffffffffffffffffffffffffff1673ffffffffffffffffffffffffffffffffffffffff16815260200190815260200160002054905081811015611525576040517f08c379a000000000000000000000000000000000000000000000000000000000815260040161151c90612ef5565b60405180910390fd5b81810360008085815260200190815260200160002060008c73ffffffffffffffffffffffffffffffffffffffff1673ffffffffffffffffffffffffffffffffffffffff168152602001908152602001600020819055508160008085815260200190815260200160002060008b73ffffffffffffffffffffffffffffffffffffffff1673ffffffffffffffffffffffffffffffffffffffff16815260200190815260200160002060008282546115da919061323d565b92505081905550505050806115ee90613405565b9050611447565b508473ffffffffffffffffffffffffffffffffffffffff168673ffffffffffffffffffffffffffffffffffffffff168273ffffffffffffffffffffffffffffffffffffffff167f4a39dc06d4c0dbc64b70af90fd698a233a518aa5d07e595d983b8c0526c8f7fb878760405161166c929190612d81565b60405180910390a4611682818787878787611d85565b505050505050565b6000600360009054906101000a900473ffffffffffffffffffffffffffffffffffffffff16905081600360006101000a81548173ffffffffffffffffffffffffffffffffffffffff021916908373ffffffffffffffffffffffffffffffffffffffff1602179055508173ffffffffffffffffffffffffffffffffffffffff168173ffffffffffffffffffffffffffffffffffffffff167f8be0079c531659141344cd1fd0a4f28419497f9722a3daafe3b4186f6b6457e060405160405180910390a35050565b6000600460008481526020019081526020016000208054611770906133a2565b9050146117b2576040517f08c379a00000000000000000000000000000000000000000000000000000000081526004016117a990612ed5565b60405180910390fd5b806004600084815260200190815260200160002090805190602001906117d99291906121e0565b505050565b8173ffffffffffffffffffffffffffffffffffffffff168373ffffffffffffffffffffffffffffffffffffffff16141561184d576040517f08c379a000000000000000000000000000000000000000000000000000000000815260040161184490612f35565b60405180910390fd5b80600160008573ffffffffffffffffffffffffffffffffffffffff1673ffffffffffffffffffffffffffffffffffffffff16815260200190815260200160002060008473ffffffffffffffffffffffffffffffffffffffff1673ffffffffffffffffffffffffffffffffffffffff16815260200190815260200160002060006101000a81548160ff0219169083151502179055508173ffffffffffffffffffffffffffffffffffffffff168373ffffffffffffffffffffffffffffffffffffffff167f17307eab39ab6107e8899845ad3d59bd9653f200f220920489ca2b5937696c318360405161193e9190612db8565b60405180910390a3505050565b600073ffffffffffffffffffffffffffffffffffffffff168473ffffffffffffffffffffffffffffffffffffffff1614156119bb576040517f08c379a00000000000000000000000000000000000000000000000000000000081526004016119b290612e95565b60405180910390fd5b60006119c561136e565b90506119e58187876119d688611f6c565b6119df88611f6c565b87611d7d565b600080600086815260200190815260200160002060008873ffffffffffffffffffffffffffffffffffffffff1673ffffffffffffffffffffffffffffffffffffffff16815260200190815260200160002054905083811015611a7c576040517f08c379a0000000000000000000000000000000000000000000000000000000008152600401611a7390612ef5565b60405180910390fd5b83810360008087815260200190815260200160002060008973ffffffffffffffffffffffffffffffffffffffff1673ffffffffffffffffffffffffffffffffffffffff168152602001908152602001600020819055508360008087815260200190815260200160002060008873ffffffffffffffffffffffffffffffffffffffff1673ffffffffffffffffffffffffffffffffffffffff1681526020019081526020016000206000828254611b31919061323d565b925050819055508573ffffffffffffffffffffffffffffffffffffffff168773ffffffffffffffffffffffffffffffffffffffff168373ffffffffffffffffffffffffffffffffffffffff167fc3d58168c5ae7397731d063d5bbf3d657854427343f4c083240f7aacaa2d0f628888604051611bae92919061308d565b60405180910390a4611bc4828888888888611fe6565b50505050505050565b600073ffffffffffffffffffffffffffffffffffffffff168473ffffffffffffffffffffffffffffffffffffffff161415611c3d576040517f08c379a0000000000000000000000000000000000000000000000000000000008152600401611c3490612f95565b60405180910390fd5b6000611c4761136e565b9050611c6881600087611c5988611f6c565b611c6288611f6c565b87611d7d565b8260008086815260200190815260200160002060008773ffffffffffffffffffffffffffffffffffffffff1673ffffffffffffffffffffffffffffffffffffffff1681526020019081526020016000206000828254611cc7919061323d565b925050819055508473ffffffffffffffffffffffffffffffffffffffff16600073ffffffffffffffffffffffffffffffffffffffff168273ffffffffffffffffffffffffffffffffffffffff167fc3d58168c5ae7397731d063d5bbf3d657854427343f4c083240f7aacaa2d0f628787604051611d4592919061308d565b60405180910390a4611d5c81600087878787611fe6565b5050505050565b60086000815480929190611d7690613405565b9190505550565b505050505050565b611da48473ffffffffffffffffffffffffffffffffffffffff166121cd565b15611f64578373ffffffffffffffffffffffffffffffffffffffff1663bc197c8187878686866040518663ffffffff1660e01b8152600401611dea959493929190612c9d565b602060405180830381600087803b158015611e0457600080fd5b505af1925050508015611e3557506040513d601f19601f82011682018060405250810190611e329190612800565b60015b611edb57611e41613539565b806308c379a01415611e9e5750611e56613998565b80611e615750611ea0565b806040517f08c379a0000000000000000000000000000000000000000000000000000000008152600401611e959190612dd3565b60405180910390fd5b505b6040517f08c379a0000000000000000000000000000000000000000000000000000000008152600401611ed290612df5565b60405180910390fd5b63bc197c8160e01b7bffffffffffffffffffffffffffffffffffffffffffffffffffffffff1916817bffffffffffffffffffffffffffffffffffffffffffffffffffffffff191614611f62576040517f08c379a0000000000000000000000000000000000000000000000000000000008152600401611f5990612e15565b60405180910390fd5b505b505050505050565b60606000600167ffffffffffffffff811115611f8b57611f8a61350a565b5b604051908082528060200260200182016040528015611fb95781602001602082028036833780820191505090505b5090508281600081518110611fd157611fd06134db565b5b60200260200101818152505080915050919050565b6120058473ffffffffffffffffffffffffffffffffffffffff166121cd565b156121c5578373ffffffffffffffffffffffffffffffffffffffff1663f23a6e6187878686866040518663ffffffff1660e01b815260040161204b959493929190612d05565b602060405180830381600087803b15801561206557600080fd5b505af192505050801561209657506040513d601f19601f820116820180604052508101906120939190612800565b60015b61213c576120a2613539565b806308c379a014156120ff57506120b7613998565b806120c25750612101565b806040517f08c379a00000000000000000000000000000000000000000000000000000000081526004016120f69190612dd3565b60405180910390fd5b505b6040517f08c379a000000000000000000000000000000000000000000000000000000000815260040161213390612df5565b60405180910390fd5b63f23a6e6160e01b7bffffffffffffffffffffffffffffffffffffffffffffffffffffffff1916817bffffffffffffffffffffffffffffffffffffffffffffffffffffffff1916146121c3576040517f08c379a00000000000000000000000000000000000000000000000000000000081526004016121ba90612e15565b60405180910390fd5b505b505050505050565b600080823b905060008111915050919050565b8280546121ec906133a2565b90600052602060002090601f01602090048101928261220e5760008555612255565b82601f1061222757805160ff1916838001178555612255565b82800160010185558215612255579182015b82811115612254578251825591602001919060010190612239565b5b5090506122629190612266565b5090565b5b8082111561227f576000816000905550600101612267565b5090565b600061229661229184613112565b6130ed565b905080838252602082019050828560208602820111156122b9576122b8613560565b5b60005b858110156122e957816122cf88826123e7565b8452602084019350602083019250506001810190506122bc565b5050509392505050565b60006123066123018461313e565b6130ed565b9050808382526020820190508285602086028201111561232957612328613560565b5b60005b85811015612359578161233f88826124f3565b84526020840193506020830192505060018101905061232c565b5050509392505050565b60006123766123718461316a565b6130ed565b90508281526020810184848401111561239257612391613565565b5b61239d848285613360565b509392505050565b60006123b86123b38461319b565b6130ed565b9050828152602081018484840111156123d4576123d3613565565b5b6123df848285613360565b509392505050565b6000813590506123f681613a42565b92915050565b600082601f8301126124115761241061355b565b5b8135612421848260208601612283565b91505092915050565b600082601f83011261243f5761243e61355b565b5b813561244f8482602086016122f3565b91505092915050565b60008135905061246781613a59565b92915050565b60008135905061247c81613a70565b92915050565b60008151905061249181613a70565b92915050565b600082601f8301126124ac576124ab61355b565b5b81356124bc848260208601612363565b91505092915050565b600082601f8301126124da576124d961355b565b5b81356124ea8482602086016123a5565b91505092915050565b60008135905061250281613a87565b92915050565b60006020828403121561251e5761251d61356f565b5b600061252c848285016123e7565b91505092915050565b6000806040838503121561254c5761254b61356f565b5b600061255a858286016123e7565b925050602061256b858286016123e7565b9150509250929050565b600080600080600060a086880312156125915761259061356f565b5b600061259f888289016123e7565b95505060206125b0888289016123e7565b945050604086013567ffffffffffffffff8111156125d1576125d061356a565b5b6125dd8882890161242a565b935050606086013567ffffffffffffffff8111156125fe576125fd61356a565b5b61260a8882890161242a565b925050608086013567ffffffffffffffff81111561262b5761262a61356a565b5b61263788828901612497565b9150509295509295909350565b600080600080600060a086880312156126605761265f61356f565b5b600061266e888289016123e7565b955050602061267f888289016123e7565b9450506040612690888289016124f3565b93505060606126a1888289016124f3565b925050608086013567ffffffffffffffff8111156126c2576126c161356a565b5b6126ce88828901612497565b9150509295509295909350565b600080604083850312156126f2576126f161356f565b5b6000612700858286016123e7565b925050602061271185828601612458565b9150509250929050565b600080604083850312156127325761273161356f565b5b6000612740858286016123e7565b9250506020612751858286016124f3565b9150509250929050565b600080604083850312156127725761277161356f565b5b600083013567ffffffffffffffff8111156127905761278f61356a565b5b61279c858286016123fc565b925050602083013567ffffffffffffffff8111156127bd576127bc61356a565b5b6127c98582860161242a565b9150509250929050565b6000602082840312156127e9576127e861356f565b5b60006127f78482850161246d565b91505092915050565b6000602082840312156128165761281561356f565b5b600061282484828501612482565b91505092915050565b6000602082840312156128435761284261356f565b5b6000612851848285016124f3565b91505092915050565b600080604083850312156128715761287061356f565b5b600061287f858286016124f3565b925050602083013567ffffffffffffffff8111156128a05761289f61356a565b5b6128ac858286016124c5565b9150509250929050565b600080604083850312156128cd576128cc61356f565b5b60006128db858286016124f3565b92505060206128ec858286016124f3565b9150509250929050565b60008060006060848603121561290f5761290e61356f565b5b600061291d868287016124f3565b935050602061292e868287016124f3565b925050604084013567ffffffffffffffff81111561294f5761294e61356a565b5b61295b868287016124c5565b9150509250925092565b60006129718383612c64565b60208301905092915050565b612986816132c7565b82525050565b6000612997826131dc565b6129a1818561320a565b93506129ac836131cc565b8060005b838110156129dd5781516129c48882612965565b97506129cf836131fd565b9250506001810190506129b0565b5085935050505092915050565b6129f3816132d9565b82525050565b6000612a04826131e7565b612a0e818561321b565b9350612a1e81856020860161336f565b612a2781613574565b840191505092915050565b612a3b8161334e565b82525050565b6000612a4c826131f2565b612a56818561322c565b9350612a6681856020860161336f565b612a6f81613574565b840191505092915050565b6000612a8760348361322c565b9150612a9282613592565b604082019050919050565b6000612aaa60288361322c565b9150612ab5826135e1565b604082019050919050565b6000612acd602b8361322c565b9150612ad882613630565b604082019050919050565b6000612af060268361322c565b9150612afb8261367f565b604082019050919050565b6000612b1360298361322c565b9150612b1e826136ce565b604082019050919050565b6000612b3660258361322c565b9150612b418261371d565b604082019050919050565b6000612b5960328361322c565b9150612b648261376c565b604082019050919050565b6000612b7c60148361322c565b9150612b87826137bb565b602082019050919050565b6000612b9f602a8361322c565b9150612baa826137e4565b604082019050919050565b6000612bc260208361322c565b9150612bcd82613833565b602082019050919050565b6000612be560298361322c565b9150612bf08261385c565b604082019050919050565b6000612c0860298361322c565b9150612c13826138ab565b604082019050919050565b6000612c2b60288361322c565b9150612c36826138fa565b604082019050919050565b6000612c4e60218361322c565b9150612c5982613949565b604082019050919050565b612c6d81613344565b82525050565b612c7c81613344565b82525050565b6000602082019050612c97600083018461297d565b92915050565b600060a082019050612cb2600083018861297d565b612cbf602083018761297d565b8181036040830152612cd1818661298c565b90508181036060830152612ce5818561298c565b90508181036080830152612cf981846129f9565b90509695505050505050565b600060a082019050612d1a600083018861297d565b612d27602083018761297d565b612d346040830186612c73565b612d416060830185612c73565b8181036080830152612d5381846129f9565b90509695505050505050565b60006020820190508181036000830152612d79818461298c565b905092915050565b60006040820190508181036000830152612d9b818561298c565b90508181036020830152612daf818461298c565b90509392505050565b6000602082019050612dcd60008301846129ea565b92915050565b60006020820190508181036000830152612ded8184612a41565b905092915050565b60006020820190508181036000830152612e0e81612a7a565b9050919050565b60006020820190508181036000830152612e2e81612a9d565b9050919050565b60006020820190508181036000830152612e4e81612ac0565b9050919050565b60006020820190508181036000830152612e6e81612ae3565b9050919050565b60006020820190508181036000830152612e8e81612b06565b9050919050565b60006020820190508181036000830152612eae81612b29565b9050919050565b60006020820190508181036000830152612ece81612b4c565b9050919050565b60006020820190508181036000830152612eee81612b6f565b9050919050565b60006020820190508181036000830152612f0e81612b92565b9050919050565b60006020820190508181036000830152612f2e81612bb5565b9050919050565b60006020820190508181036000830152612f4e81612bd8565b9050919050565b60006020820190508181036000830152612f6e81612bfb565b9050919050565b60006020820190508181036000830152612f8e81612c1e565b9050919050565b60006020820190508181036000830152612fae81612c41565b9050919050565b6000602082019050612fca6000830184612c73565b92915050565b6000604082019050612fe56000830185612c73565b612ff2602083018461297d565b9392505050565b60006101208201905061300f600083018c612c73565b61301c602083018b61297d565b613029604083018a612a32565b6130366060830189612c73565b6130436080830188612c73565b61305060a0830187612c73565b61305d60c0830186612c73565b61306a60e0830185612c73565b81810361010083015261307d8184612a41565b90509a9950505050505050505050565b60006040820190506130a26000830185612c73565b6130af6020830184612c73565b9392505050565b60006060820190506130cb6000830186612c73565b6130d86020830185612c73565b6130e56040830184612c73565b949350505050565b60006130f7613108565b905061310382826133d4565b919050565b6000604051905090565b600067ffffffffffffffff82111561312d5761312c61350a565b5b602082029050602081019050919050565b600067ffffffffffffffff8211156131595761315861350a565b5b602082029050602081019050919050565b600067ffffffffffffffff8211156131855761318461350a565b5b61318e82613574565b9050602081019050919050565b600067ffffffffffffffff8211156131b6576131b561350a565b5b6131bf82613574565b9050602081019050919050565b6000819050602082019050919050565b600081519050919050565b600081519050919050565b600081519050919050565b6000602082019050919050565b600082825260208201905092915050565b600082825260208201905092915050565b600082825260208201905092915050565b600061324882613344565b915061325383613344565b9250827fffffffffffffffffffffffffffffffffffffffffffffffffffffffffffffffff038211156132885761328761344e565b5b828201905092915050565b600061329e82613344565b91506132a983613344565b9250828210156132bc576132bb61344e565b5b828203905092915050565b60006132d282613324565b9050919050565b60008115159050919050565b60007fffffffff0000000000000000000000000000000000000000000000000000000082169050919050565b600081905061331f82613a2e565b919050565b600073ffffffffffffffffffffffffffffffffffffffff82169050919050565b6000819050919050565b600061335982613311565b9050919050565b82818337600083830152505050565b60005b8381101561338d578082015181840152602081019050613372565b8381111561339c576000848401525b50505050565b600060028204905060018216806133ba57607f821691505b602082108114156133ce576133cd6134ac565b5b50919050565b6133dd82613574565b810181811067ffffffffffffffff821117156133fc576133fb61350a565b5b80604052505050565b600061341082613344565b91507fffffffffffffffffffffffffffffffffffffffffffffffffffffffffffffffff8214156134435761344261344e565b5b600182019050919050565b7f4e487b7100000000000000000000000000000000000000000000000000000000600052601160045260246000fd5b7f4e487b7100000000000000000000000000000000000000000000000000000000600052602160045260246000fd5b7f4e487b7100000000000000000000000000000000000000000000000000000000600052602260045260246000fd5b7f4e487b7100000000000000000000000000000000000000000000000000000000600052603260045260246000fd5b7f4e487b7100000000000000000000000000000000000000000000000000000000600052604160045260246000fd5b600060033d11156135585760046000803e613555600051613585565b90505b90565b600080fd5b600080fd5b600080fd5b600080fd5b600080fd5b6000601f19601f8301169050919050565b60008160e01c9050919050565b7f455243313135353a207472616e7366657220746f206e6f6e204552433131353560008201527f526563656976657220696d706c656d656e746572000000000000000000000000602082015250565b7f455243313135353a204552433131353552656365697665722072656a6563746560008201527f6420746f6b656e73000000000000000000000000000000000000000000000000602082015250565b7f455243313135353a2062616c616e636520717565727920666f7220746865207a60008201527f65726f2061646472657373000000000000000000000000000000000000000000602082015250565b7f4f776e61626c653a206e6577206f776e657220697320746865207a65726f206160008201527f6464726573730000000000000000000000000000000000000000000000000000602082015250565b7f455243313135353a2063616c6c6572206973206e6f74206f776e6572206e6f7260008201527f20617070726f7665640000000000000000000000000000000000000000000000602082015250565b7f455243313135353a207472616e7366657220746f20746865207a65726f20616460008201527f6472657373000000000000000000000000000000000000000000000000000000602082015250565b7f455243313135353a207472616e736665722063616c6c6572206973206e6f742060008201527f6f776e6572206e6f7220617070726f7665640000000000000000000000000000602082015250565b7f43616e6e6f742073657420757269207477696365000000000000000000000000600082015250565b7f455243313135353a20696e73756666696369656e742062616c616e636520666f60008201527f72207472616e7366657200000000000000000000000000000000000000000000602082015250565b7f4f776e61626c653a2063616c6c6572206973206e6f7420746865206f776e6572600082015250565b7f455243313135353a2073657474696e6720617070726f76616c2073746174757360008201527f20666f722073656c660000000000000000000000000000000000000000000000602082015250565b7f455243313135353a206163636f756e747320616e6420696473206c656e67746860008201527f206d69736d617463680000000000000000000000000000000000000000000000602082015250565b7f455243313135353a2069647320616e6420616d6f756e7473206c656e6774682060008201527f6d69736d61746368000000000000000000000000000000000000000000000000602082015250565b7f455243313135353a206d696e7420746f20746865207a65726f2061646472657360008201527f7300000000000000000000000000000000000000000000000000000000000000602082015250565b600060443d10156139a857613a2b565b6139b0613108565b60043d036004823e80513d602482011167ffffffffffffffff821117156139d8575050613a2b565b808201805167ffffffffffffffff8111156139f65750505050613a2b565b80602083010160043d038501811115613a13575050505050613a2b565b613a22826020018501866133d4565b82955050505050505b90565b60038110613a3f57613a3e61347d565b5b50565b613a4b816132c7565b8114613a5657600080fd5b50565b613a62816132d9565b8114613a6d57600080fd5b50565b613a79816132e5565b8114613a8457600080fd5b50565b613a9081613344565b8114613a9b57600080fd5b5056fea2646970667358221220dbf2d1e58726e027527ab1009b004b8fff79ed435561a8e077da03a1c742818464736f6c63430008070033697066733a2f2f516d55416775647a657747696939786b43384a47334e7a6245645145414b6a48485a5951433265334d416e6d35682f6d657461646174612f312e6a736f6e",
  "immutableReferences": {},
  "source": "// contracts/Market1155.sol\n// SPDX-License-Identifier: MIT\npragma solidity ^0.8.7;\n\nimport \"@openzeppelin/contracts/token/ERC1155/ERC1155.sol\";\nimport \"@openzeppelin/contracts/access/Ownable.sol\";\nimport \"@openzeppelin/contracts/utils/Strings.sol\";\nimport \"@openzeppelin/contracts/utils/math/SafeMath.sol\";\n\ncontract Market is ERC1155, Ownable {\n\n    mapping (uint256 => string) private _uris;\n\n   constructor() public ERC1155(\"ipfs://QmUAgudzewGii9xkC8JG3NzbEdQEAKjHHZYQC2e3MAnm5h/metadata/1.json\") {\n        // _mint(msg.sender, _ticketId, 1, \"\");\n\n    }\n    \n    function uri(uint256 tokenId) override public view returns (string memory) {\n        return(_uris[tokenId]);\n    }\n    \n    function _setTokenUri(uint256 tokenId, string memory uri) private {\n        require(bytes(_uris[tokenId]).length == 0, \"Cannot set uri twice\"); \n        _uris[tokenId] = uri; \n    }\n\n\n\n///old ERC721 Contract\n\n\nusing SafeMath for uint;\n\n  enum State { ticketSaleNotStarted, ticketSaleStarted, ticketSaleEnded }\n\n  Event[] public events;\n  mapping (uint256 => address[]) public attendees;\n\n  struct Event {\n      uint256 eventID;\n      address organiser;\n      State currentState;\n      uint256 totalTicket;\n      uint256 ticketPrice;\n      uint256 firstTicketID; \n      uint256 currentTicketID;\n      uint256 lastTicketID;\n      string  initialTokenURI;\n  }\n\n  uint256 private _currentEventId = 0;\n  uint256 private _currentTokenId = 0;\n  mapping (address => uint256) balances;\n\n function createEvent(uint256 _numTickets, uint256 _price, string  memory _tokenURI) public {\n      events.push(Event(\n          _currentEventId, \n          msg.sender, \n          State.ticketSaleNotStarted, \n          _numTickets, \n          _price,\n          _currentTokenId,\n          _currentTokenId,\n          _currentTokenId.add(_numTickets).sub(1),\n          _tokenURI));\n      createTickets(_numTickets, _tokenURI);\n      emit eventCreated(_currentEventId, _numTickets, _price);\n      _incrementEventId();\n  }\n\n  function createTickets(uint256 _num, string  memory _tokenURI) private returns(bool) {\n      for (uint i=0; i<_num; i++) {\n          _mint(msg.sender, _currentTokenId, 1, \"\");\n          _setTokenUri(_currentTokenId, _tokenURI);\n          _incrementTokenId();\n      }\n      return true;\n  }\n\n// event organiser can withdraw funds from ticket sales\n  function withdraw() public {\n      payable(msg.sender).transfer(balances[msg.sender]);\n  }\n\n  function startTicketSale(uint256 _eventId) public {\n      Event storage selectedEvent = events[_eventId];\n      require(msg.sender == selectedEvent.organiser);\n      selectedEvent.currentState = State.ticketSaleStarted;\n  }\n\n  function endTicketSale(uint256 _eventId) public {\n      Event storage selectedEvent = events[_eventId];\n      require(msg.sender == selectedEvent.organiser);\n      selectedEvent.currentState = State.ticketSaleEnded;\n  }\n\n  function _incrementTokenId() private {\n      _currentTokenId++;\n  }\n\n  function _incrementEventId() private {\n      _currentEventId++;\n  }\n\n  // this function should be called by the buyer\n  function buyTicket(uint256 _eventId, string memory _ticketUri) public payable {\n      Event storage selectedEvent = events[_eventId];\n      //require(selectedEvent.currentState == State.ticketSaleStarted);\n      require(msg.value >= selectedEvent.ticketPrice);\n      uint256 tokenId = selectedEvent.currentTicketID;\n      require(tokenId <= selectedEvent.lastTicketID);\n      _setTokenUri(tokenId, _ticketUri);\n    //   address seller = ownerOf(tokenId);\n    //   balances[seller] += msg.value;\n      attendees[_eventId].push(msg.sender);\n    //   _safeTransfer(seller, msg.sender, tokenId, \"\");\n      selectedEvent.currentTicketID++;\n      emit ticketTransferred(tokenId, msg.sender);\n  }\n\n  function getEventsLength() public view returns(uint) {\n      return events.length;\n  }\n\n  function getAttendeesLength(uint256 _eventId) public view returns(uint) {\n      return attendees[_eventId].length;\n  }\n\n  event ticketTransferred(uint256 _id, address _owner); //show the address of new owner\n  event eventCreated(uint256 _id, uint256 _numTickets, uint256 _price);\n\n//////////////// END of the Old ERC721 Contract\n\n}",
  "sourcePath": "/Users/mm-mac/Desktop/mm-projects-blockchain/kaijun-ticketing/tixlab/tixlab/contracts/Market.sol",
  "compiler": {
    "name": "solc",
    "version": "0.8.7+commit.e28d00a7.Emscripten.clang"
  },
  "schemaVersion": "3.2.3",
  "updatedAt": "2022-01-29T11:42:28.317Z",
  "networkType": "ethereum",
  "devdoc": {
    "kind": "dev",
    "methods": {
      "balanceOf(address,uint256)": {
        "details": "See {IERC1155-balanceOf}. Requirements: - `account` cannot be the zero address."
      },
      "balanceOfBatch(address[],uint256[])": {
        "details": "See {IERC1155-balanceOfBatch}. Requirements: - `accounts` and `ids` must have the same length."
      },
      "isApprovedForAll(address,address)": {
        "details": "See {IERC1155-isApprovedForAll}."
      },
      "owner()": {
        "details": "Returns the address of the current owner."
      },
      "renounceOwnership()": {
        "details": "Leaves the contract without owner. It will not be possible to call `onlyOwner` functions anymore. Can only be called by the current owner. NOTE: Renouncing ownership will leave the contract without an owner, thereby removing any functionality that is only available to the owner."
      },
      "safeBatchTransferFrom(address,address,uint256[],uint256[],bytes)": {
        "details": "See {IERC1155-safeBatchTransferFrom}."
      },
      "safeTransferFrom(address,address,uint256,uint256,bytes)": {
        "details": "See {IERC1155-safeTransferFrom}."
      },
      "setApprovalForAll(address,bool)": {
        "details": "See {IERC1155-setApprovalForAll}."
      },
      "supportsInterface(bytes4)": {
        "details": "See {IERC165-supportsInterface}."
      },
      "transferOwnership(address)": {
        "details": "Transfers ownership of the contract to a new account (`newOwner`). Can only be called by the current owner."
      }
    },
    "version": 1
  },
  "userdoc": {
    "kind": "user",
    "methods": {},
    "version": 1
  }
}