{
  "contractName": "Market",
  "abi": [
    {
      "inputs": [],
      "stateMutability": "nonpayable",
      "type": "constructor"
    },
    {
      "anonymous": false,
      "inputs": [
        {
          "indexed": true,
          "internalType": "address",
          "name": "account",
          "type": "address"
        },
        {
          "indexed": true,
          "internalType": "address",
          "name": "operator",
          "type": "address"
        },
        {
          "indexed": false,
          "internalType": "bool",
          "name": "approved",
          "type": "bool"
        }
      ],
      "name": "ApprovalForAll",
      "type": "event"
    },
    {
      "anonymous": false,
      "inputs": [
        {
          "indexed": true,
          "internalType": "address",
          "name": "previousOwner",
          "type": "address"
        },
        {
          "indexed": true,
          "internalType": "address",
          "name": "newOwner",
          "type": "address"
        }
      ],
      "name": "OwnershipTransferred",
      "type": "event"
    },
    {
      "anonymous": false,
      "inputs": [
        {
          "indexed": true,
          "internalType": "address",
          "name": "operator",
          "type": "address"
        },
        {
          "indexed": true,
          "internalType": "address",
          "name": "from",
          "type": "address"
        },
        {
          "indexed": true,
          "internalType": "address",
          "name": "to",
          "type": "address"
        },
        {
          "indexed": false,
          "internalType": "uint256[]",
          "name": "ids",
          "type": "uint256[]"
        },
        {
          "indexed": false,
          "internalType": "uint256[]",
          "name": "values",
          "type": "uint256[]"
        }
      ],
      "name": "TransferBatch",
      "type": "event"
    },
    {
      "anonymous": false,
      "inputs": [
        {
          "indexed": true,
          "internalType": "address",
          "name": "operator",
          "type": "address"
        },
        {
          "indexed": true,
          "internalType": "address",
          "name": "from",
          "type": "address"
        },
        {
          "indexed": true,
          "internalType": "address",
          "name": "to",
          "type": "address"
        },
        {
          "indexed": false,
          "internalType": "uint256",
          "name": "id",
          "type": "uint256"
        },
        {
          "indexed": false,
          "internalType": "uint256",
          "name": "value",
          "type": "uint256"
        }
      ],
      "name": "TransferSingle",
      "type": "event"
    },
    {
      "anonymous": false,
      "inputs": [
        {
          "indexed": false,
          "internalType": "string",
          "name": "value",
          "type": "string"
        },
        {
          "indexed": true,
          "internalType": "uint256",
          "name": "id",
          "type": "uint256"
        }
      ],
      "name": "URI",
      "type": "event"
    },
    {
      "anonymous": false,
      "inputs": [
        {
          "indexed": false,
          "internalType": "uint256",
          "name": "_id",
          "type": "uint256"
        },
        {
          "indexed": false,
          "internalType": "uint256",
          "name": "_numTickets",
          "type": "uint256"
        },
        {
          "indexed": false,
          "internalType": "uint256",
          "name": "_price",
          "type": "uint256"
        }
      ],
      "name": "eventCreated",
      "type": "event"
    },
    {
      "anonymous": false,
      "inputs": [
        {
          "indexed": false,
          "internalType": "uint256",
          "name": "_id",
          "type": "uint256"
        },
        {
          "indexed": false,
          "internalType": "uint256",
          "name": "_numTickets",
          "type": "uint256"
        },
        {
          "indexed": false,
          "internalType": "address",
          "name": "_owner",
          "type": "address"
        }
      ],
      "name": "ticketTransferred",
      "type": "event"
    },
    {
      "inputs": [
        {
          "internalType": "uint256",
          "name": "",
          "type": "uint256"
        },
        {
          "internalType": "uint256",
          "name": "",
          "type": "uint256"
        }
      ],
      "name": "attendees",
      "outputs": [
        {
          "internalType": "address",
          "name": "",
          "type": "address"
        }
      ],
      "stateMutability": "view",
      "type": "function",
      "constant": true
    },
    {
      "inputs": [
        {
          "internalType": "address",
          "name": "account",
          "type": "address"
        },
        {
          "internalType": "uint256",
          "name": "id",
          "type": "uint256"
        }
      ],
      "name": "balanceOf",
      "outputs": [
        {
          "internalType": "uint256",
          "name": "",
          "type": "uint256"
        }
      ],
      "stateMutability": "view",
      "type": "function",
      "constant": true
    },
    {
      "inputs": [
        {
          "internalType": "address[]",
          "name": "accounts",
          "type": "address[]"
        },
        {
          "internalType": "uint256[]",
          "name": "ids",
          "type": "uint256[]"
        }
      ],
      "name": "balanceOfBatch",
      "outputs": [
        {
          "internalType": "uint256[]",
          "name": "",
          "type": "uint256[]"
        }
      ],
      "stateMutability": "view",
      "type": "function",
      "constant": true
    },
    {
      "inputs": [
        {
          "internalType": "uint256",
          "name": "",
          "type": "uint256"
        }
      ],
      "name": "events",
      "outputs": [
        {
          "internalType": "uint256",
          "name": "eventID",
          "type": "uint256"
        },
        {
          "internalType": "address",
          "name": "organiser",
          "type": "address"
        },
        {
          "internalType": "enum Market.State",
          "name": "currentState",
          "type": "uint8"
        },
        {
          "internalType": "uint256",
          "name": "totalTicket",
          "type": "uint256"
        },
        {
          "internalType": "uint256",
          "name": "ticketPrice",
          "type": "uint256"
        },
        {
          "internalType": "uint256",
          "name": "firstTicketID",
          "type": "uint256"
        },
        {
          "internalType": "uint256",
          "name": "currentTicketID",
          "type": "uint256"
        },
        {
          "internalType": "uint256",
          "name": "lastTicketID",
          "type": "uint256"
        },
        {
          "internalType": "string",
          "name": "initialTokenURI",
          "type": "string"
        }
      ],
      "stateMutability": "view",
      "type": "function",
      "constant": true
    },
    {
      "inputs": [
        {
          "internalType": "address",
          "name": "account",
          "type": "address"
        },
        {
          "internalType": "address",
          "name": "operator",
          "type": "address"
        }
      ],
      "name": "isApprovedForAll",
      "outputs": [
        {
          "internalType": "bool",
          "name": "",
          "type": "bool"
        }
      ],
      "stateMutability": "view",
      "type": "function",
      "constant": true
    },
    {
      "inputs": [],
      "name": "owner",
      "outputs": [
        {
          "internalType": "address",
          "name": "",
          "type": "address"
        }
      ],
      "stateMutability": "view",
      "type": "function",
      "constant": true
    },
    {
      "inputs": [],
      "name": "renounceOwnership",
      "outputs": [],
      "stateMutability": "nonpayable",
      "type": "function"
    },
    {
      "inputs": [
        {
          "internalType": "address",
          "name": "from",
          "type": "address"
        },
        {
          "internalType": "address",
          "name": "to",
          "type": "address"
        },
        {
          "internalType": "uint256[]",
          "name": "ids",
          "type": "uint256[]"
        },
        {
          "internalType": "uint256[]",
          "name": "amounts",
          "type": "uint256[]"
        },
        {
          "internalType": "bytes",
          "name": "data",
          "type": "bytes"
        }
      ],
      "name": "safeBatchTransferFrom",
      "outputs": [],
      "stateMutability": "nonpayable",
      "type": "function"
    },
    {
      "inputs": [
        {
          "internalType": "address",
          "name": "from",
          "type": "address"
        },
        {
          "internalType": "address",
          "name": "to",
          "type": "address"
        },
        {
          "internalType": "uint256",
          "name": "id",
          "type": "uint256"
        },
        {
          "internalType": "uint256",
          "name": "amount",
          "type": "uint256"
        },
        {
          "internalType": "bytes",
          "name": "data",
          "type": "bytes"
        }
      ],
      "name": "safeTransferFrom",
      "outputs": [],
      "stateMutability": "nonpayable",
      "type": "function"
    },
    {
      "inputs": [
        {
          "internalType": "address",
          "name": "operator",
          "type": "address"
        },
        {
          "internalType": "bool",
          "name": "approved",
          "type": "bool"
        }
      ],
      "name": "setApprovalForAll",
      "outputs": [],
      "stateMutability": "nonpayable",
      "type": "function"
    },
    {
      "inputs": [
        {
          "internalType": "bytes4",
          "name": "interfaceId",
          "type": "bytes4"
        }
      ],
      "name": "supportsInterface",
      "outputs": [
        {
          "internalType": "bool",
          "name": "",
          "type": "bool"
        }
      ],
      "stateMutability": "view",
      "type": "function",
      "constant": true
    },
    {
      "inputs": [
        {
          "internalType": "address",
          "name": "newOwner",
          "type": "address"
        }
      ],
      "name": "transferOwnership",
      "outputs": [],
      "stateMutability": "nonpayable",
      "type": "function"
    },
    {
      "inputs": [
        {
          "internalType": "uint256",
          "name": "tokenId",
          "type": "uint256"
        }
      ],
      "name": "uri",
      "outputs": [
        {
          "internalType": "string",
          "name": "",
          "type": "string"
        }
      ],
      "stateMutability": "view",
      "type": "function",
      "constant": true
    },
    {
      "inputs": [
        {
          "internalType": "uint256",
          "name": "_numTickets",
          "type": "uint256"
        },
        {
          "internalType": "uint256",
          "name": "_price",
          "type": "uint256"
        },
        {
          "internalType": "string",
          "name": "_tokenURI",
          "type": "string"
        }
      ],
      "name": "createEvent",
      "outputs": [],
      "stateMutability": "nonpayable",
      "type": "function"
    },
    {
      "inputs": [],
      "name": "withdraw",
      "outputs": [],
      "stateMutability": "nonpayable",
      "type": "function"
    },
    {
      "inputs": [
        {
          "internalType": "uint256",
          "name": "_eventId",
          "type": "uint256"
        }
      ],
      "name": "startTicketSale",
      "outputs": [],
      "stateMutability": "nonpayable",
      "type": "function"
    },
    {
      "inputs": [
        {
          "internalType": "uint256",
          "name": "_eventId",
          "type": "uint256"
        }
      ],
      "name": "endTicketSale",
      "outputs": [],
      "stateMutability": "nonpayable",
      "type": "function"
    },
    {
      "inputs": [
        {
          "internalType": "uint256",
          "name": "_eventId",
          "type": "uint256"
        },
        {
          "internalType": "uint256",
          "name": "_amount",
          "type": "uint256"
        },
        {
          "internalType": "string",
          "name": "_ticketUri",
          "type": "string"
        }
      ],
      "name": "buyTicket",
      "outputs": [],
      "stateMutability": "payable",
      "type": "function",
      "payable": true
    },
    {
      "inputs": [],
      "name": "getEventsLength",
      "outputs": [
        {
          "internalType": "uint256",
          "name": "",
          "type": "uint256"
        }
      ],
      "stateMutability": "view",
      "type": "function",
      "constant": true
    },
    {
      "inputs": [
        {
          "internalType": "uint256",
          "name": "_eventId",
          "type": "uint256"
        }
      ],
      "name": "getAttendeesLength",
      "outputs": [
        {
          "internalType": "uint256",
          "name": "",
          "type": "uint256"
        }
      ],
      "stateMutability": "view",
      "type": "function",
      "constant": true
    }
  ],
  "bytecode": "0x6080604052600060075560006008553480156200001b57600080fd5b5060405180608001604052806045815260200162003d2b6045913962000047816200006e60201b60201c565b50620000686200005c6200008a60201b60201c565b6200009260201b60201c565b6200026d565b80600290805190602001906200008692919062000158565b5050565b600033905090565b6000600360009054906101000a900473ffffffffffffffffffffffffffffffffffffffff16905081600360006101000a81548173ffffffffffffffffffffffffffffffffffffffff021916908373ffffffffffffffffffffffffffffffffffffffff1602179055508173ffffffffffffffffffffffffffffffffffffffff168173ffffffffffffffffffffffffffffffffffffffff167f8be0079c531659141344cd1fd0a4f28419497f9722a3daafe3b4186f6b6457e060405160405180910390a35050565b828054620001669062000208565b90600052602060002090601f0160209004810192826200018a5760008555620001d6565b82601f10620001a557805160ff1916838001178555620001d6565b82800160010185558215620001d6579182015b82811115620001d5578251825591602001919060010190620001b8565b5b509050620001e59190620001e9565b5090565b5b8082111562000204576000816000905550600101620001ea565b5090565b600060028204905060018216806200022157607f821691505b602082108114156200023857620002376200023e565b5b50919050565b7f4e487b7100000000000000000000000000000000000000000000000000000000600052602260045260246000fd5b613aae806200027d6000396000f3fe60806040526004361061011e5760003560e01c80634e1273f4116100a0578063c9b2264c11610064578063c9b2264c146103dd578063dac44d871461041a578063e985e9c514610443578063f242432a14610480578063f2fde38b146104a95761011e565b80634e1273f4146102f8578063715018a6146103355780638da5cb5b1461034c578063a22cb46514610377578063adadcfef146103a05761011e565b80631d6916ab116100e75780631d6916ab14610248578063294e0d56146102645780632eb2c2d61461028d5780633ccfd60b146102b657806347fc216e146102cd5761011e565b8062fdd58e1461012357806301ffc9a7146101605780630b7914301461019d5780630e89341c146101e25780631c5f9a9c1461021f575b600080fd5b34801561012f57600080fd5b5061014a60048036038101906101459190612755565b6104d2565b6040516101579190612f50565b60405180910390f35b34801561016c57600080fd5b506101876004803603810190610182919061280d565b61059b565b6040516101949190612d73565b60405180910390f35b3480156101a957600080fd5b506101c460048036038101906101bf9190612867565b61067d565b6040516101d999989796959493929190612f6b565b60405180910390f35b3480156101ee57600080fd5b5061020960048036038101906102049190612867565b610790565b6040516102169190612d8e565b60405180910390f35b34801561022b57600080fd5b5061024660048036038101906102419190612867565b610835565b005b610262600480360381019061025d91906128d4565b6108e8565b005b34801561027057600080fd5b5061028b600480360381019061028691906128d4565b610a96565b005b34801561029957600080fd5b506102b460048036038101906102af91906125af565b610c7f565b005b3480156102c257600080fd5b506102cb610d20565b005b3480156102d957600080fd5b506102e2610da8565b6040516102ef9190612f50565b60405180910390f35b34801561030457600080fd5b5061031f600480360381019061031a9190612795565b610db5565b60405161032c9190612d1a565b60405180910390f35b34801561034157600080fd5b5061034a610ece565b005b34801561035857600080fd5b50610361610f56565b60405161036e9190612c3d565b60405180910390f35b34801561038357600080fd5b5061039e60048036038101906103999190612715565b610f80565b005b3480156103ac57600080fd5b506103c760048036038101906103c29190612867565b610f96565b6040516103d49190612f50565b60405180910390f35b3480156103e957600080fd5b5061040460048036038101906103ff9190612894565b610fb6565b6040516104119190612c3d565b60405180910390f35b34801561042657600080fd5b50610441600480360381019061043c9190612867565b611004565b005b34801561044f57600080fd5b5061046a6004803603810190610465919061256f565b6110b7565b6040516104779190612d73565b60405180910390f35b34801561048c57600080fd5b506104a760048036038101906104a2919061267e565b61114b565b005b3480156104b557600080fd5b506104d060048036038101906104cb9190612542565b6111ec565b005b60008073ffffffffffffffffffffffffffffffffffffffff168373ffffffffffffffffffffffffffffffffffffffff161415610543576040517f08c379a000000000000000000000000000000000000000000000000000000000815260040161053a90612df0565b60405180910390fd5b60008083815260200190815260200160002060008473ffffffffffffffffffffffffffffffffffffffff1673ffffffffffffffffffffffffffffffffffffffff16815260200190815260200160002054905092915050565b60007fd9b67a26000000000000000000000000000000000000000000000000000000007bffffffffffffffffffffffffffffffffffffffffffffffffffffffff1916827bffffffffffffffffffffffffffffffffffffffffffffffffffffffff1916148061066657507f0e89341c000000000000000000000000000000000000000000000000000000007bffffffffffffffffffffffffffffffffffffffffffffffffffffffff1916827bffffffffffffffffffffffffffffffffffffffffffffffffffffffff1916145b806106765750610675826112e4565b5b9050919050565b6005818154811061068d57600080fd5b90600052602060002090600802016000915090508060000154908060010160009054906101000a900473ffffffffffffffffffffffffffffffffffffffff16908060010160149054906101000a900460ff169080600201549080600301549080600401549080600501549080600601549080600701805461070d906133a5565b80601f0160208091040260200160405190810160405280929190818152602001828054610739906133a5565b80156107865780601f1061075b57610100808354040283529160200191610786565b820191906000526020600020905b81548152906001019060200180831161076957829003601f168201915b5050505050905089565b60606004600083815260200190815260200160002080546107b0906133a5565b80601f01602080910402602001604051908101604052809291908181526020018280546107dc906133a5565b80156108295780601f106107fe57610100808354040283529160200191610829565b820191906000526020600020905b81548152906001019060200180831161080c57829003601f168201915b50505050509050919050565b60006005828154811061084b5761084a6134de565b5b906000526020600020906008020190508060010160009054906101000a900473ffffffffffffffffffffffffffffffffffffffff1673ffffffffffffffffffffffffffffffffffffffff163373ffffffffffffffffffffffffffffffffffffffff16146108b757600080fd5b60018160010160146101000a81548160ff021916908360028111156108df576108de613480565b5b02179055505050565b6000600584815481106108fe576108fd6134de565b5b9060005260206000209060080201905061092581600301548461134e90919063ffffffff16565b34101561093157600080fd5b6000816005015490506109448184611364565b60008260010160009054906101000a900473ffffffffffffffffffffffffffffffffffffffff16905034600960008373ffffffffffffffffffffffffffffffffffffffff1673ffffffffffffffffffffffffffffffffffffffff16815260200190815260200160002060008282546109bc91906131e6565b9250508190555060066000878152602001908152602001600020339080600181540180825580915050600190039060005260206000200160009091909190916101000a81548173ffffffffffffffffffffffffffffffffffffffff021916908373ffffffffffffffffffffffffffffffffffffffff160217905550610a538133888860405180602001604052806000815250611390565b7f25c528a3410de738868edee77febe9d73c251a769a2da4f5fad9c7a4a7d502b7868633604051610a8693929190613028565b60405180910390a1505050505050565b600560405180610120016040528060075481526020013373ffffffffffffffffffffffffffffffffffffffff16815260200160006002811115610adc57610adb613480565b5b815260200185815260200184815260200160085481526020016008548152602001610b256001610b178860085461161290919063ffffffff16565b61162890919063ffffffff16565b81526020018381525090806001815401808255809150506001900390600052602060002090600802016000909190919091506000820151816000015560208201518160010160006101000a81548173ffffffffffffffffffffffffffffffffffffffff021916908373ffffffffffffffffffffffffffffffffffffffff16021790555060408201518160010160146101000a81548160ff02191690836002811115610bd357610bd2613480565b5b0217905550606082015181600201556080820151816003015560a0820151816004015560c0820151816005015560e08201518160060155610100820151816007019080519060200190610c2792919061221a565b505050610c34838261163e565b507f510309c3e6be414884b8f9842a0f181fef1b2bb405bb05840d1ce0096d09cef86007548484604051610c6a9392919061305f565b60405180910390a1610c7a61169e565b505050565b610c876116b8565b73ffffffffffffffffffffffffffffffffffffffff168573ffffffffffffffffffffffffffffffffffffffff161480610ccd5750610ccc85610cc76116b8565b6110b7565b5b610d0c576040517f08c379a0000000000000000000000000000000000000000000000000000000008152600401610d0390612e70565b60405180910390fd5b610d1985858585856116c0565b5050505050565b3373ffffffffffffffffffffffffffffffffffffffff166108fc600960003373ffffffffffffffffffffffffffffffffffffffff1673ffffffffffffffffffffffffffffffffffffffff168152602001908152602001600020549081150290604051600060405180830381858888f19350505050158015610da5573d6000803e3d6000fd5b50565b6000600580549050905090565b60608151835114610dfb576040517f08c379a0000000000000000000000000000000000000000000000000000000008152600401610df290612ef0565b60405180910390fd5b6000835167ffffffffffffffff811115610e1857610e1761350d565b5b604051908082528060200260200182016040528015610e465781602001602082028036833780820191505090505b50905060005b8451811015610ec357610e93858281518110610e6b57610e6a6134de565b5b6020026020010151858381518110610e8657610e856134de565b5b60200260200101516104d2565b828281518110610ea657610ea56134de565b5b60200260200101818152505080610ebc90613408565b9050610e4c565b508091505092915050565b610ed66116b8565b73ffffffffffffffffffffffffffffffffffffffff16610ef4610f56565b73ffffffffffffffffffffffffffffffffffffffff1614610f4a576040517f08c379a0000000000000000000000000000000000000000000000000000000008152600401610f4190612eb0565b60405180910390fd5b610f5460006119d4565b565b6000600360009054906101000a900473ffffffffffffffffffffffffffffffffffffffff16905090565b610f92610f8b6116b8565b8383611a9a565b5050565b600060066000838152602001908152602001600020805490509050919050565b60066020528160005260406000208181548110610fd257600080fd5b906000526020600020016000915091509054906101000a900473ffffffffffffffffffffffffffffffffffffffff1681565b60006005828154811061101a576110196134de565b5b906000526020600020906008020190508060010160009054906101000a900473ffffffffffffffffffffffffffffffffffffffff1673ffffffffffffffffffffffffffffffffffffffff163373ffffffffffffffffffffffffffffffffffffffff161461108657600080fd5b60028160010160146101000a81548160ff021916908360028111156110ae576110ad613480565b5b02179055505050565b6000600160008473ffffffffffffffffffffffffffffffffffffffff1673ffffffffffffffffffffffffffffffffffffffff16815260200190815260200160002060008373ffffffffffffffffffffffffffffffffffffffff1673ffffffffffffffffffffffffffffffffffffffff16815260200190815260200160002060009054906101000a900460ff16905092915050565b6111536116b8565b73ffffffffffffffffffffffffffffffffffffffff168573ffffffffffffffffffffffffffffffffffffffff1614806111995750611198856111936116b8565b6110b7565b5b6111d8576040517f08c379a00000000000000000000000000000000000000000000000000000000081526004016111cf90612e30565b60405180910390fd5b6111e58585858585611390565b5050505050565b6111f46116b8565b73ffffffffffffffffffffffffffffffffffffffff16611212610f56565b73ffffffffffffffffffffffffffffffffffffffff1614611268576040517f08c379a000000000000000000000000000000000000000000000000000000000815260040161125f90612eb0565b60405180910390fd5b600073ffffffffffffffffffffffffffffffffffffffff168173ffffffffffffffffffffffffffffffffffffffff1614156112d8576040517f08c379a00000000000000000000000000000000000000000000000000000000081526004016112cf90612e10565b60405180910390fd5b6112e1816119d4565b50565b60007f01ffc9a7000000000000000000000000000000000000000000000000000000007bffffffffffffffffffffffffffffffffffffffffffffffffffffffff1916827bffffffffffffffffffffffffffffffffffffffffffffffffffffffff1916149050919050565b6000818361135c919061323c565b905092915050565b8060046000848152602001908152602001600020908051906020019061138b92919061221a565b505050565b600073ffffffffffffffffffffffffffffffffffffffff168473ffffffffffffffffffffffffffffffffffffffff161415611400576040517f08c379a00000000000000000000000000000000000000000000000000000000081526004016113f790612e50565b60405180910390fd5b600061140a6116b8565b905061142a81878761141b88611c07565b61142488611c07565b87611c81565b600080600086815260200190815260200160002060008873ffffffffffffffffffffffffffffffffffffffff1673ffffffffffffffffffffffffffffffffffffffff168152602001908152602001600020549050838110156114c1576040517f08c379a00000000000000000000000000000000000000000000000000000000081526004016114b890612e90565b60405180910390fd5b83810360008087815260200190815260200160002060008973ffffffffffffffffffffffffffffffffffffffff1673ffffffffffffffffffffffffffffffffffffffff168152602001908152602001600020819055508360008087815260200190815260200160002060008873ffffffffffffffffffffffffffffffffffffffff1673ffffffffffffffffffffffffffffffffffffffff168152602001908152602001600020600082825461157691906131e6565b925050819055508573ffffffffffffffffffffffffffffffffffffffff168773ffffffffffffffffffffffffffffffffffffffff168373ffffffffffffffffffffffffffffffffffffffff167fc3d58168c5ae7397731d063d5bbf3d657854427343f4c083240f7aacaa2d0f6288886040516115f3929190612fff565b60405180910390a4611609828888888888611c89565b50505050505050565b6000818361162091906131e6565b905092915050565b600081836116369190613296565b905092915050565b600080600090505b838110156116935761166c33600854600160405180602001604052806000815250611e70565b61167860085484611364565b611680612006565b808061168b90613408565b915050611646565b506001905092915050565b600760008154809291906116b190613408565b9190505550565b600033905090565b8151835114611704576040517f08c379a00000000000000000000000000000000000000000000000000000000081526004016116fb90612f10565b60405180910390fd5b600073ffffffffffffffffffffffffffffffffffffffff168473ffffffffffffffffffffffffffffffffffffffff161415611774576040517f08c379a000000000000000000000000000000000000000000000000000000000815260040161176b90612e50565b60405180910390fd5b600061177e6116b8565b905061178e818787878787611c81565b60005b845181101561193f5760008582815181106117af576117ae6134de565b5b6020026020010151905060008583815181106117ce576117cd6134de565b5b60200260200101519050600080600084815260200190815260200160002060008b73ffffffffffffffffffffffffffffffffffffffff1673ffffffffffffffffffffffffffffffffffffffff1681526020019081526020016000205490508181101561186f576040517f08c379a000000000000000000000000000000000000000000000000000000000815260040161186690612e90565b60405180910390fd5b81810360008085815260200190815260200160002060008c73ffffffffffffffffffffffffffffffffffffffff1673ffffffffffffffffffffffffffffffffffffffff168152602001908152602001600020819055508160008085815260200190815260200160002060008b73ffffffffffffffffffffffffffffffffffffffff1673ffffffffffffffffffffffffffffffffffffffff168152602001908152602001600020600082825461192491906131e6565b925050819055505050508061193890613408565b9050611791565b508473ffffffffffffffffffffffffffffffffffffffff168673ffffffffffffffffffffffffffffffffffffffff168273ffffffffffffffffffffffffffffffffffffffff167f4a39dc06d4c0dbc64b70af90fd698a233a518aa5d07e595d983b8c0526c8f7fb87876040516119b6929190612d3c565b60405180910390a46119cc818787878787612020565b505050505050565b6000600360009054906101000a900473ffffffffffffffffffffffffffffffffffffffff16905081600360006101000a81548173ffffffffffffffffffffffffffffffffffffffff021916908373ffffffffffffffffffffffffffffffffffffffff1602179055508173ffffffffffffffffffffffffffffffffffffffff168173ffffffffffffffffffffffffffffffffffffffff167f8be0079c531659141344cd1fd0a4f28419497f9722a3daafe3b4186f6b6457e060405160405180910390a35050565b8173ffffffffffffffffffffffffffffffffffffffff168373ffffffffffffffffffffffffffffffffffffffff161415611b09576040517f08c379a0000000000000000000000000000000000000000000000000000000008152600401611b0090612ed0565b60405180910390fd5b80600160008573ffffffffffffffffffffffffffffffffffffffff1673ffffffffffffffffffffffffffffffffffffffff16815260200190815260200160002060008473ffffffffffffffffffffffffffffffffffffffff1673ffffffffffffffffffffffffffffffffffffffff16815260200190815260200160002060006101000a81548160ff0219169083151502179055508173ffffffffffffffffffffffffffffffffffffffff168373ffffffffffffffffffffffffffffffffffffffff167f17307eab39ab6107e8899845ad3d59bd9653f200f220920489ca2b5937696c3183604051611bfa9190612d73565b60405180910390a3505050565b60606000600167ffffffffffffffff811115611c2657611c2561350d565b5b604051908082528060200260200182016040528015611c545781602001602082028036833780820191505090505b5090508281600081518110611c6c57611c6b6134de565b5b60200260200101818152505080915050919050565b505050505050565b611ca88473ffffffffffffffffffffffffffffffffffffffff16612207565b15611e68578373ffffffffffffffffffffffffffffffffffffffff1663f23a6e6187878686866040518663ffffffff1660e01b8152600401611cee959493929190612cc0565b602060405180830381600087803b158015611d0857600080fd5b505af1925050508015611d3957506040513d601f19601f82011682018060405250810190611d36919061283a565b60015b611ddf57611d4561353c565b806308c379a01415611da25750611d5a613972565b80611d655750611da4565b806040517f08c379a0000000000000000000000000000000000000000000000000000000008152600401611d999190612d8e565b60405180910390fd5b505b6040517f08c379a0000000000000000000000000000000000000000000000000000000008152600401611dd690612db0565b60405180910390fd5b63f23a6e6160e01b7bffffffffffffffffffffffffffffffffffffffffffffffffffffffff1916817bffffffffffffffffffffffffffffffffffffffffffffffffffffffff191614611e66576040517f08c379a0000000000000000000000000000000000000000000000000000000008152600401611e5d90612dd0565b60405180910390fd5b505b505050505050565b600073ffffffffffffffffffffffffffffffffffffffff168473ffffffffffffffffffffffffffffffffffffffff161415611ee0576040517f08c379a0000000000000000000000000000000000000000000000000000000008152600401611ed790612f30565b60405180910390fd5b6000611eea6116b8565b9050611f0b81600087611efc88611c07565b611f0588611c07565b87611c81565b8260008086815260200190815260200160002060008773ffffffffffffffffffffffffffffffffffffffff1673ffffffffffffffffffffffffffffffffffffffff1681526020019081526020016000206000828254611f6a91906131e6565b925050819055508473ffffffffffffffffffffffffffffffffffffffff16600073ffffffffffffffffffffffffffffffffffffffff168273ffffffffffffffffffffffffffffffffffffffff167fc3d58168c5ae7397731d063d5bbf3d657854427343f4c083240f7aacaa2d0f628787604051611fe8929190612fff565b60405180910390a4611fff81600087878787611c89565b5050505050565b6008600081548092919061201990613408565b9190505550565b61203f8473ffffffffffffffffffffffffffffffffffffffff16612207565b156121ff578373ffffffffffffffffffffffffffffffffffffffff1663bc197c8187878686866040518663ffffffff1660e01b8152600401612085959493929190612c58565b602060405180830381600087803b15801561209f57600080fd5b505af19250505080156120d057506040513d601f19601f820116820180604052508101906120cd919061283a565b60015b612176576120dc61353c565b806308c379a0141561213957506120f1613972565b806120fc575061213b565b806040517f08c379a00000000000000000000000000000000000000000000000000000000081526004016121309190612d8e565b60405180910390fd5b505b6040517f08c379a000000000000000000000000000000000000000000000000000000000815260040161216d90612db0565b60405180910390fd5b63bc197c8160e01b7bffffffffffffffffffffffffffffffffffffffffffffffffffffffff1916817bffffffffffffffffffffffffffffffffffffffffffffffffffffffff1916146121fd576040517f08c379a00000000000000000000000000000000000000000000000000000000081526004016121f490612dd0565b60405180910390fd5b505b505050505050565b600080823b905060008111915050919050565b828054612226906133a5565b90600052602060002090601f016020900481019282612248576000855561228f565b82601f1061226157805160ff191683800117855561228f565b8280016001018555821561228f579182015b8281111561228e578251825591602001919060010190612273565b5b50905061229c91906122a0565b5090565b5b808211156122b95760008160009055506001016122a1565b5090565b60006122d06122cb846130bb565b613096565b905080838252602082019050828560208602820111156122f3576122f2613563565b5b60005b8581101561232357816123098882612421565b8452602084019350602083019250506001810190506122f6565b5050509392505050565b600061234061233b846130e7565b613096565b9050808382526020820190508285602086028201111561236357612362613563565b5b60005b858110156123935781612379888261252d565b845260208401935060208301925050600181019050612366565b5050509392505050565b60006123b06123ab84613113565b613096565b9050828152602081018484840111156123cc576123cb613568565b5b6123d7848285613363565b509392505050565b60006123f26123ed84613144565b613096565b90508281526020810184848401111561240e5761240d613568565b5b612419848285613363565b509392505050565b60008135905061243081613a1c565b92915050565b600082601f83011261244b5761244a61355e565b5b813561245b8482602086016122bd565b91505092915050565b600082601f8301126124795761247861355e565b5b813561248984826020860161232d565b91505092915050565b6000813590506124a181613a33565b92915050565b6000813590506124b681613a4a565b92915050565b6000815190506124cb81613a4a565b92915050565b600082601f8301126124e6576124e561355e565b5b81356124f684826020860161239d565b91505092915050565b600082601f8301126125145761251361355e565b5b81356125248482602086016123df565b91505092915050565b60008135905061253c81613a61565b92915050565b60006020828403121561255857612557613572565b5b600061256684828501612421565b91505092915050565b6000806040838503121561258657612585613572565b5b600061259485828601612421565b92505060206125a585828601612421565b9150509250929050565b600080600080600060a086880312156125cb576125ca613572565b5b60006125d988828901612421565b95505060206125ea88828901612421565b945050604086013567ffffffffffffffff81111561260b5761260a61356d565b5b61261788828901612464565b935050606086013567ffffffffffffffff8111156126385761263761356d565b5b61264488828901612464565b925050608086013567ffffffffffffffff8111156126655761266461356d565b5b612671888289016124d1565b9150509295509295909350565b600080600080600060a0868803121561269a57612699613572565b5b60006126a888828901612421565b95505060206126b988828901612421565b94505060406126ca8882890161252d565b93505060606126db8882890161252d565b925050608086013567ffffffffffffffff8111156126fc576126fb61356d565b5b612708888289016124d1565b9150509295509295909350565b6000806040838503121561272c5761272b613572565b5b600061273a85828601612421565b925050602061274b85828601612492565b9150509250929050565b6000806040838503121561276c5761276b613572565b5b600061277a85828601612421565b925050602061278b8582860161252d565b9150509250929050565b600080604083850312156127ac576127ab613572565b5b600083013567ffffffffffffffff8111156127ca576127c961356d565b5b6127d685828601612436565b925050602083013567ffffffffffffffff8111156127f7576127f661356d565b5b61280385828601612464565b9150509250929050565b60006020828403121561282357612822613572565b5b6000612831848285016124a7565b91505092915050565b6000602082840312156128505761284f613572565b5b600061285e848285016124bc565b91505092915050565b60006020828403121561287d5761287c613572565b5b600061288b8482850161252d565b91505092915050565b600080604083850312156128ab576128aa613572565b5b60006128b98582860161252d565b92505060206128ca8582860161252d565b9150509250929050565b6000806000606084860312156128ed576128ec613572565b5b60006128fb8682870161252d565b935050602061290c8682870161252d565b925050604084013567ffffffffffffffff81111561292d5761292c61356d565b5b612939868287016124ff565b9150509250925092565b600061294f8383612c1f565b60208301905092915050565b612964816132ca565b82525050565b600061297582613185565b61297f81856131b3565b935061298a83613175565b8060005b838110156129bb5781516129a28882612943565b97506129ad836131a6565b92505060018101905061298e565b5085935050505092915050565b6129d1816132dc565b82525050565b60006129e282613190565b6129ec81856131c4565b93506129fc818560208601613372565b612a0581613577565b840191505092915050565b612a1981613351565b82525050565b6000612a2a8261319b565b612a3481856131d5565b9350612a44818560208601613372565b612a4d81613577565b840191505092915050565b6000612a656034836131d5565b9150612a7082613595565b604082019050919050565b6000612a886028836131d5565b9150612a93826135e4565b604082019050919050565b6000612aab602b836131d5565b9150612ab682613633565b604082019050919050565b6000612ace6026836131d5565b9150612ad982613682565b604082019050919050565b6000612af16029836131d5565b9150612afc826136d1565b604082019050919050565b6000612b146025836131d5565b9150612b1f82613720565b604082019050919050565b6000612b376032836131d5565b9150612b428261376f565b604082019050919050565b6000612b5a602a836131d5565b9150612b65826137be565b604082019050919050565b6000612b7d6020836131d5565b9150612b888261380d565b602082019050919050565b6000612ba06029836131d5565b9150612bab82613836565b604082019050919050565b6000612bc36029836131d5565b9150612bce82613885565b604082019050919050565b6000612be66028836131d5565b9150612bf1826138d4565b604082019050919050565b6000612c096021836131d5565b9150612c1482613923565b604082019050919050565b612c2881613347565b82525050565b612c3781613347565b82525050565b6000602082019050612c52600083018461295b565b92915050565b600060a082019050612c6d600083018861295b565b612c7a602083018761295b565b8181036040830152612c8c818661296a565b90508181036060830152612ca0818561296a565b90508181036080830152612cb481846129d7565b90509695505050505050565b600060a082019050612cd5600083018861295b565b612ce2602083018761295b565b612cef6040830186612c2e565b612cfc6060830185612c2e565b8181036080830152612d0e81846129d7565b90509695505050505050565b60006020820190508181036000830152612d34818461296a565b905092915050565b60006040820190508181036000830152612d56818561296a565b90508181036020830152612d6a818461296a565b90509392505050565b6000602082019050612d8860008301846129c8565b92915050565b60006020820190508181036000830152612da88184612a1f565b905092915050565b60006020820190508181036000830152612dc981612a58565b9050919050565b60006020820190508181036000830152612de981612a7b565b9050919050565b60006020820190508181036000830152612e0981612a9e565b9050919050565b60006020820190508181036000830152612e2981612ac1565b9050919050565b60006020820190508181036000830152612e4981612ae4565b9050919050565b60006020820190508181036000830152612e6981612b07565b9050919050565b60006020820190508181036000830152612e8981612b2a565b9050919050565b60006020820190508181036000830152612ea981612b4d565b9050919050565b60006020820190508181036000830152612ec981612b70565b9050919050565b60006020820190508181036000830152612ee981612b93565b9050919050565b60006020820190508181036000830152612f0981612bb6565b9050919050565b60006020820190508181036000830152612f2981612bd9565b9050919050565b60006020820190508181036000830152612f4981612bfc565b9050919050565b6000602082019050612f656000830184612c2e565b92915050565b600061012082019050612f81600083018c612c2e565b612f8e602083018b61295b565b612f9b604083018a612a10565b612fa86060830189612c2e565b612fb56080830188612c2e565b612fc260a0830187612c2e565b612fcf60c0830186612c2e565b612fdc60e0830185612c2e565b818103610100830152612fef8184612a1f565b90509a9950505050505050505050565b60006040820190506130146000830185612c2e565b6130216020830184612c2e565b9392505050565b600060608201905061303d6000830186612c2e565b61304a6020830185612c2e565b613057604083018461295b565b949350505050565b60006060820190506130746000830186612c2e565b6130816020830185612c2e565b61308e6040830184612c2e565b949350505050565b60006130a06130b1565b90506130ac82826133d7565b919050565b6000604051905090565b600067ffffffffffffffff8211156130d6576130d561350d565b5b602082029050602081019050919050565b600067ffffffffffffffff8211156131025761310161350d565b5b602082029050602081019050919050565b600067ffffffffffffffff82111561312e5761312d61350d565b5b61313782613577565b9050602081019050919050565b600067ffffffffffffffff82111561315f5761315e61350d565b5b61316882613577565b9050602081019050919050565b6000819050602082019050919050565b600081519050919050565b600081519050919050565b600081519050919050565b6000602082019050919050565b600082825260208201905092915050565b600082825260208201905092915050565b600082825260208201905092915050565b60006131f182613347565b91506131fc83613347565b9250827fffffffffffffffffffffffffffffffffffffffffffffffffffffffffffffffff0382111561323157613230613451565b5b828201905092915050565b600061324782613347565b915061325283613347565b9250817fffffffffffffffffffffffffffffffffffffffffffffffffffffffffffffffff048311821515161561328b5761328a613451565b5b828202905092915050565b60006132a182613347565b91506132ac83613347565b9250828210156132bf576132be613451565b5b828203905092915050565b60006132d582613327565b9050919050565b60008115159050919050565b60007fffffffff0000000000000000000000000000000000000000000000000000000082169050919050565b600081905061332282613a08565b919050565b600073ffffffffffffffffffffffffffffffffffffffff82169050919050565b6000819050919050565b600061335c82613314565b9050919050565b82818337600083830152505050565b60005b83811015613390578082015181840152602081019050613375565b8381111561339f576000848401525b50505050565b600060028204905060018216806133bd57607f821691505b602082108114156133d1576133d06134af565b5b50919050565b6133e082613577565b810181811067ffffffffffffffff821117156133ff576133fe61350d565b5b80604052505050565b600061341382613347565b91507fffffffffffffffffffffffffffffffffffffffffffffffffffffffffffffffff82141561344657613445613451565b5b600182019050919050565b7f4e487b7100000000000000000000000000000000000000000000000000000000600052601160045260246000fd5b7f4e487b7100000000000000000000000000000000000000000000000000000000600052602160045260246000fd5b7f4e487b7100000000000000000000000000000000000000000000000000000000600052602260045260246000fd5b7f4e487b7100000000000000000000000000000000000000000000000000000000600052603260045260246000fd5b7f4e487b7100000000000000000000000000000000000000000000000000000000600052604160045260246000fd5b600060033d111561355b5760046000803e613558600051613588565b90505b90565b600080fd5b600080fd5b600080fd5b600080fd5b600080fd5b6000601f19601f8301169050919050565b60008160e01c9050919050565b7f455243313135353a207472616e7366657220746f206e6f6e204552433131353560008201527f526563656976657220696d706c656d656e746572000000000000000000000000602082015250565b7f455243313135353a204552433131353552656365697665722072656a6563746560008201527f6420746f6b656e73000000000000000000000000000000000000000000000000602082015250565b7f455243313135353a2062616c616e636520717565727920666f7220746865207a60008201527f65726f2061646472657373000000000000000000000000000000000000000000602082015250565b7f4f776e61626c653a206e6577206f776e657220697320746865207a65726f206160008201527f6464726573730000000000000000000000000000000000000000000000000000602082015250565b7f455243313135353a2063616c6c6572206973206e6f74206f776e6572206e6f7260008201527f20617070726f7665640000000000000000000000000000000000000000000000602082015250565b7f455243313135353a207472616e7366657220746f20746865207a65726f20616460008201527f6472657373000000000000000000000000000000000000000000000000000000602082015250565b7f455243313135353a207472616e736665722063616c6c6572206973206e6f742060008201527f6f776e6572206e6f7220617070726f7665640000000000000000000000000000602082015250565b7f455243313135353a20696e73756666696369656e742062616c616e636520666f60008201527f72207472616e7366657200000000000000000000000000000000000000000000602082015250565b7f4f776e61626c653a2063616c6c6572206973206e6f7420746865206f776e6572600082015250565b7f455243313135353a2073657474696e6720617070726f76616c2073746174757360008201527f20666f722073656c660000000000000000000000000000000000000000000000602082015250565b7f455243313135353a206163636f756e747320616e6420696473206c656e67746860008201527f206d69736d617463680000000000000000000000000000000000000000000000602082015250565b7f455243313135353a2069647320616e6420616d6f756e7473206c656e6774682060008201527f6d69736d61746368000000000000000000000000000000000000000000000000602082015250565b7f455243313135353a206d696e7420746f20746865207a65726f2061646472657360008201527f7300000000000000000000000000000000000000000000000000000000000000602082015250565b600060443d101561398257613a05565b61398a6130b1565b60043d036004823e80513d602482011167ffffffffffffffff821117156139b2575050613a05565b808201805167ffffffffffffffff8111156139d05750505050613a05565b80602083010160043d0385018111156139ed575050505050613a05565b6139fc826020018501866133d7565b82955050505050505b90565b60038110613a1957613a18613480565b5b50565b613a25816132ca565b8114613a3057600080fd5b50565b613a3c816132dc565b8114613a4757600080fd5b50565b613a53816132e8565b8114613a5e57600080fd5b50565b613a6a81613347565b8114613a7557600080fd5b5056fea264697066735822122006ec787bfebf6d97dd443a7355846de16c5f0781af44980906dbd30d58aa2b5864736f6c63430008070033697066733a2f2f516d55416775647a657747696939786b43384a47334e7a6245645145414b6a48485a5951433265334d416e6d35682f6d657461646174612f312e6a736f6e",
  "immutableReferences": {},
  "source": "// contracts/Market1155.sol\n// SPDX-License-Identifier: MIT\npragma solidity ^0.8.7;\n\nimport \"@openzeppelin/contracts/token/ERC1155/ERC1155.sol\";\nimport \"@openzeppelin/contracts/access/Ownable.sol\";\nimport \"@openzeppelin/contracts/utils/Strings.sol\";\nimport \"@openzeppelin/contracts/utils/math/SafeMath.sol\";\n\ncontract Market is ERC1155, Ownable {\n\n    mapping (uint256 => string) private _uris;\n\n   constructor() public ERC1155(\"ipfs://QmUAgudzewGii9xkC8JG3NzbEdQEAKjHHZYQC2e3MAnm5h/metadata/1.json\") {\n        // _mint(msg.sender, _ticketId, 1, \"\");\n\n    }\n    \n    function uri(uint256 tokenId) override public view returns (string memory) {\n        return(_uris[tokenId]);\n    }\n    \n    function _setTokenUri(uint256 tokenId, string memory uri) private {\n        // require(bytes(_uris[tokenId]).length == 0, \"Cannot set uri twice\"); \n        _uris[tokenId] = uri; \n    }\n\n\n\n///old ERC721 Contract\n\n\nusing SafeMath for uint;\n\n  enum State { ticketSaleNotStarted, ticketSaleStarted, ticketSaleEnded }\n\n  Event[] public events;\n  mapping (uint256 => address[]) public attendees;\n\n  struct Event {\n      uint256 eventID;\n      address organiser;\n      State currentState;\n      uint256 totalTicket;\n      uint256 ticketPrice;\n      uint256 firstTicketID; \n      uint256 currentTicketID;\n      uint256 lastTicketID;\n      string  initialTokenURI;\n  }\n\n  uint256 private _currentEventId = 0;\n  uint256 private _currentTokenId = 0;\n  mapping (address => uint256) balances;\n\n function createEvent(uint256 _numTickets, uint256 _price, string  memory _tokenURI) public {\n      events.push(Event(\n          _currentEventId, \n          msg.sender, \n          State.ticketSaleNotStarted, \n          _numTickets, \n          _price,\n          _currentTokenId,\n          _currentTokenId,\n          _currentTokenId.add(_numTickets).sub(1),\n          _tokenURI));\n      createTickets(_numTickets, _tokenURI);\n      emit eventCreated(_currentEventId, _numTickets, _price);\n      _incrementEventId();\n  }\n\n  function createTickets(uint256 _num, string  memory _tokenURI) private returns(bool) {\n      for (uint i=0; i<_num; i++) {\n          _mint(msg.sender, _currentTokenId, 1, \"\");\n          _setTokenUri(_currentTokenId, _tokenURI);\n          _incrementTokenId();\n      }\n      return true;\n  }\n\n// event organiser can withdraw funds from ticket sales\n  function withdraw() public {\n      payable(msg.sender).transfer(balances[msg.sender]);\n  }\n\n  function startTicketSale(uint256 _eventId) public {\n      Event storage selectedEvent = events[_eventId];\n      require(msg.sender == selectedEvent.organiser);\n      selectedEvent.currentState = State.ticketSaleStarted;\n  }\n\n  function endTicketSale(uint256 _eventId) public {\n      Event storage selectedEvent = events[_eventId];\n      require(msg.sender == selectedEvent.organiser);\n      selectedEvent.currentState = State.ticketSaleEnded;\n  }\n\n  function _incrementTokenId() private {\n      _currentTokenId++;\n  }\n\n  function _incrementEventId() private {\n      _currentEventId++;\n  }\n\n    // this function should be called by the buyer\n      function buyTicket(uint256 _eventId, uint256 _amount, string memory _ticketUri) public payable {\n        Event storage selectedEvent = events[_eventId];\n        //require(selectedEvent.currentState == State.ticketSaleStarted);\n        require(msg.value >= _amount.mul(selectedEvent.ticketPrice));\n        uint256 tokenId=selectedEvent.currentTicketID;\n        _setTokenUri(tokenId, _ticketUri);\n        address seller = selectedEvent.organiser;\n        balances[seller] += msg.value;\n        attendees[_eventId].push(msg.sender);\n        _safeTransferFrom(seller, msg.sender, _eventId, _amount, \"\");\n        emit ticketTransferred(_eventId, _amount, msg.sender);\n    }\n\n\n  function getEventsLength() public view returns(uint) {\n      return events.length;\n  }\n\n  function getAttendeesLength(uint256 _eventId) public view returns(uint) {\n      return attendees[_eventId].length;\n  }\n\n event ticketTransferred(uint256 _id, uint256 _numTickets, address _owner); //show the address of new owner\n  event eventCreated(uint256 _id, uint256 _numTickets, uint256 _price);\n\n//////////////// END of the Old ERC721 Contract\n\n}",
  "sourcePath": "/Users/mm-mac/Desktop/mm-projects-blockchain/kaijun-ticketing/tixlab/tixlab/contracts/Market.sol",
  "compiler": {
    "name": "solc",
    "version": "0.8.7+commit.e28d00a7.Emscripten.clang"
  },
  "schemaVersion": "3.2.3",
  "updatedAt": "2022-01-30T04:10:48.381Z",
  "networkType": "ethereum",
  "devdoc": {
    "kind": "dev",
    "methods": {
      "balanceOf(address,uint256)": {
        "details": "See {IERC1155-balanceOf}. Requirements: - `account` cannot be the zero address."
      },
      "balanceOfBatch(address[],uint256[])": {
        "details": "See {IERC1155-balanceOfBatch}. Requirements: - `accounts` and `ids` must have the same length."
      },
      "isApprovedForAll(address,address)": {
        "details": "See {IERC1155-isApprovedForAll}."
      },
      "owner()": {
        "details": "Returns the address of the current owner."
      },
      "renounceOwnership()": {
        "details": "Leaves the contract without owner. It will not be possible to call `onlyOwner` functions anymore. Can only be called by the current owner. NOTE: Renouncing ownership will leave the contract without an owner, thereby removing any functionality that is only available to the owner."
      },
      "safeBatchTransferFrom(address,address,uint256[],uint256[],bytes)": {
        "details": "See {IERC1155-safeBatchTransferFrom}."
      },
      "safeTransferFrom(address,address,uint256,uint256,bytes)": {
        "details": "See {IERC1155-safeTransferFrom}."
      },
      "setApprovalForAll(address,bool)": {
        "details": "See {IERC1155-setApprovalForAll}."
      },
      "supportsInterface(bytes4)": {
        "details": "See {IERC165-supportsInterface}."
      },
      "transferOwnership(address)": {
        "details": "Transfers ownership of the contract to a new account (`newOwner`). Can only be called by the current owner."
      }
    },
    "version": 1
  },
  "userdoc": {
    "kind": "user",
    "methods": {},
    "version": 1
  }
}