{
  "contractName": "Market1155",
  "abi": [
    {
      "inputs": [],
      "stateMutability": "nonpayable",
      "type": "constructor"
    },
    {
      "anonymous": false,
      "inputs": [
        {
          "indexed": true,
          "internalType": "address",
          "name": "account",
          "type": "address"
        },
        {
          "indexed": true,
          "internalType": "address",
          "name": "operator",
          "type": "address"
        },
        {
          "indexed": false,
          "internalType": "bool",
          "name": "approved",
          "type": "bool"
        }
      ],
      "name": "ApprovalForAll",
      "type": "event"
    },
    {
      "anonymous": false,
      "inputs": [
        {
          "indexed": true,
          "internalType": "address",
          "name": "previousOwner",
          "type": "address"
        },
        {
          "indexed": true,
          "internalType": "address",
          "name": "newOwner",
          "type": "address"
        }
      ],
      "name": "OwnershipTransferred",
      "type": "event"
    },
    {
      "anonymous": false,
      "inputs": [
        {
          "indexed": true,
          "internalType": "address",
          "name": "operator",
          "type": "address"
        },
        {
          "indexed": true,
          "internalType": "address",
          "name": "from",
          "type": "address"
        },
        {
          "indexed": true,
          "internalType": "address",
          "name": "to",
          "type": "address"
        },
        {
          "indexed": false,
          "internalType": "uint256[]",
          "name": "ids",
          "type": "uint256[]"
        },
        {
          "indexed": false,
          "internalType": "uint256[]",
          "name": "values",
          "type": "uint256[]"
        }
      ],
      "name": "TransferBatch",
      "type": "event"
    },
    {
      "anonymous": false,
      "inputs": [
        {
          "indexed": true,
          "internalType": "address",
          "name": "operator",
          "type": "address"
        },
        {
          "indexed": true,
          "internalType": "address",
          "name": "from",
          "type": "address"
        },
        {
          "indexed": true,
          "internalType": "address",
          "name": "to",
          "type": "address"
        },
        {
          "indexed": false,
          "internalType": "uint256",
          "name": "id",
          "type": "uint256"
        },
        {
          "indexed": false,
          "internalType": "uint256",
          "name": "value",
          "type": "uint256"
        }
      ],
      "name": "TransferSingle",
      "type": "event"
    },
    {
      "anonymous": false,
      "inputs": [
        {
          "indexed": false,
          "internalType": "string",
          "name": "value",
          "type": "string"
        },
        {
          "indexed": true,
          "internalType": "uint256",
          "name": "id",
          "type": "uint256"
        }
      ],
      "name": "URI",
      "type": "event"
    },
    {
      "inputs": [],
      "name": "CHARIZARD",
      "outputs": [
        {
          "internalType": "uint256",
          "name": "",
          "type": "uint256"
        }
      ],
      "stateMutability": "view",
      "type": "function"
    },
    {
      "inputs": [],
      "name": "IVYSAUR",
      "outputs": [
        {
          "internalType": "uint256",
          "name": "",
          "type": "uint256"
        }
      ],
      "stateMutability": "view",
      "type": "function"
    },
    {
      "inputs": [],
      "name": "VENUSAUR",
      "outputs": [
        {
          "internalType": "uint256",
          "name": "",
          "type": "uint256"
        }
      ],
      "stateMutability": "view",
      "type": "function"
    },
    {
      "inputs": [
        {
          "internalType": "address",
          "name": "account",
          "type": "address"
        },
        {
          "internalType": "uint256",
          "name": "id",
          "type": "uint256"
        }
      ],
      "name": "balanceOf",
      "outputs": [
        {
          "internalType": "uint256",
          "name": "",
          "type": "uint256"
        }
      ],
      "stateMutability": "view",
      "type": "function"
    },
    {
      "inputs": [
        {
          "internalType": "address[]",
          "name": "accounts",
          "type": "address[]"
        },
        {
          "internalType": "uint256[]",
          "name": "ids",
          "type": "uint256[]"
        }
      ],
      "name": "balanceOfBatch",
      "outputs": [
        {
          "internalType": "uint256[]",
          "name": "",
          "type": "uint256[]"
        }
      ],
      "stateMutability": "view",
      "type": "function"
    },
    {
      "inputs": [
        {
          "internalType": "address",
          "name": "account",
          "type": "address"
        },
        {
          "internalType": "address",
          "name": "operator",
          "type": "address"
        }
      ],
      "name": "isApprovedForAll",
      "outputs": [
        {
          "internalType": "bool",
          "name": "",
          "type": "bool"
        }
      ],
      "stateMutability": "view",
      "type": "function"
    },
    {
      "inputs": [],
      "name": "owner",
      "outputs": [
        {
          "internalType": "address",
          "name": "",
          "type": "address"
        }
      ],
      "stateMutability": "view",
      "type": "function"
    },
    {
      "inputs": [],
      "name": "renounceOwnership",
      "outputs": [],
      "stateMutability": "nonpayable",
      "type": "function"
    },
    {
      "inputs": [
        {
          "internalType": "address",
          "name": "from",
          "type": "address"
        },
        {
          "internalType": "address",
          "name": "to",
          "type": "address"
        },
        {
          "internalType": "uint256[]",
          "name": "ids",
          "type": "uint256[]"
        },
        {
          "internalType": "uint256[]",
          "name": "amounts",
          "type": "uint256[]"
        },
        {
          "internalType": "bytes",
          "name": "data",
          "type": "bytes"
        }
      ],
      "name": "safeBatchTransferFrom",
      "outputs": [],
      "stateMutability": "nonpayable",
      "type": "function"
    },
    {
      "inputs": [
        {
          "internalType": "address",
          "name": "from",
          "type": "address"
        },
        {
          "internalType": "address",
          "name": "to",
          "type": "address"
        },
        {
          "internalType": "uint256",
          "name": "id",
          "type": "uint256"
        },
        {
          "internalType": "uint256",
          "name": "amount",
          "type": "uint256"
        },
        {
          "internalType": "bytes",
          "name": "data",
          "type": "bytes"
        }
      ],
      "name": "safeTransferFrom",
      "outputs": [],
      "stateMutability": "nonpayable",
      "type": "function"
    },
    {
      "inputs": [
        {
          "internalType": "address",
          "name": "operator",
          "type": "address"
        },
        {
          "internalType": "bool",
          "name": "approved",
          "type": "bool"
        }
      ],
      "name": "setApprovalForAll",
      "outputs": [],
      "stateMutability": "nonpayable",
      "type": "function"
    },
    {
      "inputs": [
        {
          "internalType": "bytes4",
          "name": "interfaceId",
          "type": "bytes4"
        }
      ],
      "name": "supportsInterface",
      "outputs": [
        {
          "internalType": "bool",
          "name": "",
          "type": "bool"
        }
      ],
      "stateMutability": "view",
      "type": "function"
    },
    {
      "inputs": [
        {
          "internalType": "address",
          "name": "newOwner",
          "type": "address"
        }
      ],
      "name": "transferOwnership",
      "outputs": [],
      "stateMutability": "nonpayable",
      "type": "function"
    },
    {
      "inputs": [
        {
          "internalType": "uint256",
          "name": "tokenId",
          "type": "uint256"
        }
      ],
      "name": "uri",
      "outputs": [
        {
          "internalType": "string",
          "name": "",
          "type": "string"
        }
      ],
      "stateMutability": "view",
      "type": "function"
    },
    {
      "inputs": [
        {
          "internalType": "uint256",
          "name": "tokenId",
          "type": "uint256"
        },
        {
          "internalType": "string",
          "name": "uri",
          "type": "string"
        }
      ],
      "name": "setTokenUri",
      "outputs": [],
      "stateMutability": "nonpayable",
      "type": "function"
    }
  ],
  "bytecode": "0x60806040523480156200001157600080fd5b506040518060a001604052806063815260200162003b7e606391396200003d81620000d360201b60201c565b506200005e62000052620000ef60201b60201c565b620000f760201b60201c565b62000083336000606460405180602001604052806000815250620001bd60201b60201c565b620000a8336001606460405180602001604052806000815250620001bd60201b60201c565b620000cd336002606460405180602001604052806000815250620001bd60201b60201c565b62000dad565b8060029080519060200190620000eb92919062000628565b5050565b600033905090565b6000600360009054906101000a900473ffffffffffffffffffffffffffffffffffffffff16905081600360006101000a81548173ffffffffffffffffffffffffffffffffffffffff021916908373ffffffffffffffffffffffffffffffffffffffff1602179055508173ffffffffffffffffffffffffffffffffffffffff168173ffffffffffffffffffffffffffffffffffffffff167f8be0079c531659141344cd1fd0a4f28419497f9722a3daafe3b4186f6b6457e060405160405180910390a35050565b600073ffffffffffffffffffffffffffffffffffffffff168473ffffffffffffffffffffffffffffffffffffffff16141562000230576040517f08c379a0000000000000000000000000000000000000000000000000000000008152600401620002279062000906565b60405180910390fd5b600062000242620000ef60201b60201c565b90506200027b816000876200025d886200038260201b60201c565b6200026e886200038260201b60201c565b876200040360201b60201c565b8260008086815260200190815260200160002060008773ffffffffffffffffffffffffffffffffffffffff1673ffffffffffffffffffffffffffffffffffffffff1681526020019081526020016000206000828254620002dc919062000997565b925050819055508473ffffffffffffffffffffffffffffffffffffffff16600073ffffffffffffffffffffffffffffffffffffffff168273ffffffffffffffffffffffffffffffffffffffff167fc3d58168c5ae7397731d063d5bbf3d657854427343f4c083240f7aacaa2d0f6287876040516200035c92919062000928565b60405180910390a46200037b816000878787876200040b60201b60201c565b5050505050565b60606000600167ffffffffffffffff811115620003a457620003a362000b8d565b5b604051908082528060200260200182016040528015620003d35781602001602082028036833780820191505090505b5090508281600081518110620003ee57620003ed62000b5e565b5b60200260200101818152505080915050919050565b505050505050565b620004378473ffffffffffffffffffffffffffffffffffffffff166200061560201b62000b0f1760201c565b156200060d578373ffffffffffffffffffffffffffffffffffffffff1663f23a6e6187878686866040518663ffffffff1660e01b8152600401620004809594939291906200083a565b602060405180830381600087803b1580156200049b57600080fd5b505af1925050508015620004cf57506040513d601f19601f82011682018060405250810190620004cc9190620006ef565b60015b6200058157620004de62000bbc565b806308c379a01415620005425750620004f662000cf1565b8062000503575062000544565b806040517f08c379a00000000000000000000000000000000000000000000000000000000081526004016200053991906200089e565b60405180910390fd5b505b6040517f08c379a00000000000000000000000000000000000000000000000000000000081526004016200057890620008c2565b60405180910390fd5b63f23a6e6160e01b7bffffffffffffffffffffffffffffffffffffffffffffffffffffffff1916817bffffffffffffffffffffffffffffffffffffffffffffffffffffffff1916146200060b576040517f08c379a00000000000000000000000000000000000000000000000000000000081526004016200060290620008e4565b60405180910390fd5b505b505050505050565b600080823b905060008111915050919050565b828054620006369062000a94565b90600052602060002090601f0160209004810192826200065a5760008555620006a6565b82601f106200067557805160ff1916838001178555620006a6565b82800160010185558215620006a6579182015b82811115620006a557825182559160200191906001019062000688565b5b509050620006b59190620006b9565b5090565b5b80821115620006d4576000816000905550600101620006ba565b5090565b600081519050620006e98162000d93565b92915050565b60006020828403121562000708576200070762000be1565b5b60006200071884828501620006d8565b91505092915050565b6200072c81620009f4565b82525050565b60006200073f826200095f565b6200074b818562000975565b93506200075d81856020860162000a5e565b620007688162000be6565b840191505092915050565b600062000780826200096a565b6200078c818562000986565b93506200079e81856020860162000a5e565b620007a98162000be6565b840191505092915050565b6000620007c360348362000986565b9150620007d08262000c04565b604082019050919050565b6000620007ea60288362000986565b9150620007f78262000c53565b604082019050919050565b60006200081160218362000986565b91506200081e8262000ca2565b604082019050919050565b620008348162000a54565b82525050565b600060a08201905062000851600083018862000721565b62000860602083018762000721565b6200086f604083018662000829565b6200087e606083018562000829565b818103608083015262000892818462000732565b90509695505050505050565b60006020820190508181036000830152620008ba818462000773565b905092915050565b60006020820190508181036000830152620008dd81620007b4565b9050919050565b60006020820190508181036000830152620008ff81620007db565b9050919050565b60006020820190508181036000830152620009218162000802565b9050919050565b60006040820190506200093f600083018562000829565b6200094e602083018462000829565b9392505050565b6000604051905090565b600081519050919050565b600081519050919050565b600082825260208201905092915050565b600082825260208201905092915050565b6000620009a48262000a54565b9150620009b18362000a54565b9250827fffffffffffffffffffffffffffffffffffffffffffffffffffffffffffffffff03821115620009e957620009e862000b00565b5b828201905092915050565b600062000a018262000a34565b9050919050565b60007fffffffff0000000000000000000000000000000000000000000000000000000082169050919050565b600073ffffffffffffffffffffffffffffffffffffffff82169050919050565b6000819050919050565b60005b8381101562000a7e57808201518184015260208101905062000a61565b8381111562000a8e576000848401525b50505050565b6000600282049050600182168062000aad57607f821691505b6020821081141562000ac45762000ac362000b2f565b5b50919050565b62000ad58262000be6565b810181811067ffffffffffffffff8211171562000af75762000af662000b8d565b5b80604052505050565b7f4e487b7100000000000000000000000000000000000000000000000000000000600052601160045260246000fd5b7f4e487b7100000000000000000000000000000000000000000000000000000000600052602260045260246000fd5b7f4e487b7100000000000000000000000000000000000000000000000000000000600052603260045260246000fd5b7f4e487b7100000000000000000000000000000000000000000000000000000000600052604160045260246000fd5b600060033d111562000bde5760046000803e62000bdb60005162000bf7565b90505b90565b600080fd5b6000601f19601f8301169050919050565b60008160e01c9050919050565b7f455243313135353a207472616e7366657220746f206e6f6e204552433131353560008201527f526563656976657220696d706c656d656e746572000000000000000000000000602082015250565b7f455243313135353a204552433131353552656365697665722072656a6563746560008201527f6420746f6b656e73000000000000000000000000000000000000000000000000602082015250565b7f455243313135353a206d696e7420746f20746865207a65726f2061646472657360008201527f7300000000000000000000000000000000000000000000000000000000000000602082015250565b600060443d101562000d035762000d90565b62000d0d62000955565b60043d036004823e80513d602482011167ffffffffffffffff8211171562000d3757505062000d90565b808201805167ffffffffffffffff81111562000d57575050505062000d90565b80602083010160043d03850181111562000d7657505050505062000d90565b62000d878260200185018662000aca565b82955050505050505b90565b62000d9e8162000a08565b811462000daa57600080fd5b50565b612dc18062000dbd6000396000f3fe608060405234801561001057600080fd5b50600436106100f45760003560e01c80637f7934b111610097578063a8b3c1a111610066578063a8b3c1a114610271578063e985e9c51461028f578063f242432a146102bf578063f2fde38b146102db576100f4565b80637f7934b1146101fb5780638da5cb5b146102195780639e1f515314610237578063a22cb46514610255576100f4565b80632eb2c2d6116100d35780632eb2c2d6146101895780634e1273f4146101a557806357f7789e146101d5578063715018a6146101f1576100f4565b8062fdd58e146100f957806301ffc9a7146101295780630e89341c14610159575b600080fd5b610113600480360381019061010e9190611ce8565b6102f7565b6040516101209190612481565b60405180910390f35b610143600480360381019061013e9190611da0565b6103c0565b60405161015091906122a4565b60405180910390f35b610173600480360381019061016e9190611dfa565b6104a2565b60405161018091906122bf565b60405180910390f35b6101a3600480360381019061019e9190611b42565b610547565b005b6101bf60048036038101906101ba9190611d28565b6105e8565b6040516101cc919061224b565b60405180910390f35b6101ef60048036038101906101ea9190611e27565b610701565b005b6101f961080b565b005b610203610893565b6040516102109190612481565b60405180910390f35b610221610898565b60405161022e919061216e565b60405180910390f35b61023f6108c2565b60405161024c9190612481565b60405180910390f35b61026f600480360381019061026a9190611ca8565b6108c7565b005b6102796108dd565b6040516102869190612481565b60405180910390f35b6102a960048036038101906102a49190611b02565b6108e2565b6040516102b691906122a4565b60405180910390f35b6102d960048036038101906102d49190611c11565b610976565b005b6102f560048036038101906102f09190611ad5565b610a17565b005b60008073ffffffffffffffffffffffffffffffffffffffff168373ffffffffffffffffffffffffffffffffffffffff161415610368576040517f08c379a000000000000000000000000000000000000000000000000000000000815260040161035f90612321565b60405180910390fd5b60008083815260200190815260200160002060008473ffffffffffffffffffffffffffffffffffffffff1673ffffffffffffffffffffffffffffffffffffffff16815260200190815260200160002054905092915050565b60007fd9b67a26000000000000000000000000000000000000000000000000000000007bffffffffffffffffffffffffffffffffffffffffffffffffffffffff1916827bffffffffffffffffffffffffffffffffffffffffffffffffffffffff1916148061048b57507f0e89341c000000000000000000000000000000000000000000000000000000007bffffffffffffffffffffffffffffffffffffffffffffffffffffffff1916827bffffffffffffffffffffffffffffffffffffffffffffffffffffffff1916145b8061049b575061049a82610b22565b5b9050919050565b60606004600083815260200190815260200160002080546104c290612721565b80601f01602080910402602001604051908101604052809291908181526020018280546104ee90612721565b801561053b5780601f106105105761010080835404028352916020019161053b565b820191906000526020600020905b81548152906001019060200180831161051e57829003601f168201915b50505050509050919050565b61054f610b8c565b73ffffffffffffffffffffffffffffffffffffffff168573ffffffffffffffffffffffffffffffffffffffff16148061059557506105948561058f610b8c565b6108e2565b5b6105d4576040517f08c379a00000000000000000000000000000000000000000000000000000000081526004016105cb906123a1565b60405180910390fd5b6105e18585858585610b94565b5050505050565b6060815183511461062e576040517f08c379a000000000000000000000000000000000000000000000000000000000815260040161062590612441565b60405180910390fd5b6000835167ffffffffffffffff81111561064b5761064a61285a565b5b6040519080825280602002602001820160405280156106795781602001602082028036833780820191505090505b50905060005b84518110156106f6576106c685828151811061069e5761069d61282b565b5b60200260200101518583815181106106b9576106b861282b565b5b60200260200101516102f7565b8282815181106106d9576106d861282b565b5b602002602001018181525050806106ef90612784565b905061067f565b508091505092915050565b610709610b8c565b73ffffffffffffffffffffffffffffffffffffffff16610727610898565b73ffffffffffffffffffffffffffffffffffffffff161461077d576040517f08c379a000000000000000000000000000000000000000000000000000000000815260040161077490612401565b60405180910390fd5b600060046000848152602001908152602001600020805461079d90612721565b9050146107df576040517f08c379a00000000000000000000000000000000000000000000000000000000081526004016107d6906123c1565b60405180910390fd5b806004600084815260200190815260200160002090805190602001906108069291906117ad565b505050565b610813610b8c565b73ffffffffffffffffffffffffffffffffffffffff16610831610898565b73ffffffffffffffffffffffffffffffffffffffff1614610887576040517f08c379a000000000000000000000000000000000000000000000000000000000815260040161087e90612401565b60405180910390fd5b6108916000610ea8565b565b600081565b6000600360009054906101000a900473ffffffffffffffffffffffffffffffffffffffff16905090565b600281565b6108d96108d2610b8c565b8383610f6e565b5050565b600181565b6000600160008473ffffffffffffffffffffffffffffffffffffffff1673ffffffffffffffffffffffffffffffffffffffff16815260200190815260200160002060008373ffffffffffffffffffffffffffffffffffffffff1673ffffffffffffffffffffffffffffffffffffffff16815260200190815260200160002060009054906101000a900460ff16905092915050565b61097e610b8c565b73ffffffffffffffffffffffffffffffffffffffff168573ffffffffffffffffffffffffffffffffffffffff1614806109c457506109c3856109be610b8c565b6108e2565b5b610a03576040517f08c379a00000000000000000000000000000000000000000000000000000000081526004016109fa90612361565b60405180910390fd5b610a1085858585856110db565b5050505050565b610a1f610b8c565b73ffffffffffffffffffffffffffffffffffffffff16610a3d610898565b73ffffffffffffffffffffffffffffffffffffffff1614610a93576040517f08c379a0000000000000000000000000000000000000000000000000000000008152600401610a8a90612401565b60405180910390fd5b600073ffffffffffffffffffffffffffffffffffffffff168173ffffffffffffffffffffffffffffffffffffffff161415610b03576040517f08c379a0000000000000000000000000000000000000000000000000000000008152600401610afa90612341565b60405180910390fd5b610b0c81610ea8565b50565b600080823b905060008111915050919050565b60007f01ffc9a7000000000000000000000000000000000000000000000000000000007bffffffffffffffffffffffffffffffffffffffffffffffffffffffff1916827bffffffffffffffffffffffffffffffffffffffffffffffffffffffff1916149050919050565b600033905090565b8151835114610bd8576040517f08c379a0000000000000000000000000000000000000000000000000000000008152600401610bcf90612461565b60405180910390fd5b600073ffffffffffffffffffffffffffffffffffffffff168473ffffffffffffffffffffffffffffffffffffffff161415610c48576040517f08c379a0000000000000000000000000000000000000000000000000000000008152600401610c3f90612381565b60405180910390fd5b6000610c52610b8c565b9050610c6281878787878761135d565b60005b8451811015610e13576000858281518110610c8357610c8261282b565b5b602002602001015190506000858381518110610ca257610ca161282b565b5b60200260200101519050600080600084815260200190815260200160002060008b73ffffffffffffffffffffffffffffffffffffffff1673ffffffffffffffffffffffffffffffffffffffff16815260200190815260200160002054905081811015610d43576040517f08c379a0000000000000000000000000000000000000000000000000000000008152600401610d3a906123e1565b60405180910390fd5b81810360008085815260200190815260200160002060008c73ffffffffffffffffffffffffffffffffffffffff1673ffffffffffffffffffffffffffffffffffffffff168152602001908152602001600020819055508160008085815260200190815260200160002060008b73ffffffffffffffffffffffffffffffffffffffff1673ffffffffffffffffffffffffffffffffffffffff1681526020019081526020016000206000828254610df89190612615565b9250508190555050505080610e0c90612784565b9050610c65565b508473ffffffffffffffffffffffffffffffffffffffff168673ffffffffffffffffffffffffffffffffffffffff168273ffffffffffffffffffffffffffffffffffffffff167f4a39dc06d4c0dbc64b70af90fd698a233a518aa5d07e595d983b8c0526c8f7fb8787604051610e8a92919061226d565b60405180910390a4610ea0818787878787611365565b505050505050565b6000600360009054906101000a900473ffffffffffffffffffffffffffffffffffffffff16905081600360006101000a81548173ffffffffffffffffffffffffffffffffffffffff021916908373ffffffffffffffffffffffffffffffffffffffff1602179055508173ffffffffffffffffffffffffffffffffffffffff168173ffffffffffffffffffffffffffffffffffffffff167f8be0079c531659141344cd1fd0a4f28419497f9722a3daafe3b4186f6b6457e060405160405180910390a35050565b8173ffffffffffffffffffffffffffffffffffffffff168373ffffffffffffffffffffffffffffffffffffffff161415610fdd576040517f08c379a0000000000000000000000000000000000000000000000000000000008152600401610fd490612421565b60405180910390fd5b80600160008573ffffffffffffffffffffffffffffffffffffffff1673ffffffffffffffffffffffffffffffffffffffff16815260200190815260200160002060008473ffffffffffffffffffffffffffffffffffffffff1673ffffffffffffffffffffffffffffffffffffffff16815260200190815260200160002060006101000a81548160ff0219169083151502179055508173ffffffffffffffffffffffffffffffffffffffff168373ffffffffffffffffffffffffffffffffffffffff167f17307eab39ab6107e8899845ad3d59bd9653f200f220920489ca2b5937696c31836040516110ce91906122a4565b60405180910390a3505050565b600073ffffffffffffffffffffffffffffffffffffffff168473ffffffffffffffffffffffffffffffffffffffff16141561114b576040517f08c379a000000000000000000000000000000000000000000000000000000000815260040161114290612381565b60405180910390fd5b6000611155610b8c565b90506111758187876111668861154c565b61116f8861154c565b8761135d565b600080600086815260200190815260200160002060008873ffffffffffffffffffffffffffffffffffffffff1673ffffffffffffffffffffffffffffffffffffffff1681526020019081526020016000205490508381101561120c576040517f08c379a0000000000000000000000000000000000000000000000000000000008152600401611203906123e1565b60405180910390fd5b83810360008087815260200190815260200160002060008973ffffffffffffffffffffffffffffffffffffffff1673ffffffffffffffffffffffffffffffffffffffff168152602001908152602001600020819055508360008087815260200190815260200160002060008873ffffffffffffffffffffffffffffffffffffffff1673ffffffffffffffffffffffffffffffffffffffff16815260200190815260200160002060008282546112c19190612615565b925050819055508573ffffffffffffffffffffffffffffffffffffffff168773ffffffffffffffffffffffffffffffffffffffff168373ffffffffffffffffffffffffffffffffffffffff167fc3d58168c5ae7397731d063d5bbf3d657854427343f4c083240f7aacaa2d0f62888860405161133e92919061249c565b60405180910390a46113548288888888886115c6565b50505050505050565b505050505050565b6113848473ffffffffffffffffffffffffffffffffffffffff16610b0f565b15611544578373ffffffffffffffffffffffffffffffffffffffff1663bc197c8187878686866040518663ffffffff1660e01b81526004016113ca959493929190612189565b602060405180830381600087803b1580156113e457600080fd5b505af192505050801561141557506040513d601f19601f820116820180604052508101906114129190611dcd565b60015b6114bb57611421612889565b806308c379a0141561147e5750611436612c99565b806114415750611480565b806040517f08c379a000000000000000000000000000000000000000000000000000000000815260040161147591906122bf565b60405180910390fd5b505b6040517f08c379a00000000000000000000000000000000000000000000000000000000081526004016114b2906122e1565b60405180910390fd5b63bc197c8160e01b7bffffffffffffffffffffffffffffffffffffffffffffffffffffffff1916817bffffffffffffffffffffffffffffffffffffffffffffffffffffffff191614611542576040517f08c379a000000000000000000000000000000000000000000000000000000000815260040161153990612301565b60405180910390fd5b505b505050505050565b60606000600167ffffffffffffffff81111561156b5761156a61285a565b5b6040519080825280602002602001820160405280156115995781602001602082028036833780820191505090505b50905082816000815181106115b1576115b061282b565b5b60200260200101818152505080915050919050565b6115e58473ffffffffffffffffffffffffffffffffffffffff16610b0f565b156117a5578373ffffffffffffffffffffffffffffffffffffffff1663f23a6e6187878686866040518663ffffffff1660e01b815260040161162b9594939291906121f1565b602060405180830381600087803b15801561164557600080fd5b505af192505050801561167657506040513d601f19601f820116820180604052508101906116739190611dcd565b60015b61171c57611682612889565b806308c379a014156116df5750611697612c99565b806116a257506116e1565b806040517f08c379a00000000000000000000000000000000000000000000000000000000081526004016116d691906122bf565b60405180910390fd5b505b6040517f08c379a0000000000000000000000000000000000000000000000000000000008152600401611713906122e1565b60405180910390fd5b63f23a6e6160e01b7bffffffffffffffffffffffffffffffffffffffffffffffffffffffff1916817bffffffffffffffffffffffffffffffffffffffffffffffffffffffff1916146117a3576040517f08c379a000000000000000000000000000000000000000000000000000000000815260040161179a90612301565b60405180910390fd5b505b505050505050565b8280546117b990612721565b90600052602060002090601f0160209004810192826117db5760008555611822565b82601f106117f457805160ff1916838001178555611822565b82800160010185558215611822579182015b82811115611821578251825591602001919060010190611806565b5b50905061182f9190611833565b5090565b5b8082111561184c576000816000905550600101611834565b5090565b600061186361185e846124ea565b6124c5565b90508083825260208201905082856020860282011115611886576118856128b0565b5b60005b858110156118b6578161189c88826119b4565b845260208401935060208301925050600181019050611889565b5050509392505050565b60006118d36118ce84612516565b6124c5565b905080838252602082019050828560208602820111156118f6576118f56128b0565b5b60005b85811015611926578161190c8882611ac0565b8452602084019350602083019250506001810190506118f9565b5050509392505050565b600061194361193e84612542565b6124c5565b90508281526020810184848401111561195f5761195e6128b5565b5b61196a8482856126df565b509392505050565b600061198561198084612573565b6124c5565b9050828152602081018484840111156119a1576119a06128b5565b5b6119ac8482856126df565b509392505050565b6000813590506119c381612d2f565b92915050565b600082601f8301126119de576119dd6128ab565b5b81356119ee848260208601611850565b91505092915050565b600082601f830112611a0c57611a0b6128ab565b5b8135611a1c8482602086016118c0565b91505092915050565b600081359050611a3481612d46565b92915050565b600081359050611a4981612d5d565b92915050565b600081519050611a5e81612d5d565b92915050565b600082601f830112611a7957611a786128ab565b5b8135611a89848260208601611930565b91505092915050565b600082601f830112611aa757611aa66128ab565b5b8135611ab7848260208601611972565b91505092915050565b600081359050611acf81612d74565b92915050565b600060208284031215611aeb57611aea6128bf565b5b6000611af9848285016119b4565b91505092915050565b60008060408385031215611b1957611b186128bf565b5b6000611b27858286016119b4565b9250506020611b38858286016119b4565b9150509250929050565b600080600080600060a08688031215611b5e57611b5d6128bf565b5b6000611b6c888289016119b4565b9550506020611b7d888289016119b4565b945050604086013567ffffffffffffffff811115611b9e57611b9d6128ba565b5b611baa888289016119f7565b935050606086013567ffffffffffffffff811115611bcb57611bca6128ba565b5b611bd7888289016119f7565b925050608086013567ffffffffffffffff811115611bf857611bf76128ba565b5b611c0488828901611a64565b9150509295509295909350565b600080600080600060a08688031215611c2d57611c2c6128bf565b5b6000611c3b888289016119b4565b9550506020611c4c888289016119b4565b9450506040611c5d88828901611ac0565b9350506060611c6e88828901611ac0565b925050608086013567ffffffffffffffff811115611c8f57611c8e6128ba565b5b611c9b88828901611a64565b9150509295509295909350565b60008060408385031215611cbf57611cbe6128bf565b5b6000611ccd858286016119b4565b9250506020611cde85828601611a25565b9150509250929050565b60008060408385031215611cff57611cfe6128bf565b5b6000611d0d858286016119b4565b9250506020611d1e85828601611ac0565b9150509250929050565b60008060408385031215611d3f57611d3e6128bf565b5b600083013567ffffffffffffffff811115611d5d57611d5c6128ba565b5b611d69858286016119c9565b925050602083013567ffffffffffffffff811115611d8a57611d896128ba565b5b611d96858286016119f7565b9150509250929050565b600060208284031215611db657611db56128bf565b5b6000611dc484828501611a3a565b91505092915050565b600060208284031215611de357611de26128bf565b5b6000611df184828501611a4f565b91505092915050565b600060208284031215611e1057611e0f6128bf565b5b6000611e1e84828501611ac0565b91505092915050565b60008060408385031215611e3e57611e3d6128bf565b5b6000611e4c85828601611ac0565b925050602083013567ffffffffffffffff811115611e6d57611e6c6128ba565b5b611e7985828601611a92565b9150509250929050565b6000611e8f8383612150565b60208301905092915050565b611ea48161266b565b82525050565b6000611eb5826125b4565b611ebf81856125e2565b9350611eca836125a4565b8060005b83811015611efb578151611ee28882611e83565b9750611eed836125d5565b925050600181019050611ece565b5085935050505092915050565b611f118161267d565b82525050565b6000611f22826125bf565b611f2c81856125f3565b9350611f3c8185602086016126ee565b611f45816128c4565b840191505092915050565b6000611f5b826125ca565b611f658185612604565b9350611f758185602086016126ee565b611f7e816128c4565b840191505092915050565b6000611f96603483612604565b9150611fa1826128e2565b604082019050919050565b6000611fb9602883612604565b9150611fc482612931565b604082019050919050565b6000611fdc602b83612604565b9150611fe782612980565b604082019050919050565b6000611fff602683612604565b915061200a826129cf565b604082019050919050565b6000612022602983612604565b915061202d82612a1e565b604082019050919050565b6000612045602583612604565b915061205082612a6d565b604082019050919050565b6000612068603283612604565b915061207382612abc565b604082019050919050565b600061208b601483612604565b915061209682612b0b565b602082019050919050565b60006120ae602a83612604565b91506120b982612b34565b604082019050919050565b60006120d1602083612604565b91506120dc82612b83565b602082019050919050565b60006120f4602983612604565b91506120ff82612bac565b604082019050919050565b6000612117602983612604565b915061212282612bfb565b604082019050919050565b600061213a602883612604565b915061214582612c4a565b604082019050919050565b612159816126d5565b82525050565b612168816126d5565b82525050565b60006020820190506121836000830184611e9b565b92915050565b600060a08201905061219e6000830188611e9b565b6121ab6020830187611e9b565b81810360408301526121bd8186611eaa565b905081810360608301526121d18185611eaa565b905081810360808301526121e58184611f17565b90509695505050505050565b600060a0820190506122066000830188611e9b565b6122136020830187611e9b565b612220604083018661215f565b61222d606083018561215f565b818103608083015261223f8184611f17565b90509695505050505050565b600060208201905081810360008301526122658184611eaa565b905092915050565b600060408201905081810360008301526122878185611eaa565b9050818103602083015261229b8184611eaa565b90509392505050565b60006020820190506122b96000830184611f08565b92915050565b600060208201905081810360008301526122d98184611f50565b905092915050565b600060208201905081810360008301526122fa81611f89565b9050919050565b6000602082019050818103600083015261231a81611fac565b9050919050565b6000602082019050818103600083015261233a81611fcf565b9050919050565b6000602082019050818103600083015261235a81611ff2565b9050919050565b6000602082019050818103600083015261237a81612015565b9050919050565b6000602082019050818103600083015261239a81612038565b9050919050565b600060208201905081810360008301526123ba8161205b565b9050919050565b600060208201905081810360008301526123da8161207e565b9050919050565b600060208201905081810360008301526123fa816120a1565b9050919050565b6000602082019050818103600083015261241a816120c4565b9050919050565b6000602082019050818103600083015261243a816120e7565b9050919050565b6000602082019050818103600083015261245a8161210a565b9050919050565b6000602082019050818103600083015261247a8161212d565b9050919050565b6000602082019050612496600083018461215f565b92915050565b60006040820190506124b1600083018561215f565b6124be602083018461215f565b9392505050565b60006124cf6124e0565b90506124db8282612753565b919050565b6000604051905090565b600067ffffffffffffffff8211156125055761250461285a565b5b602082029050602081019050919050565b600067ffffffffffffffff8211156125315761253061285a565b5b602082029050602081019050919050565b600067ffffffffffffffff82111561255d5761255c61285a565b5b612566826128c4565b9050602081019050919050565b600067ffffffffffffffff82111561258e5761258d61285a565b5b612597826128c4565b9050602081019050919050565b6000819050602082019050919050565b600081519050919050565b600081519050919050565b600081519050919050565b6000602082019050919050565b600082825260208201905092915050565b600082825260208201905092915050565b600082825260208201905092915050565b6000612620826126d5565b915061262b836126d5565b9250827fffffffffffffffffffffffffffffffffffffffffffffffffffffffffffffffff038211156126605761265f6127cd565b5b828201905092915050565b6000612676826126b5565b9050919050565b60008115159050919050565b60007fffffffff0000000000000000000000000000000000000000000000000000000082169050919050565b600073ffffffffffffffffffffffffffffffffffffffff82169050919050565b6000819050919050565b82818337600083830152505050565b60005b8381101561270c5780820151818401526020810190506126f1565b8381111561271b576000848401525b50505050565b6000600282049050600182168061273957607f821691505b6020821081141561274d5761274c6127fc565b5b50919050565b61275c826128c4565b810181811067ffffffffffffffff8211171561277b5761277a61285a565b5b80604052505050565b600061278f826126d5565b91507fffffffffffffffffffffffffffffffffffffffffffffffffffffffffffffffff8214156127c2576127c16127cd565b5b600182019050919050565b7f4e487b7100000000000000000000000000000000000000000000000000000000600052601160045260246000fd5b7f4e487b7100000000000000000000000000000000000000000000000000000000600052602260045260246000fd5b7f4e487b7100000000000000000000000000000000000000000000000000000000600052603260045260246000fd5b7f4e487b7100000000000000000000000000000000000000000000000000000000600052604160045260246000fd5b600060033d11156128a85760046000803e6128a56000516128d5565b90505b90565b600080fd5b600080fd5b600080fd5b600080fd5b600080fd5b6000601f19601f8301169050919050565b60008160e01c9050919050565b7f455243313135353a207472616e7366657220746f206e6f6e204552433131353560008201527f526563656976657220696d706c656d656e746572000000000000000000000000602082015250565b7f455243313135353a204552433131353552656365697665722072656a6563746560008201527f6420746f6b656e73000000000000000000000000000000000000000000000000602082015250565b7f455243313135353a2062616c616e636520717565727920666f7220746865207a60008201527f65726f2061646472657373000000000000000000000000000000000000000000602082015250565b7f4f776e61626c653a206e6577206f776e657220697320746865207a65726f206160008201527f6464726573730000000000000000000000000000000000000000000000000000602082015250565b7f455243313135353a2063616c6c6572206973206e6f74206f776e6572206e6f7260008201527f20617070726f7665640000000000000000000000000000000000000000000000602082015250565b7f455243313135353a207472616e7366657220746f20746865207a65726f20616460008201527f6472657373000000000000000000000000000000000000000000000000000000602082015250565b7f455243313135353a207472616e736665722063616c6c6572206973206e6f742060008201527f6f776e6572206e6f7220617070726f7665640000000000000000000000000000602082015250565b7f43616e6e6f742073657420757269207477696365000000000000000000000000600082015250565b7f455243313135353a20696e73756666696369656e742062616c616e636520666f60008201527f72207472616e7366657200000000000000000000000000000000000000000000602082015250565b7f4f776e61626c653a2063616c6c6572206973206e6f7420746865206f776e6572600082015250565b7f455243313135353a2073657474696e6720617070726f76616c2073746174757360008201527f20666f722073656c660000000000000000000000000000000000000000000000602082015250565b7f455243313135353a206163636f756e747320616e6420696473206c656e67746860008201527f206d69736d617463680000000000000000000000000000000000000000000000602082015250565b7f455243313135353a2069647320616e6420616d6f756e7473206c656e6774682060008201527f6d69736d61746368000000000000000000000000000000000000000000000000602082015250565b600060443d1015612ca957612d2c565b612cb16124e0565b60043d036004823e80513d602482011167ffffffffffffffff82111715612cd9575050612d2c565b808201805167ffffffffffffffff811115612cf75750505050612d2c565b80602083010160043d038501811115612d14575050505050612d2c565b612d2382602001850186612753565b82955050505050505b90565b612d388161266b565b8114612d4357600080fd5b50565b612d4f8161267d565b8114612d5a57600080fd5b50565b612d6681612689565b8114612d7157600080fd5b50565b612d7d816126d5565b8114612d8857600080fd5b5056fea2646970667358221220c1dd682b8619cbe13c2645dc3725a66daff6dcd64fdb756429c67111c869216a64736f6c6343000807003368747470733a2f2f697066732e6d6f72616c69732e696f3a323035332f697066732f516d533261736f78724136524835424b77625a4167506b7462476263474b794b71437365696d7650774c61514c562f6d657461646174612f7b69647d2e6a736f6e",
  "immutableReferences": {},
  "source": "// contracts/Market1155.sol\n// SPDX-License-Identifier: MIT\npragma solidity ^0.8.7;\n\nimport \"@openzeppelin/contracts/token/ERC1155/ERC1155.sol\";\nimport \"@openzeppelin/contracts/access/Ownable.sol\";\nimport \"@openzeppelin/contracts/utils/Strings.sol\";\n\ncontract Market1155 is ERC1155, Ownable {\n\n    uint256 public constant CHARIZARD = 0;\n    uint256 public constant IVYSAUR = 1;\n    uint256 public constant VENUSAUR = 2;\n    \n    mapping (uint256 => string) private _uris;\n\n    constructor() public ERC1155(\"https://ipfs.moralis.io:2053/ipfs/QmS2asoxrA6RH5BKwbZAgPktbGbcGKyKqCseimvPwLaQLV/metadata/{id}.json\") {\n                                //   https://ipfs.moralis.io:2053/ipfs/QmS2asoxrA6RH5BKwbZAgPktbGbcGKyKqCseimvPwLaQLV/metadata/1.json\n\n    \n        _mint(msg.sender, CHARIZARD, 100, \"\");\n        _mint(msg.sender, IVYSAUR, 100, \"\");\n        _mint(msg.sender, VENUSAUR, 100, \"\");\n\n    }\n    \n    function uri(uint256 tokenId) override public view returns (string memory) {\n        return(_uris[tokenId]);\n    }\n    \n    function setTokenUri(uint256 tokenId, string memory uri) public onlyOwner {\n        require(bytes(_uris[tokenId]).length == 0, \"Cannot set uri twice\"); \n        _uris[tokenId] = uri; \n    }\n}",
  "sourcePath": "/Users/mm-mac/Desktop/mm-projects-blockchain/kaijun-ticketing/tixlab/tixlab/contracts/Market1155.sol",
  "compiler": {
    "name": "solc",
    "version": "0.8.7+commit.e28d00a7.Emscripten.clang"
  },
  "schemaVersion": "3.2.3",
  "updatedAt": "2022-01-29T10:07:59.946Z",
  "devdoc": {
    "kind": "dev",
    "methods": {
      "balanceOf(address,uint256)": {
        "details": "See {IERC1155-balanceOf}. Requirements: - `account` cannot be the zero address."
      },
      "balanceOfBatch(address[],uint256[])": {
        "details": "See {IERC1155-balanceOfBatch}. Requirements: - `accounts` and `ids` must have the same length."
      },
      "isApprovedForAll(address,address)": {
        "details": "See {IERC1155-isApprovedForAll}."
      },
      "owner()": {
        "details": "Returns the address of the current owner."
      },
      "renounceOwnership()": {
        "details": "Leaves the contract without owner. It will not be possible to call `onlyOwner` functions anymore. Can only be called by the current owner. NOTE: Renouncing ownership will leave the contract without an owner, thereby removing any functionality that is only available to the owner."
      },
      "safeBatchTransferFrom(address,address,uint256[],uint256[],bytes)": {
        "details": "See {IERC1155-safeBatchTransferFrom}."
      },
      "safeTransferFrom(address,address,uint256,uint256,bytes)": {
        "details": "See {IERC1155-safeTransferFrom}."
      },
      "setApprovalForAll(address,bool)": {
        "details": "See {IERC1155-setApprovalForAll}."
      },
      "supportsInterface(bytes4)": {
        "details": "See {IERC165-supportsInterface}."
      },
      "transferOwnership(address)": {
        "details": "Transfers ownership of the contract to a new account (`newOwner`). Can only be called by the current owner."
      }
    },
    "version": 1
  },
  "userdoc": {
    "kind": "user",
    "methods": {},
    "version": 1
  }
}