{
  "contractName": "Market",
  "abi": [
    {
      "inputs": [],
      "stateMutability": "nonpayable",
      "type": "constructor"
    },
    {
      "anonymous": false,
      "inputs": [
        {
          "indexed": true,
          "internalType": "address",
          "name": "owner",
          "type": "address"
        },
        {
          "indexed": true,
          "internalType": "address",
          "name": "approved",
          "type": "address"
        },
        {
          "indexed": true,
          "internalType": "uint256",
          "name": "tokenId",
          "type": "uint256"
        }
      ],
      "name": "Approval",
      "type": "event"
    },
    {
      "anonymous": false,
      "inputs": [
        {
          "indexed": true,
          "internalType": "address",
          "name": "owner",
          "type": "address"
        },
        {
          "indexed": true,
          "internalType": "address",
          "name": "operator",
          "type": "address"
        },
        {
          "indexed": false,
          "internalType": "bool",
          "name": "approved",
          "type": "bool"
        }
      ],
      "name": "ApprovalForAll",
      "type": "event"
    },
    {
      "anonymous": false,
      "inputs": [
        {
          "indexed": true,
          "internalType": "address",
          "name": "previousOwner",
          "type": "address"
        },
        {
          "indexed": true,
          "internalType": "address",
          "name": "newOwner",
          "type": "address"
        }
      ],
      "name": "OwnershipTransferred",
      "type": "event"
    },
    {
      "anonymous": false,
      "inputs": [
        {
          "indexed": true,
          "internalType": "address",
          "name": "from",
          "type": "address"
        },
        {
          "indexed": true,
          "internalType": "address",
          "name": "to",
          "type": "address"
        },
        {
          "indexed": true,
          "internalType": "uint256",
          "name": "tokenId",
          "type": "uint256"
        }
      ],
      "name": "Transfer",
      "type": "event"
    },
    {
      "anonymous": false,
      "inputs": [
        {
          "indexed": false,
          "internalType": "uint256",
          "name": "_id",
          "type": "uint256"
        },
        {
          "indexed": false,
          "internalType": "uint256",
          "name": "_numTickets",
          "type": "uint256"
        },
        {
          "indexed": false,
          "internalType": "uint256",
          "name": "_price",
          "type": "uint256"
        }
      ],
      "name": "eventCreated",
      "type": "event"
    },
    {
      "anonymous": false,
      "inputs": [
        {
          "indexed": false,
          "internalType": "uint256",
          "name": "_id",
          "type": "uint256"
        },
        {
          "indexed": false,
          "internalType": "address",
          "name": "_owner",
          "type": "address"
        }
      ],
      "name": "ticketTransferred",
      "type": "event"
    },
    {
      "inputs": [
        {
          "internalType": "address",
          "name": "to",
          "type": "address"
        },
        {
          "internalType": "uint256",
          "name": "tokenId",
          "type": "uint256"
        }
      ],
      "name": "approve",
      "outputs": [],
      "stateMutability": "nonpayable",
      "type": "function"
    },
    {
      "inputs": [
        {
          "internalType": "uint256",
          "name": "",
          "type": "uint256"
        },
        {
          "internalType": "uint256",
          "name": "",
          "type": "uint256"
        }
      ],
      "name": "attendees",
      "outputs": [
        {
          "internalType": "address",
          "name": "",
          "type": "address"
        }
      ],
      "stateMutability": "view",
      "type": "function"
    },
    {
      "inputs": [
        {
          "internalType": "address",
          "name": "owner",
          "type": "address"
        }
      ],
      "name": "balanceOf",
      "outputs": [
        {
          "internalType": "uint256",
          "name": "",
          "type": "uint256"
        }
      ],
      "stateMutability": "view",
      "type": "function"
    },
    {
      "inputs": [
        {
          "internalType": "uint256",
          "name": "",
          "type": "uint256"
        }
      ],
      "name": "events",
      "outputs": [
        {
          "internalType": "uint256",
          "name": "eventID",
          "type": "uint256"
        },
        {
          "internalType": "address",
          "name": "organiser",
          "type": "address"
        },
        {
          "internalType": "enum Market.State",
          "name": "currentState",
          "type": "uint8"
        },
        {
          "internalType": "uint256",
          "name": "totalTicket",
          "type": "uint256"
        },
        {
          "internalType": "uint256",
          "name": "ticketPrice",
          "type": "uint256"
        },
        {
          "internalType": "uint256",
          "name": "firstTicketID",
          "type": "uint256"
        },
        {
          "internalType": "uint256",
          "name": "currentTicketID",
          "type": "uint256"
        },
        {
          "internalType": "uint256",
          "name": "lastTicketID",
          "type": "uint256"
        }
      ],
      "stateMutability": "view",
      "type": "function"
    },
    {
      "inputs": [
        {
          "internalType": "uint256",
          "name": "tokenId",
          "type": "uint256"
        }
      ],
      "name": "getApproved",
      "outputs": [
        {
          "internalType": "address",
          "name": "",
          "type": "address"
        }
      ],
      "stateMutability": "view",
      "type": "function"
    },
    {
      "inputs": [
        {
          "internalType": "address",
          "name": "owner",
          "type": "address"
        },
        {
          "internalType": "address",
          "name": "operator",
          "type": "address"
        }
      ],
      "name": "isApprovedForAll",
      "outputs": [
        {
          "internalType": "bool",
          "name": "",
          "type": "bool"
        }
      ],
      "stateMutability": "view",
      "type": "function"
    },
    {
      "inputs": [],
      "name": "name",
      "outputs": [
        {
          "internalType": "string",
          "name": "",
          "type": "string"
        }
      ],
      "stateMutability": "view",
      "type": "function"
    },
    {
      "inputs": [],
      "name": "owner",
      "outputs": [
        {
          "internalType": "address",
          "name": "",
          "type": "address"
        }
      ],
      "stateMutability": "view",
      "type": "function"
    },
    {
      "inputs": [
        {
          "internalType": "uint256",
          "name": "tokenId",
          "type": "uint256"
        }
      ],
      "name": "ownerOf",
      "outputs": [
        {
          "internalType": "address",
          "name": "",
          "type": "address"
        }
      ],
      "stateMutability": "view",
      "type": "function"
    },
    {
      "inputs": [],
      "name": "renounceOwnership",
      "outputs": [],
      "stateMutability": "nonpayable",
      "type": "function"
    },
    {
      "inputs": [
        {
          "internalType": "address",
          "name": "from",
          "type": "address"
        },
        {
          "internalType": "address",
          "name": "to",
          "type": "address"
        },
        {
          "internalType": "uint256",
          "name": "tokenId",
          "type": "uint256"
        }
      ],
      "name": "safeTransferFrom",
      "outputs": [],
      "stateMutability": "nonpayable",
      "type": "function"
    },
    {
      "inputs": [
        {
          "internalType": "address",
          "name": "from",
          "type": "address"
        },
        {
          "internalType": "address",
          "name": "to",
          "type": "address"
        },
        {
          "internalType": "uint256",
          "name": "tokenId",
          "type": "uint256"
        },
        {
          "internalType": "bytes",
          "name": "_data",
          "type": "bytes"
        }
      ],
      "name": "safeTransferFrom",
      "outputs": [],
      "stateMutability": "nonpayable",
      "type": "function"
    },
    {
      "inputs": [
        {
          "internalType": "address",
          "name": "operator",
          "type": "address"
        },
        {
          "internalType": "bool",
          "name": "approved",
          "type": "bool"
        }
      ],
      "name": "setApprovalForAll",
      "outputs": [],
      "stateMutability": "nonpayable",
      "type": "function"
    },
    {
      "inputs": [
        {
          "internalType": "bytes4",
          "name": "interfaceId",
          "type": "bytes4"
        }
      ],
      "name": "supportsInterface",
      "outputs": [
        {
          "internalType": "bool",
          "name": "",
          "type": "bool"
        }
      ],
      "stateMutability": "view",
      "type": "function"
    },
    {
      "inputs": [],
      "name": "symbol",
      "outputs": [
        {
          "internalType": "string",
          "name": "",
          "type": "string"
        }
      ],
      "stateMutability": "view",
      "type": "function"
    },
    {
      "inputs": [
        {
          "internalType": "uint256",
          "name": "tokenId",
          "type": "uint256"
        }
      ],
      "name": "tokenURI",
      "outputs": [
        {
          "internalType": "string",
          "name": "",
          "type": "string"
        }
      ],
      "stateMutability": "view",
      "type": "function"
    },
    {
      "inputs": [
        {
          "internalType": "address",
          "name": "from",
          "type": "address"
        },
        {
          "internalType": "address",
          "name": "to",
          "type": "address"
        },
        {
          "internalType": "uint256",
          "name": "tokenId",
          "type": "uint256"
        }
      ],
      "name": "transferFrom",
      "outputs": [],
      "stateMutability": "nonpayable",
      "type": "function"
    },
    {
      "inputs": [
        {
          "internalType": "address",
          "name": "newOwner",
          "type": "address"
        }
      ],
      "name": "transferOwnership",
      "outputs": [],
      "stateMutability": "nonpayable",
      "type": "function"
    },
    {
      "inputs": [
        {
          "internalType": "uint256",
          "name": "_numTickets",
          "type": "uint256"
        },
        {
          "internalType": "uint256",
          "name": "_price",
          "type": "uint256"
        },
        {
          "internalType": "string",
          "name": "_ticketUri",
          "type": "string"
        }
      ],
      "name": "createEvent",
      "outputs": [],
      "stateMutability": "nonpayable",
      "type": "function"
    },
    {
      "inputs": [],
      "name": "withdraw",
      "outputs": [],
      "stateMutability": "nonpayable",
      "type": "function"
    },
    {
      "inputs": [
        {
          "internalType": "uint256",
          "name": "_eventId",
          "type": "uint256"
        }
      ],
      "name": "startTicketSale",
      "outputs": [],
      "stateMutability": "nonpayable",
      "type": "function"
    },
    {
      "inputs": [
        {
          "internalType": "uint256",
          "name": "_eventId",
          "type": "uint256"
        }
      ],
      "name": "endTicketSale",
      "outputs": [],
      "stateMutability": "nonpayable",
      "type": "function"
    },
    {
      "inputs": [
        {
          "internalType": "uint256",
          "name": "_eventId",
          "type": "uint256"
        },
        {
          "internalType": "string",
          "name": "_ticketUri",
          "type": "string"
        }
      ],
      "name": "buyTicket",
      "outputs": [],
      "stateMutability": "payable",
      "type": "function"
    },
    {
      "inputs": [],
      "name": "getEventsLength",
      "outputs": [
        {
          "internalType": "uint256",
          "name": "",
          "type": "uint256"
        }
      ],
      "stateMutability": "view",
      "type": "function"
    },
    {
      "inputs": [
        {
          "internalType": "uint256",
          "name": "_eventId",
          "type": "uint256"
        }
      ],
      "name": "getAttendeesLength",
      "outputs": [
        {
          "internalType": "uint256",
          "name": "",
          "type": "uint256"
        }
      ],
      "stateMutability": "view",
      "type": "function"
    }
  ],
  "bytecode": "0x60806040526000600a556000600b553480156200001b57600080fd5b506040518060400160405280600b81526020017f4e4654205469636b6574730000000000000000000000000000000000000000008152506040518060400160405280600381526020017f5449580000000000000000000000000000000000000000000000000000000000815250620000a86200009c6200010c60201b60201c565b6200011460201b60201c565b8160019080519060200190620000c0929190620001f4565b508060029080519060200190620000d9929190620001f4565b5050506200010660405180606001604052806022815260200162003e4b60229139620001d860201b60201c565b62000309565b600033905090565b60008060009054906101000a900473ffffffffffffffffffffffffffffffffffffffff169050816000806101000a81548173ffffffffffffffffffffffffffffffffffffffff021916908373ffffffffffffffffffffffffffffffffffffffff1602179055508173ffffffffffffffffffffffffffffffffffffffff168173ffffffffffffffffffffffffffffffffffffffff167f8be0079c531659141344cd1fd0a4f28419497f9722a3daafe3b4186f6b6457e060405160405180910390a35050565b80600d9080519060200190620001f0929190620001f4565b5050565b8280546200020290620002a4565b90600052602060002090601f01602090048101928262000226576000855562000272565b82601f106200024157805160ff191683800117855562000272565b8280016001018555821562000272579182015b828111156200027157825182559160200191906001019062000254565b5b50905062000281919062000285565b5090565b5b80821115620002a057600081600090555060010162000286565b5090565b60006002820490506001821680620002bd57607f821691505b60208210811415620002d457620002d3620002da565b5b50919050565b7f4e487b7100000000000000000000000000000000000000000000000000000000600052602260045260246000fd5b613b3280620003196000396000f3fe6080604052600436106101665760003560e01c806370a08231116100d1578063adadcfef1161008a578063c9b2264c11610064578063c9b2264c14610532578063dac44d871461056f578063e985e9c514610598578063f2fde38b146105d557610166565b8063adadcfef1461048f578063b88d4fde146104cc578063c87b56dd146104f557610166565b806370a08231146103a0578063715018a6146103dd5780638da5cb5b146103f457806395d89b411461041f5780639afb93cb1461044a578063a22cb4651461046657610166565b806323b872dd1161012357806323b872dd146102a6578063294e0d56146102cf5780633ccfd60b146102f857806342842e0e1461030f57806347fc216e146103385780636352211e1461036357610166565b806301ffc9a71461016b57806306fdde03146101a8578063081812fc146101d3578063095ea7b3146102105780630b791430146102395780631c5f9a9c1461027d575b600080fd5b34801561017757600080fd5b50610192600480360381019061018d9190612832565b6105fe565b60405161019f9190612da4565b60405180910390f35b3480156101b457600080fd5b506101bd6106e0565b6040516101ca9190612dbf565b60405180910390f35b3480156101df57600080fd5b506101fa60048036038101906101f5919061288c565b610772565b6040516102079190612d3d565b60405180910390f35b34801561021c57600080fd5b50610237600480360381019061023291906127f2565b6107f7565b005b34801561024557600080fd5b50610260600480360381019061025b919061288c565b61090f565b604051610274989796959493929190613065565b60405180910390f35b34801561028957600080fd5b506102a4600480360381019061029f919061288c565b610994565b005b3480156102b257600080fd5b506102cd60048036038101906102c891906126dc565b610a47565b005b3480156102db57600080fd5b506102f660048036038101906102f19190612955565b610aa7565b005b34801561030457600080fd5b5061030d610c6c565b005b34801561031b57600080fd5b50610336600480360381019061033191906126dc565b610cf4565b005b34801561034457600080fd5b5061034d610d14565b60405161035a9190613021565b60405180910390f35b34801561036f57600080fd5b5061038a6004803603810190610385919061288c565b610d21565b6040516103979190612d3d565b60405180910390f35b3480156103ac57600080fd5b506103c760048036038101906103c2919061266f565b610dd3565b6040516103d49190613021565b60405180910390f35b3480156103e957600080fd5b506103f2610e8b565b005b34801561040057600080fd5b50610409610f13565b6040516104169190612d3d565b60405180910390f35b34801561042b57600080fd5b50610434610f3c565b6040516104419190612dbf565b60405180910390f35b610464600480360381019061045f91906128b9565b610fce565b005b34801561047257600080fd5b5061048d600480360381019061048891906127b2565b611175565b005b34801561049b57600080fd5b506104b660048036038101906104b1919061288c565b61118b565b6040516104c39190613021565b60405180910390f35b3480156104d857600080fd5b506104f360048036038101906104ee919061272f565b6111ab565b005b34801561050157600080fd5b5061051c6004803603810190610517919061288c565b61120d565b6040516105299190612dbf565b60405180910390f35b34801561053e57600080fd5b5061055960048036038101906105549190612915565b61135f565b6040516105669190612d3d565b60405180910390f35b34801561057b57600080fd5b506105966004803603810190610591919061288c565b6113ad565b005b3480156105a457600080fd5b506105bf60048036038101906105ba919061269c565b611460565b6040516105cc9190612da4565b60405180910390f35b3480156105e157600080fd5b506105fc60048036038101906105f7919061266f565b6114f4565b005b60007f80ac58cd000000000000000000000000000000000000000000000000000000007bffffffffffffffffffffffffffffffffffffffffffffffffffffffff1916827bffffffffffffffffffffffffffffffffffffffffffffffffffffffff191614806106c957507f5b5e139f000000000000000000000000000000000000000000000000000000007bffffffffffffffffffffffffffffffffffffffffffffffffffffffff1916827bffffffffffffffffffffffffffffffffffffffffffffffffffffffff1916145b806106d957506106d8826115ec565b5b9050919050565b6060600180546106ef9061337a565b80601f016020809104026020016040519081016040528092919081815260200182805461071b9061337a565b80156107685780601f1061073d57610100808354040283529160200191610768565b820191906000526020600020905b81548152906001019060200180831161074b57829003601f168201915b5050505050905090565b600061077d82611656565b6107bc576040517f08c379a00000000000000000000000000000000000000000000000000000000081526004016107b390612f61565b60405180910390fd5b6005600083815260200190815260200160002060009054906101000a900473ffffffffffffffffffffffffffffffffffffffff169050919050565b600061080282610d21565b90508073ffffffffffffffffffffffffffffffffffffffff168373ffffffffffffffffffffffffffffffffffffffff161415610873576040517f08c379a000000000000000000000000000000000000000000000000000000000815260040161086a90612fe1565b60405180910390fd5b8073ffffffffffffffffffffffffffffffffffffffff166108926116c2565b73ffffffffffffffffffffffffffffffffffffffff1614806108c157506108c0816108bb6116c2565b611460565b5b610900576040517f08c379a00000000000000000000000000000000000000000000000000000000081526004016108f790612ea1565b60405180910390fd5b61090a83836116ca565b505050565b6008818154811061091f57600080fd5b90600052602060002090600702016000915090508060000154908060010160009054906101000a900473ffffffffffffffffffffffffffffffffffffffff16908060010160149054906101000a900460ff16908060020154908060030154908060040154908060050154908060060154905088565b6000600882815481106109aa576109a9613513565b5b906000526020600020906007020190508060010160009054906101000a900473ffffffffffffffffffffffffffffffffffffffff1673ffffffffffffffffffffffffffffffffffffffff163373ffffffffffffffffffffffffffffffffffffffff1614610a1657600080fd5b60018160010160146101000a81548160ff02191690836002811115610a3e57610a3d6134b5565b5b02179055505050565b610a58610a526116c2565b82611783565b610a97576040517f08c379a0000000000000000000000000000000000000000000000000000000008152600401610a8e90613001565b60405180910390fd5b610aa2838383611861565b505050565b6008604051806101000160405280600a5481526020013373ffffffffffffffffffffffffffffffffffffffff16815260200160006002811115610aed57610aec6134b5565b5b8152602001858152602001848152602001600b548152602001600b548152602001610b366001610b2888600b54611abd90919063ffffffff16565b611ad390919063ffffffff16565b81525090806001815401808255809150506001900390600052602060002090600702016000909190919091506000820151816000015560208201518160010160006101000a81548173ffffffffffffffffffffffffffffffffffffffff021916908373ffffffffffffffffffffffffffffffffffffffff16021790555060408201518160010160146101000a81548160ff02191690836002811115610bde57610bdd6134b5565b5b0217905550606082015181600201556080820151816003015560a0820151816004015560c0820151816005015560e082015181600601555050610c218382611ae9565b507f510309c3e6be414884b8f9842a0f181fef1b2bb405bb05840d1ce0096d09cef8600a548484604051610c57939291906130e3565b60405180910390a1610c67611b37565b505050565b3373ffffffffffffffffffffffffffffffffffffffff166108fc600c60003373ffffffffffffffffffffffffffffffffffffffff1673ffffffffffffffffffffffffffffffffffffffff168152602001908152602001600020549081150290604051600060405180830381858888f19350505050158015610cf1573d6000803e3d6000fd5b50565b610d0f838383604051806020016040528060008152506111ab565b505050565b6000600880549050905090565b6000806003600084815260200190815260200160002060009054906101000a900473ffffffffffffffffffffffffffffffffffffffff169050600073ffffffffffffffffffffffffffffffffffffffff168173ffffffffffffffffffffffffffffffffffffffff161415610dca576040517f08c379a0000000000000000000000000000000000000000000000000000000008152600401610dc190612ee1565b60405180910390fd5b80915050919050565b60008073ffffffffffffffffffffffffffffffffffffffff168273ffffffffffffffffffffffffffffffffffffffff161415610e44576040517f08c379a0000000000000000000000000000000000000000000000000000000008152600401610e3b90612ec1565b60405180910390fd5b600460008373ffffffffffffffffffffffffffffffffffffffff1673ffffffffffffffffffffffffffffffffffffffff168152602001908152602001600020549050919050565b610e936116c2565b73ffffffffffffffffffffffffffffffffffffffff16610eb1610f13565b73ffffffffffffffffffffffffffffffffffffffff1614610f07576040517f08c379a0000000000000000000000000000000000000000000000000000000008152600401610efe90612f81565b60405180910390fd5b610f116000611b51565b565b60008060009054906101000a900473ffffffffffffffffffffffffffffffffffffffff16905090565b606060028054610f4b9061337a565b80601f0160208091040260200160405190810160405280929190818152602001828054610f779061337a565b8015610fc45780601f10610f9957610100808354040283529160200191610fc4565b820191906000526020600020905b815481529060010190602001808311610fa757829003601f168201915b5050505050905090565b600060088381548110610fe457610fe3613513565b5b90600052602060002090600702019050806003015434101561100557600080fd5b600081600501549050816006015481111561101f57600080fd5b600061102a82610d21565b905034600c60008373ffffffffffffffffffffffffffffffffffffffff1673ffffffffffffffffffffffffffffffffffffffff168152602001908152602001600020600082825461107b91906131e4565b9250508190555060096000868152602001908152602001600020339080600181540180825580915050600190039060005260206000200160009091909190916101000a81548173ffffffffffffffffffffffffffffffffffffffff021916908373ffffffffffffffffffffffffffffffffffffffff16021790555061111181338460405180602001604052806000815250611c15565b61111b8285611c71565b826005016000815480929190611130906133dd565b91905055507f1a16bc699ce0f6ccd4b93e7dc6f592ff10f75af2aa2e0a7346adbc317943749a823360405161116692919061303c565b60405180910390a15050505050565b6111876111806116c2565b8383611ce5565b5050565b600060096000838152602001908152602001600020805490509050919050565b6111bc6111b66116c2565b83611783565b6111fb576040517f08c379a00000000000000000000000000000000000000000000000000000000081526004016111f290613001565b60405180910390fd5b61120784848484611c15565b50505050565b606061121882611656565b611257576040517f08c379a000000000000000000000000000000000000000000000000000000000815260040161124e90612f41565b60405180910390fd5b60006007600084815260200190815260200160002080546112779061337a565b80601f01602080910402602001604051908101604052809291908181526020018280546112a39061337a565b80156112f05780601f106112c5576101008083540402835291602001916112f0565b820191906000526020600020905b8154815290600101906020018083116112d357829003601f168201915b505050505090506000611301611e52565b905060008151141561131757819250505061135a565b60008251111561134c578082604051602001611334929190612d19565b6040516020818303038152906040529250505061135a565b61135584611ee4565b925050505b919050565b6009602052816000526040600020818154811061137b57600080fd5b906000526020600020016000915091509054906101000a900473ffffffffffffffffffffffffffffffffffffffff1681565b6000600882815481106113c3576113c2613513565b5b906000526020600020906007020190508060010160009054906101000a900473ffffffffffffffffffffffffffffffffffffffff1673ffffffffffffffffffffffffffffffffffffffff163373ffffffffffffffffffffffffffffffffffffffff161461142f57600080fd5b60028160010160146101000a81548160ff02191690836002811115611457576114566134b5565b5b02179055505050565b6000600660008473ffffffffffffffffffffffffffffffffffffffff1673ffffffffffffffffffffffffffffffffffffffff16815260200190815260200160002060008373ffffffffffffffffffffffffffffffffffffffff1673ffffffffffffffffffffffffffffffffffffffff16815260200190815260200160002060009054906101000a900460ff16905092915050565b6114fc6116c2565b73ffffffffffffffffffffffffffffffffffffffff1661151a610f13565b73ffffffffffffffffffffffffffffffffffffffff1614611570576040517f08c379a000000000000000000000000000000000000000000000000000000000815260040161156790612f81565b60405180910390fd5b600073ffffffffffffffffffffffffffffffffffffffff168173ffffffffffffffffffffffffffffffffffffffff1614156115e0576040517f08c379a00000000000000000000000000000000000000000000000000000000081526004016115d790612e01565b60405180910390fd5b6115e981611b51565b50565b60007f01ffc9a7000000000000000000000000000000000000000000000000000000007bffffffffffffffffffffffffffffffffffffffffffffffffffffffff1916827bffffffffffffffffffffffffffffffffffffffffffffffffffffffff1916149050919050565b60008073ffffffffffffffffffffffffffffffffffffffff166003600084815260200190815260200160002060009054906101000a900473ffffffffffffffffffffffffffffffffffffffff1673ffffffffffffffffffffffffffffffffffffffff1614159050919050565b600033905090565b816005600083815260200190815260200160002060006101000a81548173ffffffffffffffffffffffffffffffffffffffff021916908373ffffffffffffffffffffffffffffffffffffffff160217905550808273ffffffffffffffffffffffffffffffffffffffff1661173d83610d21565b73ffffffffffffffffffffffffffffffffffffffff167f8c5be1e5ebec7d5bd14f71427d1e84f3dd0314c0f7b2291e5b200ac8c7c3b92560405160405180910390a45050565b600061178e82611656565b6117cd576040517f08c379a00000000000000000000000000000000000000000000000000000000081526004016117c490612e81565b60405180910390fd5b60006117d883610d21565b90508073ffffffffffffffffffffffffffffffffffffffff168473ffffffffffffffffffffffffffffffffffffffff16148061184757508373ffffffffffffffffffffffffffffffffffffffff1661182f84610772565b73ffffffffffffffffffffffffffffffffffffffff16145b8061185857506118578185611460565b5b91505092915050565b8273ffffffffffffffffffffffffffffffffffffffff1661188182610d21565b73ffffffffffffffffffffffffffffffffffffffff16146118d7576040517f08c379a00000000000000000000000000000000000000000000000000000000081526004016118ce90612fa1565b60405180910390fd5b600073ffffffffffffffffffffffffffffffffffffffff168273ffffffffffffffffffffffffffffffffffffffff161415611947576040517f08c379a000000000000000000000000000000000000000000000000000000000815260040161193e90612e41565b60405180910390fd5b611952838383611f8b565b61195d6000826116ca565b6001600460008573ffffffffffffffffffffffffffffffffffffffff1673ffffffffffffffffffffffffffffffffffffffff16815260200190815260200160002060008282546119ad919061326b565b925050819055506001600460008473ffffffffffffffffffffffffffffffffffffffff1673ffffffffffffffffffffffffffffffffffffffff1681526020019081526020016000206000828254611a0491906131e4565b92505081905550816003600083815260200190815260200160002060006101000a81548173ffffffffffffffffffffffffffffffffffffffff021916908373ffffffffffffffffffffffffffffffffffffffff160217905550808273ffffffffffffffffffffffffffffffffffffffff168473ffffffffffffffffffffffffffffffffffffffff167fddf252ad1be2c89b69c2b068fc378daa952ba7f163c4a11628f55a4df523b3ef60405160405180910390a4505050565b60008183611acb91906131e4565b905092915050565b60008183611ae1919061326b565b905092915050565b600080600090505b83811015611b2c57611b0533600b54611f90565b611b11600b5484611c71565b611b1961215e565b8080611b24906133dd565b915050611af1565b506001905092915050565b600a6000815480929190611b4a906133dd565b9190505550565b60008060009054906101000a900473ffffffffffffffffffffffffffffffffffffffff169050816000806101000a81548173ffffffffffffffffffffffffffffffffffffffff021916908373ffffffffffffffffffffffffffffffffffffffff1602179055508173ffffffffffffffffffffffffffffffffffffffff168173ffffffffffffffffffffffffffffffffffffffff167f8be0079c531659141344cd1fd0a4f28419497f9722a3daafe3b4186f6b6457e060405160405180910390a35050565b611c20848484611861565b611c2c84848484612178565b611c6b576040517f08c379a0000000000000000000000000000000000000000000000000000000008152600401611c6290612de1565b60405180910390fd5b50505050565b611c7a82611656565b611cb9576040517f08c379a0000000000000000000000000000000000000000000000000000000008152600401611cb090612f01565b60405180910390fd5b80600760008481526020019081526020016000209080519060200190611ce0929190612483565b505050565b8173ffffffffffffffffffffffffffffffffffffffff168373ffffffffffffffffffffffffffffffffffffffff161415611d54576040517f08c379a0000000000000000000000000000000000000000000000000000000008152600401611d4b90612e61565b60405180910390fd5b80600660008573ffffffffffffffffffffffffffffffffffffffff1673ffffffffffffffffffffffffffffffffffffffff16815260200190815260200160002060008473ffffffffffffffffffffffffffffffffffffffff1673ffffffffffffffffffffffffffffffffffffffff16815260200190815260200160002060006101000a81548160ff0219169083151502179055508173ffffffffffffffffffffffffffffffffffffffff168373ffffffffffffffffffffffffffffffffffffffff167f17307eab39ab6107e8899845ad3d59bd9653f200f220920489ca2b5937696c3183604051611e459190612da4565b60405180910390a3505050565b6060600d8054611e619061337a565b80601f0160208091040260200160405190810160405280929190818152602001828054611e8d9061337a565b8015611eda5780601f10611eaf57610100808354040283529160200191611eda565b820191906000526020600020905b815481529060010190602001808311611ebd57829003601f168201915b5050505050905090565b6060611eef82611656565b611f2e576040517f08c379a0000000000000000000000000000000000000000000000000000000008152600401611f2590612fc1565b60405180910390fd5b6000611f38611e52565b90506000815111611f585760405180602001604052806000815250611f83565b80611f628461230f565b604051602001611f73929190612d19565b6040516020818303038152906040525b915050919050565b505050565b600073ffffffffffffffffffffffffffffffffffffffff168273ffffffffffffffffffffffffffffffffffffffff161415612000576040517f08c379a0000000000000000000000000000000000000000000000000000000008152600401611ff790612f21565b60405180910390fd5b61200981611656565b15612049576040517f08c379a000000000000000000000000000000000000000000000000000000000815260040161204090612e21565b60405180910390fd5b61205560008383611f8b565b6001600460008473ffffffffffffffffffffffffffffffffffffffff1673ffffffffffffffffffffffffffffffffffffffff16815260200190815260200160002060008282546120a591906131e4565b92505081905550816003600083815260200190815260200160002060006101000a81548173ffffffffffffffffffffffffffffffffffffffff021916908373ffffffffffffffffffffffffffffffffffffffff160217905550808273ffffffffffffffffffffffffffffffffffffffff16600073ffffffffffffffffffffffffffffffffffffffff167fddf252ad1be2c89b69c2b068fc378daa952ba7f163c4a11628f55a4df523b3ef60405160405180910390a45050565b600b6000815480929190612171906133dd565b9190505550565b60006121998473ffffffffffffffffffffffffffffffffffffffff16612470565b15612302578373ffffffffffffffffffffffffffffffffffffffff1663150b7a026121c26116c2565b8786866040518563ffffffff1660e01b81526004016121e49493929190612d58565b602060405180830381600087803b1580156121fe57600080fd5b505af192505050801561222f57506040513d601f19601f8201168201806040525081019061222c919061285f565b60015b6122b2573d806000811461225f576040519150601f19603f3d011682016040523d82523d6000602084013e612264565b606091505b506000815114156122aa576040517f08c379a00000000000000000000000000000000000000000000000000000000081526004016122a190612de1565b60405180910390fd5b805181602001fd5b63150b7a0260e01b7bffffffffffffffffffffffffffffffffffffffffffffffffffffffff1916817bffffffffffffffffffffffffffffffffffffffffffffffffffffffff191614915050612307565b600190505b949350505050565b60606000821415612357576040518060400160405280600181526020017f3000000000000000000000000000000000000000000000000000000000000000815250905061246b565b600082905060005b60008214612389578080612372906133dd565b915050600a82612382919061323a565b915061235f565b60008167ffffffffffffffff8111156123a5576123a4613542565b5b6040519080825280601f01601f1916602001820160405280156123d75781602001600182028036833780820191505090505b5090505b60008514612464576001826123f0919061326b565b9150600a856123ff9190613426565b603061240b91906131e4565b60f81b81838151811061242157612420613513565b5b60200101907effffffffffffffffffffffffffffffffffffffffffffffffffffffffffffff1916908160001a905350600a8561245d919061323a565b94506123db565b8093505050505b919050565b600080823b905060008111915050919050565b82805461248f9061337a565b90600052602060002090601f0160209004810192826124b157600085556124f8565b82601f106124ca57805160ff19168380011785556124f8565b828001600101855582156124f8579182015b828111156124f75782518255916020019190600101906124dc565b5b5090506125059190612509565b5090565b5b8082111561252257600081600090555060010161250a565b5090565b60006125396125348461313f565b61311a565b90508281526020810184848401111561255557612554613576565b5b612560848285613338565b509392505050565b600061257b61257684613170565b61311a565b90508281526020810184848401111561259757612596613576565b5b6125a2848285613338565b509392505050565b6000813590506125b981613aa0565b92915050565b6000813590506125ce81613ab7565b92915050565b6000813590506125e381613ace565b92915050565b6000815190506125f881613ace565b92915050565b600082601f83011261261357612612613571565b5b8135612623848260208601612526565b91505092915050565b600082601f83011261264157612640613571565b5b8135612651848260208601612568565b91505092915050565b60008135905061266981613ae5565b92915050565b60006020828403121561268557612684613580565b5b6000612693848285016125aa565b91505092915050565b600080604083850312156126b3576126b2613580565b5b60006126c1858286016125aa565b92505060206126d2858286016125aa565b9150509250929050565b6000806000606084860312156126f5576126f4613580565b5b6000612703868287016125aa565b9350506020612714868287016125aa565b92505060406127258682870161265a565b9150509250925092565b6000806000806080858703121561274957612748613580565b5b6000612757878288016125aa565b9450506020612768878288016125aa565b93505060406127798782880161265a565b925050606085013567ffffffffffffffff81111561279a5761279961357b565b5b6127a6878288016125fe565b91505092959194509250565b600080604083850312156127c9576127c8613580565b5b60006127d7858286016125aa565b92505060206127e8858286016125bf565b9150509250929050565b6000806040838503121561280957612808613580565b5b6000612817858286016125aa565b92505060206128288582860161265a565b9150509250929050565b60006020828403121561284857612847613580565b5b6000612856848285016125d4565b91505092915050565b60006020828403121561287557612874613580565b5b6000612883848285016125e9565b91505092915050565b6000602082840312156128a2576128a1613580565b5b60006128b08482850161265a565b91505092915050565b600080604083850312156128d0576128cf613580565b5b60006128de8582860161265a565b925050602083013567ffffffffffffffff8111156128ff576128fe61357b565b5b61290b8582860161262c565b9150509250929050565b6000806040838503121561292c5761292b613580565b5b600061293a8582860161265a565b925050602061294b8582860161265a565b9150509250929050565b60008060006060848603121561296e5761296d613580565b5b600061297c8682870161265a565b935050602061298d8682870161265a565b925050604084013567ffffffffffffffff8111156129ae576129ad61357b565b5b6129ba8682870161262c565b9150509250925092565b6129cd8161329f565b82525050565b6129dc816132b1565b82525050565b60006129ed826131a1565b6129f781856131b7565b9350612a07818560208601613347565b612a1081613585565b840191505092915050565b612a2481613326565b82525050565b6000612a35826131ac565b612a3f81856131c8565b9350612a4f818560208601613347565b612a5881613585565b840191505092915050565b6000612a6e826131ac565b612a7881856131d9565b9350612a88818560208601613347565b80840191505092915050565b6000612aa16032836131c8565b9150612aac82613596565b604082019050919050565b6000612ac46026836131c8565b9150612acf826135e5565b604082019050919050565b6000612ae7601c836131c8565b9150612af282613634565b602082019050919050565b6000612b0a6024836131c8565b9150612b158261365d565b604082019050919050565b6000612b2d6019836131c8565b9150612b38826136ac565b602082019050919050565b6000612b50602c836131c8565b9150612b5b826136d5565b604082019050919050565b6000612b736038836131c8565b9150612b7e82613724565b604082019050919050565b6000612b96602a836131c8565b9150612ba182613773565b604082019050919050565b6000612bb96029836131c8565b9150612bc4826137c2565b604082019050919050565b6000612bdc602e836131c8565b9150612be782613811565b604082019050919050565b6000612bff6020836131c8565b9150612c0a82613860565b602082019050919050565b6000612c226031836131c8565b9150612c2d82613889565b604082019050919050565b6000612c45602c836131c8565b9150612c50826138d8565b604082019050919050565b6000612c686020836131c8565b9150612c7382613927565b602082019050919050565b6000612c8b6029836131c8565b9150612c9682613950565b604082019050919050565b6000612cae602f836131c8565b9150612cb98261399f565b604082019050919050565b6000612cd16021836131c8565b9150612cdc826139ee565b604082019050919050565b6000612cf46031836131c8565b9150612cff82613a3d565b604082019050919050565b612d138161331c565b82525050565b6000612d258285612a63565b9150612d318284612a63565b91508190509392505050565b6000602082019050612d5260008301846129c4565b92915050565b6000608082019050612d6d60008301876129c4565b612d7a60208301866129c4565b612d876040830185612d0a565b8181036060830152612d9981846129e2565b905095945050505050565b6000602082019050612db960008301846129d3565b92915050565b60006020820190508181036000830152612dd98184612a2a565b905092915050565b60006020820190508181036000830152612dfa81612a94565b9050919050565b60006020820190508181036000830152612e1a81612ab7565b9050919050565b60006020820190508181036000830152612e3a81612ada565b9050919050565b60006020820190508181036000830152612e5a81612afd565b9050919050565b60006020820190508181036000830152612e7a81612b20565b9050919050565b60006020820190508181036000830152612e9a81612b43565b9050919050565b60006020820190508181036000830152612eba81612b66565b9050919050565b60006020820190508181036000830152612eda81612b89565b9050919050565b60006020820190508181036000830152612efa81612bac565b9050919050565b60006020820190508181036000830152612f1a81612bcf565b9050919050565b60006020820190508181036000830152612f3a81612bf2565b9050919050565b60006020820190508181036000830152612f5a81612c15565b9050919050565b60006020820190508181036000830152612f7a81612c38565b9050919050565b60006020820190508181036000830152612f9a81612c5b565b9050919050565b60006020820190508181036000830152612fba81612c7e565b9050919050565b60006020820190508181036000830152612fda81612ca1565b9050919050565b60006020820190508181036000830152612ffa81612cc4565b9050919050565b6000602082019050818103600083015261301a81612ce7565b9050919050565b60006020820190506130366000830184612d0a565b92915050565b60006040820190506130516000830185612d0a565b61305e60208301846129c4565b9392505050565b60006101008201905061307b600083018b612d0a565b613088602083018a6129c4565b6130956040830189612a1b565b6130a26060830188612d0a565b6130af6080830187612d0a565b6130bc60a0830186612d0a565b6130c960c0830185612d0a565b6130d660e0830184612d0a565b9998505050505050505050565b60006060820190506130f86000830186612d0a565b6131056020830185612d0a565b6131126040830184612d0a565b949350505050565b6000613124613135565b905061313082826133ac565b919050565b6000604051905090565b600067ffffffffffffffff82111561315a57613159613542565b5b61316382613585565b9050602081019050919050565b600067ffffffffffffffff82111561318b5761318a613542565b5b61319482613585565b9050602081019050919050565b600081519050919050565b600081519050919050565b600082825260208201905092915050565b600082825260208201905092915050565b600081905092915050565b60006131ef8261331c565b91506131fa8361331c565b9250827fffffffffffffffffffffffffffffffffffffffffffffffffffffffffffffffff0382111561322f5761322e613457565b5b828201905092915050565b60006132458261331c565b91506132508361331c565b9250826132605761325f613486565b5b828204905092915050565b60006132768261331c565b91506132818361331c565b92508282101561329457613293613457565b5b828203905092915050565b60006132aa826132fc565b9050919050565b60008115159050919050565b60007fffffffff0000000000000000000000000000000000000000000000000000000082169050919050565b60008190506132f782613a8c565b919050565b600073ffffffffffffffffffffffffffffffffffffffff82169050919050565b6000819050919050565b6000613331826132e9565b9050919050565b82818337600083830152505050565b60005b8381101561336557808201518184015260208101905061334a565b83811115613374576000848401525b50505050565b6000600282049050600182168061339257607f821691505b602082108114156133a6576133a56134e4565b5b50919050565b6133b582613585565b810181811067ffffffffffffffff821117156133d4576133d3613542565b5b80604052505050565b60006133e88261331c565b91507fffffffffffffffffffffffffffffffffffffffffffffffffffffffffffffffff82141561341b5761341a613457565b5b600182019050919050565b60006134318261331c565b915061343c8361331c565b92508261344c5761344b613486565b5b828206905092915050565b7f4e487b7100000000000000000000000000000000000000000000000000000000600052601160045260246000fd5b7f4e487b7100000000000000000000000000000000000000000000000000000000600052601260045260246000fd5b7f4e487b7100000000000000000000000000000000000000000000000000000000600052602160045260246000fd5b7f4e487b7100000000000000000000000000000000000000000000000000000000600052602260045260246000fd5b7f4e487b7100000000000000000000000000000000000000000000000000000000600052603260045260246000fd5b7f4e487b7100000000000000000000000000000000000000000000000000000000600052604160045260246000fd5b600080fd5b600080fd5b600080fd5b600080fd5b6000601f19601f8301169050919050565b7f4552433732313a207472616e7366657220746f206e6f6e20455243373231526560008201527f63656976657220696d706c656d656e7465720000000000000000000000000000602082015250565b7f4f776e61626c653a206e6577206f776e657220697320746865207a65726f206160008201527f6464726573730000000000000000000000000000000000000000000000000000602082015250565b7f4552433732313a20746f6b656e20616c7265616479206d696e74656400000000600082015250565b7f4552433732313a207472616e7366657220746f20746865207a65726f2061646460008201527f7265737300000000000000000000000000000000000000000000000000000000602082015250565b7f4552433732313a20617070726f766520746f2063616c6c657200000000000000600082015250565b7f4552433732313a206f70657261746f7220717565727920666f72206e6f6e657860008201527f697374656e7420746f6b656e0000000000000000000000000000000000000000602082015250565b7f4552433732313a20617070726f76652063616c6c6572206973206e6f74206f7760008201527f6e6572206e6f7220617070726f76656420666f7220616c6c0000000000000000602082015250565b7f4552433732313a2062616c616e636520717565727920666f7220746865207a6560008201527f726f206164647265737300000000000000000000000000000000000000000000602082015250565b7f4552433732313a206f776e657220717565727920666f72206e6f6e657869737460008201527f656e7420746f6b656e0000000000000000000000000000000000000000000000602082015250565b7f45524337323155524953746f726167653a2055524920736574206f66206e6f6e60008201527f6578697374656e7420746f6b656e000000000000000000000000000000000000602082015250565b7f4552433732313a206d696e7420746f20746865207a65726f2061646472657373600082015250565b7f45524337323155524953746f726167653a2055524920717565727920666f722060008201527f6e6f6e6578697374656e7420746f6b656e000000000000000000000000000000602082015250565b7f4552433732313a20617070726f76656420717565727920666f72206e6f6e657860008201527f697374656e7420746f6b656e0000000000000000000000000000000000000000602082015250565b7f4f776e61626c653a2063616c6c6572206973206e6f7420746865206f776e6572600082015250565b7f4552433732313a207472616e73666572206f6620746f6b656e2074686174206960008201527f73206e6f74206f776e0000000000000000000000000000000000000000000000602082015250565b7f4552433732314d657461646174613a2055524920717565727920666f72206e6f60008201527f6e6578697374656e7420746f6b656e0000000000000000000000000000000000602082015250565b7f4552433732313a20617070726f76616c20746f2063757272656e74206f776e6560008201527f7200000000000000000000000000000000000000000000000000000000000000602082015250565b7f4552433732313a207472616e736665722063616c6c6572206973206e6f74206f60008201527f776e6572206e6f7220617070726f766564000000000000000000000000000000602082015250565b60038110613a9d57613a9c6134b5565b5b50565b613aa98161329f565b8114613ab457600080fd5b50565b613ac0816132b1565b8114613acb57600080fd5b50565b613ad7816132bd565b8114613ae257600080fd5b50565b613aee8161331c565b8114613af957600080fd5b5056fea264697066735822122068ada0ac392a9d41e3106884426a5c5372fc9eb1882f8f21c44c7705fba5cfc864736f6c6343000807003368747470733a2f2f697066732e6d6f72616c69732e696f3a323035332f697066732f",
  "immutableReferences": {},
  "source": "// SPDX-License-Identifier: MIT\n\npragma solidity ^0.8.0;\n\nimport \"@openzeppelin/contracts/access/Ownable.sol\";\nimport \"@openzeppelin/contracts/token/ERC721/extensions/ERC721URIStorage.sol\";\nimport \"@openzeppelin/contracts/utils/math/SafeMath.sol\";\n\ncontract Market is Ownable, ERC721URIStorage{\n\n  using SafeMath for uint;\n\n  enum State { ticketSaleNotStarted, ticketSaleStarted, ticketSaleEnded }\n\n  Event[] public events;\n  mapping (uint256 => address[]) public attendees;\n\n  struct Event {\n      uint256 eventID;\n      address organiser;\n      State currentState;\n      uint256 totalTicket;\n      uint256 ticketPrice;\n      uint256 firstTicketID; \n      uint256 currentTicketID;\n      uint256 lastTicketID;\n  }\n\n  uint256 private _currentEventId = 0;\n  uint256 private _currentTokenId = 0;\n  mapping (address => uint256) balances;\n  string private _base;\n\n  constructor() ERC721(\"NFT Tickets\", \"TIX\") {\n      _setBaseURI(\"https://ipfs.moralis.io:2053/ipfs/\");\n  }\n\n  function _setBaseURI(string memory _uri) private {\n      _base = _uri;\n  }\n\n  function _baseURI() internal view override returns (string memory) {\n      return _base;\n  }\n\n  function createEvent(uint256 _numTickets, uint256 _price, string memory _ticketUri) public {\n      events.push(Event(\n          _currentEventId, \n          msg.sender, \n          State.ticketSaleNotStarted, \n          _numTickets, \n          _price,\n          _currentTokenId,\n          _currentTokenId,\n          _currentTokenId.add(_numTickets).sub(1)));\n      createTickets(_numTickets, _ticketUri);\n      emit eventCreated(_currentEventId, _numTickets, _price);\n      _incrementEventId();\n  }\n\n  function createTickets(uint256 _num, string memory _ticketUri) private returns(bool) {\n      for (uint i=0; i<_num; i++) {\n          _mint(msg.sender, _currentTokenId); \n          _setTokenURI(_currentTokenId, _ticketUri);\n          _incrementTokenId();\n      }\n      return true;\n  }\n\n  // event organiser can withdraw funds from ticket sales\n  function withdraw() public {\n      payable(msg.sender).transfer(balances[msg.sender]);\n  }\n\n  function startTicketSale(uint256 _eventId) public {\n      Event storage selectedEvent = events[_eventId];\n      require(msg.sender == selectedEvent.organiser);\n      selectedEvent.currentState = State.ticketSaleStarted;\n  }\n\n  function endTicketSale(uint256 _eventId) public {\n      Event storage selectedEvent = events[_eventId];\n      require(msg.sender == selectedEvent.organiser);\n      selectedEvent.currentState = State.ticketSaleEnded;\n  }\n\n  function _incrementTokenId() private {\n      _currentTokenId++;\n  }\n\n  function _incrementEventId() private {\n      _currentEventId++;\n  }\n\n  // this function should be called by the buyer\n  function buyTicket(uint256 _eventId, string memory _ticketUri) public payable {\n      Event storage selectedEvent = events[_eventId];\n      //require(selectedEvent.currentState == State.ticketSaleStarted);\n      require(msg.value >= selectedEvent.ticketPrice);\n      uint256 tokenId = selectedEvent.currentTicketID;\n      require(tokenId <= selectedEvent.lastTicketID);\n      address seller = ownerOf(tokenId);\n      balances[seller] += msg.value;\n      attendees[_eventId].push(msg.sender);\n      _safeTransfer(seller, msg.sender, tokenId, \"\");\n      _setTokenURI(tokenId, _ticketUri);\n      selectedEvent.currentTicketID++;\n      emit ticketTransferred(tokenId, msg.sender);\n  }\n\n  function getEventsLength() public view returns(uint) {\n      return events.length;\n  }\n\n  function getAttendeesLength(uint256 _eventId) public view returns(uint) {\n      return attendees[_eventId].length;\n  }\n\n  event ticketTransferred(uint256 _id, address _owner); //show the address of new owner\n  event eventCreated(uint256 _id, uint256 _numTickets, uint256 _price);\n\n}",
  "sourcePath": "/Users/mm-mac/Desktop/mm-projects-blockchain/kaijun-ticketing/tixlab/tixlab/contracts/Market.sol",
  "compiler": {
    "name": "solc",
    "version": "0.8.7+commit.e28d00a7.Emscripten.clang"
  },
  "schemaVersion": "3.2.3",
  "updatedAt": "2022-01-30T12:10:45.227Z",
  "devdoc": {
    "kind": "dev",
    "methods": {
      "approve(address,uint256)": {
        "details": "See {IERC721-approve}."
      },
      "balanceOf(address)": {
        "details": "See {IERC721-balanceOf}."
      },
      "getApproved(uint256)": {
        "details": "See {IERC721-getApproved}."
      },
      "isApprovedForAll(address,address)": {
        "details": "See {IERC721-isApprovedForAll}."
      },
      "name()": {
        "details": "See {IERC721Metadata-name}."
      },
      "owner()": {
        "details": "Returns the address of the current owner."
      },
      "ownerOf(uint256)": {
        "details": "See {IERC721-ownerOf}."
      },
      "renounceOwnership()": {
        "details": "Leaves the contract without owner. It will not be possible to call `onlyOwner` functions anymore. Can only be called by the current owner. NOTE: Renouncing ownership will leave the contract without an owner, thereby removing any functionality that is only available to the owner."
      },
      "safeTransferFrom(address,address,uint256)": {
        "details": "See {IERC721-safeTransferFrom}."
      },
      "safeTransferFrom(address,address,uint256,bytes)": {
        "details": "See {IERC721-safeTransferFrom}."
      },
      "setApprovalForAll(address,bool)": {
        "details": "See {IERC721-setApprovalForAll}."
      },
      "supportsInterface(bytes4)": {
        "details": "See {IERC165-supportsInterface}."
      },
      "symbol()": {
        "details": "See {IERC721Metadata-symbol}."
      },
      "tokenURI(uint256)": {
        "details": "See {IERC721Metadata-tokenURI}."
      },
      "transferFrom(address,address,uint256)": {
        "details": "See {IERC721-transferFrom}."
      },
      "transferOwnership(address)": {
        "details": "Transfers ownership of the contract to a new account (`newOwner`). Can only be called by the current owner."
      }
    },
    "version": 1
  },
  "userdoc": {
    "kind": "user",
    "methods": {},
    "version": 1
  }
}